:100000000C94FE090C941F0A0C941F0A0C941F0AEE
:100010000C941F0A0C941F0A0C941F0A0C941F0ABC
:100020000C941F0A0C941F0A0C941F0A0C941F0AAC
:100030000C941F0A0C941F0A0C941F0A0C941F0A9C
:100040000C941F0A0C9428340C941F0A0C941F0A59
:100050000C941F0A0C941F0A0C946C1C0C94751BB6
:100060000C941F0A0C9419130C941F0A0C941F0A69
:100070000C941F0A0C941F0A0C941F0A0C941F0A5C
:100080000C941F0A0C941F0A0C941F0A0C941F0A4C
:100090000C941F0A0C941F0A0C941F0A0C941F0A3C
:1000A0000C941F0A0C941F0A0C941F0A0C941F0A2C
:1000B0000C941F0A0C941F0A0C941F0A0C941F0A1C
:1000C0000C941F0A0C941F0A0C941F0A0C941F0A0C
:1000D0000C941F0A0C941F0A0C941F0A0C941F0AFC
:1000E0000C941F0A77197A1969196D197319B119C6
:1000F0007E19821988198C19901996199A199E19C6
:10010000B119A419A819AC19911A961A9B1AA51A13
:10011000AF1A281BB91AC11AC91AD31ADD1AE71A5D
:10012000F61A001B281B0A1B141B1E1BEB1CF81CB9
:10013000141D211D3B1D481D621D641D661D681D8B
:10014000711D7E1D981D084AD73B3BCE016E84BCB5
:10015000BFFDC12F3D6C74319ABD56833DDA3D0021
:10016000C77F11BED9E4BB4C3E916BAAAABE00006A
:1001700000803F05A84CCDB2D44EB93836A9020C48
:1001800050B9918688083CA6AAAA2ABE0000008021
:100190003F004E414E494E495459494E46CDCCCC74
:1001A0003D0AD7233C17B7D13877CC2B329595E64B
:1001B000241FB14F0A000020410000C84200401C2B
:1001C0004620BCBE4CCA1B0E5AAEC59D7450494455
:1001D000204175746F74756E652066696E69736809
:1001E0006564212050757420746865206C61737497
:1001F000204B702C204B6920616E64204B6420637F
:100200006F6E7374616E74732066726F6D206162BD
:100210006F766520696E746F20436F6E66696775CF
:10022000726174696F6E2E68005049442041757484
:100230006F74756E65206661696C656421207469F0
:100240006D656F75740020403A006F6B20543A0062
:100250006F6B20423A00504944204175746F7475A9
:100260006E65206661696C6564212054656D7065FA
:1002700072617475726520746F6F206869676800B9
:10028000204B643A2000204B693A2000204B703A02
:10029000200020436C61737369632050494420003F
:1002A0002054753A2000204B753A2000206D61786B
:1002B0003A2000206D696E3A200020643A20002028
:1002C000626961733A200053657474696E677320C4
:1002D00053746F7265640020440020490020202080
:1002E0004D33303120500050494420736574746997
:1002F0006E67733A00205A0020590020204D32309A
:1003000036205800486F6D65206F666673657420EF
:10031000286D6D293A00204500205A002058002001
:10032000420020540020204D3230352053004164DB
:1003300076616E636564207661726961626C657373
:100340003A20533D4D696E2066656564726174653F
:1003500020286D6D2F73292C20543D4D696E20741B
:10036000726176656C2066656564726174652028CB
:100370006D6D2F73292C20423D6D696E696D756D11
:10038000207365676D656E742074696D6520286DD6
:1003900073292C20583D6D6178696D756D20585911
:1003A000206A65726B20286D6D2F73292C20205ACE
:1003B0003D6D6178696D756D205A206A65726B209C
:1003C000286D6D2F73292C2020453D6D6178696D56
:1003D000756D2045206A65726B20286D6D2F73291D
:1003E0000020540020204D323034205300416363FC
:1003F000656C65726174696F6E3A20533D61636329
:10040000656C65726174696F6E2C20543D72657401
:100410007261637420616363656C65726174696F96
:100420006E00204500205A0020590020204D323017
:10043000312058004D6178696D756D2041636365A9
:100440006C65726174696F6E20286D6D2F7332292F
:100450003A00204500205A0020590020204D32301B
:10046000332058004D6178696D756D20666565644F
:10047000726174657320286D6D2F73293A002045D1
:1004800000205A0020590020204D393220580053B6
:10049000746570732070657220756E69743A0022FD
:1004A00000556E6B6E6F776E20636F6D6D616E645D
:1004B0003A2022005A204F6666736574203A200065
:1004C0007A5F6D61783A20007A5F6D696E3A20003C
:1004D0005A204F6666736574005A204F66667365CE
:1004E00074206F6B00486F74656E64206F6666736E
:1004F0006574733A007A5F6D61783A2000795F6DB8
:10050000696E3A2000785F6D696E3A2000205A3A91
:100510000020593A0020436F756E7420583A20002D
:1005200020453A00205A3A0020593A00583A0046ED
:1005300049524D574152455F4E414D453A4D6172CA
:100540006C696E204649524D574152455F5645529F
:1005500053494F4E3A312E302E3020534F5552438F
:10056000455F434F44455F55524C3A68747470730D
:100570003A2F2F6769746875622E636F6D2F46720C
:1005800061636B74616C576F726B732F4A756C6922
:100590006133474D61726C696E2050524F544F4326
:1005A0004F4C5F56455253494F4E3A312E30204DF5
:1005B000414348494E455F545950453A4A756C6924
:1005C0006133472045585452554445525F434F5577
:1005D0004E543A3220582D4649524D574152455FAC
:1005E0004C414E47554147453A454E0020423A005E
:1005F00020453A00543A0020573A0020453A00542A
:100600003A0020414D425F543A0020403A00202FEA
:10061000003A00205400202F0020423A00202F00F2
:100620006F6B20543A002569206D696E2C20256976
:100630002073656300205A3A0020593A0020583A46
:1006400000656E6473746F7073206869743A20007B
:100650006563686F3A0053746F72656420736574E4
:1006600074696E677320726574726965766564007B
:1006700048617264636F6465642044656661756C8B
:10068000742053657474696E6773204C6F61646580
:1006900064002020506C616E6E65724275666665FE
:1006A0007242797465733A20002046726565204D68
:1006B000656D6F72793A20004A616E2031342032C4
:1006C00030313800436F6D70696C65643A200046C4
:1006D0007261636B74616C20576F726B7300207C66
:1006E00020417574686F723A20004A616E2031347F
:1006F00020323031382032313A35303A3231002030
:100700004C61737420557064617465643A200031E3
:100710002E302E32004D61726C696E0020536F6670
:100720007477617265205265736574002057617437
:100730006368646F67205265736574002042726F4E
:10074000776E206F7574205265736574002045784C
:100750007465726E616C20526573657400506F77BA
:1007600065725570007374617274005072696E74B2
:1007700065722073746F7070656420647565207491
:100780006F206572726F72732E20466978207468CC
:1007900065206572726F7220616E642075736520CA
:1007A0004D39393920746F20726573746172742EFB
:1007B000202854656D706572617475726520697367
:1007C0002072657365742E205365742069742061EE
:1007D000667465722072657374617274696E6729DC
:1007E000004E6F204C696E65204E756D62657220FB
:1007F0007769746820636865636B73756D2C204C32
:10080000617374204C696E653A20004E6F20436816
:1008100065636B73756D2077697468206C696E65AC
:10082000206E756D6265722C204C617374204C696A
:100830006E653A2000636865636B73756D206D6942
:10084000736D617463682C204C617374204C696E05
:10085000653A20004C696E65204E756D62657220A8
:100860006973206E6F74204C617374204C696E65DF
:10087000204E756D6265722B312C204C6173742093
:100880004C696E653A20004D313130005265736518
:100890006E643A20006F6B005072696E746572204E
:1008A00068616C7465642E206B696C6C2829206308
:1008B000616C6C65642100202D20496E76616C6945
:1008C00064206578747275646572206E756D6265FA
:1008D000722021001000C90210012C0140012201E8
:1008E00070011801B0010E01F00104015002FA007C
:1008F000B002F0003003E600D003DC009004D20028
:100900007005C800A006BE000008B400B009AA0027
:10091000D00BA000600E960060118C0000158200C4
:1009200020197800C01D6E00A0226400B0275A0074
:10093000902C500000314600E0343C00103832006A
:10094000903A2800603C1E00A03D1400803E0A0042
:10095000203F00003A2045787472756465722073F8
:1009600077697463686564206F66662E204D415810
:1009700054454D5020747269676765726564202123
:10098000003A2045787472756465722073776974D3
:1009900063686564206F66662E204D494E54454D50
:1009A0005020747269676765726564202100546520
:1009B0006D706572617475726520686561746564D7
:1009C00020626564207377697463686564206F666C
:1009D000662E204D415854454D502074726967670A
:1009E00065726564202121004572726F723A0000C1
:1009F000002100240027002A002D003000330001D0
:100A0000010000040107010A01000022002500285E
:100A1000002B002E00310034000201000005010807
:100A2000010B01000020002300260029002C002FCC
:100A3000003200000100000301060109010505055F
:100A400005070508080808020202020A0A08080445
:100A50000404040101010101010101030303030373
:100A6000030303040707070C0C0C0C0C0C0C0C0202
:100A700002020206060606060606060B0B0B0B0B09
:100A80000B0B0B0102102020080810204010204002
:100A90008002010201080402010102040810204042
:100AA0008080402010080402018004020180402060
:100AB0001008040201080402010102040810204089
:100AC00080010204081020408000000A0B02090C7B
:100AD0000D0E0807030401000000000000000000E4
:100AE0000000000000000000000000000000000006
:100AF00000000000001211100000000000000000C3
:100B00000000000000000000000000000000005095
:100B100072696E7465722073746F7070656420649E
:100B2000756520746F206572726F72732E2046692E
:100B30007820746865206572726F7220616E64201F
:100B4000757365204D39393920746F20726573745F
:100B50006172742E202854656D70657261747572AF
:100B6000652069732072657365742E205365742047
:100B70006974206166746572207265737461727441
:100B8000696E67290000009143000052430000771E
:100B90004300000000000000000000000000000012
:100BA0000000000000000077430000A0400000A00B
:100BB000400000A040000091430000524300007735
:100BC00043FFFF0120746F6F206C6F6E67206578A4
:100BD00074727573696F6E2070726576656E746578
:100BE000640020636F6C6420657874727573696F3C
:100BF0006E2070726576656E7465640024F4D4307E
:100C000050C38E20C2A24017828B7011127A910DB0
:100C1000816CD90AA861E108C7586607615143068B
:100C20001E4B5D05C145A7041A411104093D9803F7
:100C3000713931034036DB0265339102D4305402FE
:100C4000802E1D02632CEE01752AC501B028A0017B
:100C5000102781018F2564012B244B01E0223401F0
:100C6000AC211F018D200D01801FFC00841EED00B2
:100C7000971DDF00B81CD200E61BC600201BBC007D
:100C8000641AB200B219A8000A19A0006A189900E3
:100C9000D117910040178B00B516840031167E00E5
:100CA000B31579003A157300C7146F0058146A0021
:100CB000EE1366008813630025135E00C7125B0005
:100CC0006C12570015125400C111510070114F00E1
:100CD00021114B00D61049008D10470046104400EA
:100CE00002104200C00F4000800F3E00420F3C0047
:100CF000060F3B00CB0E3800930E37005C0E35001C
:100D0000270E3400F30D3200C10D3100900D30007C
:100D1000600D2E00320D2D00050D2C00D90C2B007E
:100D2000AE0C2900850C29005C0C2700350C27002F
:100D30000E0C2600E80B2400C40B2400A00B23009B
:100D40007D0B23005A0B2100390B2100180B2000CA
:100D5000F80A1F00D90A1E00BB0A1E009D0A1D00CA
:100D6000800A1D00630A1C00470A1B002C0A1B0096
:100D7000110A1A00F7091A00DD091900C40919003F
:100D8000AB091900920917007B09180063091700C5
:100D90004C09160036091600200916000A0915002C
:100DA000F5081500E0081400CC081400B808140079
:100DB000A4081400900813007D0812006B081300AB
:100DC00058081200460812003408110023081100C8
:100DD0001208110001081100F0071000E0071000D0
:100DE000D0071000C0071000B0070F00A1071000C7
:100DF00091070E0083070F0074070F0065070E00B0
:100E000057070E0049070E003B070D002E070E0086
:100E100020070D0013070D0006070D00F9060C0052
:100E2000ED060D00E0060C00D4060C00C8060C0010
:100E3000BC060C00B0060C00A4060B0099060C00C2
:100E40008D060B0082060B0077060B006C060B006C
:100E500061060A0057060B004C060A0042060A000B
:100E600038060A002E060A0024060A001A060A009E
:100E70001006090007060A00FD050900F40509002F
:100E8000EB050900E2050900D9050900D0050900B4
:100E9000C7050900BE050900B5050800AD05080035
:100EA000A50509009C050800940508008C050800AC
:100EB000840508007C050800740508006C0507001F
:100EC000650508005D050700560508004E0507008A
:100ED00047050700400508003805070031050700F1
:100EE0002A050700230507001C0506001605070054
:100EF0000F0507000805060002050700FB040600B1
:100F0000F5040700EE040600E8040600E20407000A
:100F1000DB040600D5040600CF040600C904060061
:100F2000C3040600BD040600B7040600B1040500B2
:100F3000AC040600A6040600A00405009B040600FD
:100F400095040500900406008A0405008504050048
:100F5000800406007A04050075040500700405008D
:100F60006B04050066040500610405005C040500CF
:100F700057040500520405004D040500480405000F
:100F8000430405003E0404003A040500350405004E
:100F9000300404002C040500270404002304050089
:100FA0001E0404001A0404001604050011040400C1
:100FB0000D040400090405000404040000040400F6
:100FC000FC030400F8030400F4030400F00304002D
:100FD000EC030400E8030400E4030400E00304005D
:100FE000DC030400D8030400D4030400D00304008D
:100FF000CC030400C8030300C503030024F404D990
:10100000201BC40C5C0E9804C4095F0265077101C3
:10101000F405F900FB04B30048048700C10369002C
:101020005803550003034500BE023A008402310014
:1010300053022A002902250004022000E4011C00BA
:10104000C8011900AF0117009801140084011300B2
:10105000710110006101100051010E0043010D00EB
:1010600036010B002B010B0020010B0015010900BC
:101070000C01090003010800FB000800F300080050
:10108000EB000700E4000600DE000600D8000600C2
:10109000D2000600CC000500C7000500C200050014
:1010A000BD000400B9000400B5000400B100040054
:1010B000AD000400A9000400A5000300A200030085
:1010C0009F0004009B0003009800030095000200AD
:1010D00093000300900003008D0002008B000300CA
:1010E00088000200860002008400030081000200E4
:1010F0007F0002007D0002007B00020079000200F8
:101100007700010076000200740002007200010006
:10111000710002006F0002006D0001006C0002000F
:101120006A0001006900020067000100660001001A
:10113000650001006400020062000100610001001E
:10114000600001005F0002005D0001005C00010022
:101150005B0001005A000100590001005800010025
:101160005700010056000100550001005400010025
:101170005300000053000100520001005100010023
:10118000500001004F0001004E0000004E00010021
:101190004D0001004C0001004B0000004B0001001D
:1011A0004A00010049000100480000004800010019
:1011B0004700010046000000460001004500000015
:1011C000450001004400010043000000430001000D
:1011D0004200000042000100410000004100010007
:1011E000400001003F0000003F0001003E00000001
:1011F0003E0001003D0000003D0001003C000000F9
:101200003C0000003C0001003B0000003B000100EE
:101210003A0000003A0001003900000039000100E6
:1012200038000000380000003800010037000000DE
:1012300037000100360000003600000036000100D3
:1012400035000000350000003500010034000000CA
:1012500034000000340001003300000033000000BF
:1012600033000100320000003200000032000100B3
:1012700031000000310000003100010030000000AA
:1012800030000000300001002F0000002F0000009F
:101290002F0000002F0001002E0000002E00000093
:1012A0002E0001002D0000002D0000002D00000088
:1012B0002D0001002C0000002C0000002C0000007C
:1012C0002C0001002B0000002B0000002B00000070
:1012D0002B0001002A0000002A0000002A00000064
:1012E0002A00010029000000290000002900000058
:1012F000290000002900010028000000280000004B
:10130000280000002800000028000100270000003D
:101310002700000027000000270000002700010030
:101320002600000026000000260000002600000025
:101330002600010025000000250000002500000017
:101340002500000025000000250001002400000009
:1013500024000000240000002400000024000100FC
:1013600023000000230000002300000023000000F1
:1013700023000000230000002300010022000000E1
:1013800022000000220000002200000022000000D5
:1013900022000100210000002100000021000000C7
:1013A00021000000210000002100000021000100B8
:1013B00020000000200000002000000020000000AD
:1013C000200000002000000020000000200001009C
:1013D0001F0000001F0000001F0000001F00000091
:1013E0001F0000001F0000001F0001001E00000081
:1013F0001E0000001E0000001E00000011241FBE81
:10140000CFEFD1E2DEBFCDBF00E00CBF14E0A0E023
:10141000B2E0E6ECFEEC00E00BBF02C007900D92DC
:10142000AC35B107D9F72DE0ACE5B4E001C01D92B1
:10143000A635B207E1F70E94043F0C9461670C9453
:101440000000CF92DF92EF92FF92CF93DF93EC01F7
:10145000C0905507D0905607E0905707F090580776
:10146000A7019601688179818A819B810E941C6015
:1014700087FF04C0C882D982EA82FB82C0905907E4
:10148000D0905A07E0905B07F0905C07A7019601A7
:101490006C817D818E819F810E941C6087FF04C0CA
:1014A000CC82DD82EE82FF8220E030E0A9016091F3
:1014B0005D0770915E0780915F07909160070E94C1
:1014C0007F636B017C019B01AC01688579858A850E
:1014D0009B850E941C6087FF04C0C886D986EA8667
:1014E000FB86C0906602D0906702E0906802F090A0
:1014F0006902A7019601688179818A819B810E9496
:10150000AA65181624F4C882D982EA82FB82C090A8
:101510006A02D0906B02E0906C02F0906D02A7011D
:1015200096016C817D818E819F810E94AA6518162B
:1015300024F4CC82DD82EE82FF82C0906E02D090D5
:101540006F02E0907002F0907102A7019601688529
:1015500079858A859B850E94AA65181624F4C88619
:10156000D986EA86FB86DF91CF91FF90EF90DF90DE
:10157000CF900895EF92FF921F93CF93DF937C015A
:10158000C62FD72F142F160FF701808191810E944B
:101590001E638993F70180819181019691838083F5
:1015A0001C13F2CFDF91CF911F91FF90EF90089520
:1015B000F8940E94BF1B5F9A1092E80C8A9A1092CE
:1015C000E90C9FB7F894809108018160809308012D
:1015D0009FBF1092EA0C129A479A60E08CE00E943A
:1015E0002E1AE8EEF9E08491882341F09091C00032
:1015F00095FFFCCF8093C6003196F5CFE8E9F8E07F
:101600008491882341F09091C00095FFFCCF809396
:10161000C6003196F5CF8091C00085FFFCCF8AE0EF
:101620008093C6007894C6E0D0E0219739F068EC4A
:1016300070E080E090E00E94311BF7CFF894FFCF7C
:101640002F923F924F925F926F927F928F929F92D2
:10165000AF92BF92CF92DF92EF92FF920F931F93C0
:10166000CF93DF93CDB7DEB7C954D1090FB6F89445
:10167000DEBF0FBECDBF382EC090D406D090D506A9
:10168000E090D606F090D7068090D0069090D106D4
:10169000A090D206B090D306A7019601C501B4016F
:1016A0000E94BB656EA77FA788AB99AB809158025B
:1016B00090915902A0915A02B0915B0226968CAF8C
:1016C0009DAFAEAFBFAF2697009156021091570263
:1016D00080915A06898B8091070D9091080DA091F9
:1016E000090DB0910A0D8E8B9F8BA88FB98FA50124
:1016F0009401BC01CD010E947F636EAB7FAB88AFCC
:1017000099AF80910B0D90910C0DA0910D0DB091A2
:101710000E0D8A8F9B8FAC8FBD8FA7019601BC01E8
:10172000CD010E947F636AAF7BAF8CAF9DAF80918C
:101730000F0D9091100DA091110DB091120D8AA373
:101740009BA3ACA3BDA39C01AD01609170067091F9
:10175000710680917206909173060E947E636EA35B
:101760007FA388A799A78091740690917506A09190
:101770007606B09177062A968CAF9DAFAEAFBFAF1D
:101780002A978091130D9091140DA091150DB09191
:10179000160D22968CAF9DAFAEAFBFAF229724013E
:1017A000350177FA709477F87094D701C601B05874
:1017B0008A8B9B8BAC8BBD8B809168069091690660
:1017C000A0916A06B0916B068E8F9F8FA8A3B9A3D4
:1017D0002EA93FA948AD59ADBC01CD010E947E6341
:1017E0006B017C0180916C0690916D06A0916E0654
:1017F000B0916F068AA79BA7ACA7BDA72AAD3BAD4A
:101800004CAD5DADBC01CD010E947E634B015C011E
:10181000A7019601C301B2010E94715C6AAB7BAB68
:101820008CAB9DABA50194016A897B898C899D89CC
:101830000E94715C9B01AC016AA97BA98CA99DA93E
:101840000E947F636AAB7BAB8CAB9DABA50194011F
:10185000C301B2010E94715C4B015C01A7019601BA
:101860006A897B898C899D890E94715C9B01AC018E
:10187000C501B4010E947E632AA93BA94CA95DA9B8
:101880000E94F2636B017C0120E030E0A9010E941C
:101890001C6087FF0AC02BED3FE049EC50E4C70114
:1018A000B6010E947F636B017C01332051F02BED68
:1018B0003FE049EC50E4C701B6010E947E636B0132
:1018C0007C012E8D3F8D48A159A16E897F89888D1D
:1018D000998D0E941C6081111FC02AA53BA54CA5B3
:1018E0005DA56A8D7B8D8C8D9D8D0E941C60811104
:1018F00013C020E030E0A901C701B6010E941C60BE
:1019000081110AC02BED3FE049EC50E4C701B6015C
:101910000E947F636B017C012EA53FA548A959A9B0
:10192000C701B6010E94715C2EA13FA148A559A52F
:101930005F770E94BB654B015C012FE632E143E813
:101940005AE30E941C6087FDAAC1C501B4010E9430
:10195000F4640E94C8647B8F6A8FDB01AB2B21F497
:1019600021E030E03B8F2A8FB801110F880B990BD3
:101970000E9422609B01AC0126966CAD7DAD8EADC0
:101980009FAD26970E94715C20E030E040E752E472
:101990000E945B6420E030E048EC52E40E945B640B
:1019A0006E8F7F8F88A399A3AA8DBB8DBD0180E028
:1019B00090E00E9420604B015C019B01AC01C701DB
:1019C000B6010E945B646E8B7F8B888F998FA50117
:1019D00094016EA17FA188A599A50E945B646AA766
:1019E0007BA78CA79DA722962CAD3DAD4EAD5FADDC
:1019F00022972A966CAD7DAD8EAD9FAD2A970E9441
:101A00007E63A50194010E945B646EA77FA788ABEB
:101A100099AB20E030E040E05FE36E897F89888DFC
:101A2000998D0E94715C2E893F89488D598D0E9445
:101A3000715C9B01AC0160E070E080E89FE30E9474
:101A40007E636EA37FA388A799A78AA19BA1ACA15F
:101A5000BDA189879A87AB87BC8722968CAD9DAD47
:101A6000AEADBFAD22978D879E87AF87B88BA12C77
:101A700022242394312C2A8D3B8D2216330609F41F
:101A8000FDC098E19A150CF440C02EA13FA148A5D5
:101A900059A56A897B898C899D890E94715C6B013B
:101AA0007C012E893F89488D598DC301B2010E9466
:101AB000715CA70196010E947F63B62ED72E7C0130
:101AC0002EA13FA148A559A5C301B2010E94715C96
:101AD0002B013C012E893F89488D598D6A897B896C
:101AE0008C899D890E94715C9B01AC01C301B2018C
:101AF0000E947E632B013C01A3948B2D9D2DD70169
:101B00008A8B9B8BAC8BBD8B68C0B10180E090E071
:101B10000E9420602E893F89488D598D0E94715CFA
:101B20006B017C010E9458646A8B7B8B8C8B9D8B34
:101B3000C701B6010E948A664B015C01C090D006C5
:101B4000D090D106E090D206F090D306F7FAF09448
:101B5000F7F8F0948091D4069091D506A091D6061E
:101B6000B091D7068AA39BA3ACA3BDA32A893B89C6
:101B70004C895D89C701B6010E94715C2B013C0153
:101B8000A50194016AA17BA18CA19DA10E94715C19
:101B90009B01AC01C301B2010E947F632B013C0198
:101BA000A5019401C701B6010E94715C6B017C0123
:101BB0002A893B894C895D896AA17BA18CA19DA161
:101BC0000E94715C9B01AC01C701B6010E947E635B
:101BD0006A8B7B8B8C8B9D8BA12CA30192016EA9B0
:101BE0007FA988AD99AD0E947F6369837A838B83D7
:101BF0009C832A893B894C895D896AAD7BAD8CAD1C
:101C00009DAD0E947F636D837E838F8398872AA515
:101C10003BA54CA55DA569857A858B859C850E9431
:101C20007F6369877A878B879C872EA53FA548A904
:101C300059A96D857E858F8598890E947F636D8700
:101C40007E878F87988BCE010196FBDBDE01519654
:101C50006D01EE8CFF8C08A119A19E01235F3F4FFF
:101C6000AE01475F5F4FBE016B5F7F4FCE010196B4
:101C70000E940B25BFEF2B1A3B0AFDCECE014196E9
:101C80006C01EE8CFF8C08A119A124E736E040E737
:101C900056E06CE676E088E696E00E940B2580919F
:101CA000680690916906A0916A06B0916B068093D0
:101CB000070D9093080DA093090DB0930A0D809124
:101CC0006C0690916D06A0916E06B0916F068093A0
:101CD0000B0D90930C0DA0930D0DB0930E0D8091F4
:101CE000700690917106A0917206B0917306809370
:101CF0000F0D9093100DA093110DB093120D8091C4
:101D0000740690917506A0917606B091770680933F
:101D1000130D9093140DA093150DB093160D0E9402
:101D2000691B6093F10C7093F20C8093F30C909309
:101D3000F40CC75BDF4F0FB6F894DEBF0FBECDBF0C
:101D4000DF91CF911F910F91FF90EF90DF90CF9097
:101D5000BF90AF909F908F907F906F905F904F90CB
:101D60003F902F900895CF92DF92EF92FF920F93C2
:101D70001F9388E696E065DB0E94691B6093F10C77
:101D80007093F20C8093F30C9093F40C20916806FE
:101D90003091690640916A0650916B066091070D7B
:101DA0007091080D8091090D90910A0D0E941C60A0
:101DB000811179C020916C0630916D0640916E06BC
:101DC00050916F0660910B0D70910C0D80910D0D6F
:101DD00090910E0D0E941C60811165C020E030E0E2
:101DE00040E752E4609158027091590280915A0282
:101DF00090915B020E945B642AE5C22E26E0D22EFF
:101E00007B018C0124E736E040E756E06CE676E0A3
:101E100088E696E00E940B258091680690916906FD
:101E2000A0916A06B0916B068093070D9093080D00
:101E3000A093090DB0930A0D80916C0690916D06E8
:101E4000A0916E06B0916F0680930B0D90930C0DD0
:101E5000A0930D0DB0930E0D8091700690917106B8
:101E6000A0917206B091730680930F0D9093100DA0
:101E7000A093110DB093120D809174069091750688
:101E8000A0917606B09177068093130D9093140D70
:101E9000A093150DB093160D1F910F91FF90EF9029
:101EA000DF90CF9008956091560270915702072EEF
:101EB000000C880B990B0E942260209158023091EF
:101EC000590240915A0250915B020E94715C20E0DD
:101ED00030E040E752E40E945B6420E030E048ECF0
:101EE00052E488CF0E94691B6093F10C7093F20C4E
:101EF0008093F30C9093F40CE5E9F8E08491882347
:101F000041F09091C00095FFFCCF8093C6003196C0
:101F1000F5CF8091C00085FFFCCF8AE08093C6009A
:101F200008958091E6079091E7079093E5078093E5
:101F3000E407ECE8F8E08491882341F09091C00038
:101F400095FFFCCF8093C6003196F5CF8091E405D4
:101F50009091E505A091E605B091E705BC01CD01A2
:101F60006F5F7F4F8F4F9F4F0E94FE3B8091C0005D
:101F700085FFFCCF8AE08093C600B4CFFC01659159
:101F80007591859194910895682F880F770B209112
:101F900088063091890640E6429FC001439F900D1C
:101FA0001124805A9B4F0E943F679C0190931E060C
:101FB00080931D0681E0232B09F480E00895809131
:101FC0001D0690911E064AE050E060E070E0019628
:101FD0000C948B5E80911D0690911E0660E070E06F
:101FE00001960C94255D7F928F929F92AF92BF9243
:101FF000CF92DF92EF92FF920F931F93CF93DF93D5
:1020000087E0E82E8DE0F82E08E616E093E4C92E6E
:1020100096E0D92ECEECD2E07C2E84E0780E899129
:10202000B3DF882309F1D6DF4B015C01F601608143
:10203000611102C060915B0670E080E090E00E9458
:102040002260F70120813181428153810E94715CBD
:102050009B01AC01C501B4010E947F63F80160835C
:102060007183828393830AC0F70180819181A28169
:10207000B381F80180839183A283B383F4E0EF0EF0
:10208000F11C0C5F1F4F8FEFC81AD80A7C12C7CF04
:1020900086E47ADF8823D1F09DDF6B017C016093B9
:1020A000E0057093E1058093E2059093E30520E05D
:1020B00030E0A9010E94AA65181644F4C0925802A3
:1020C000D0925902E0925A02F0925B02DF91CF91D6
:1020D0001F910F91FF90EF90DF90CF90BF90AF9046
:1020E0009F908F907F9008957EDF89E44DDF882355
:1020F00051F070DF6093D0067093D1068093D206C2
:102100009093D30608C01092D0061092D106109278
:10211000D2061092D3068AE437DF882351F05ADFC3
:102120006093D4067093D5068093D6069093D70615
:1021300008951092D4061092D5061092D6061092E9
:10214000D70608954F925F926F927F928F929F92DF
:10215000AF92BF92CF92DF92EF92FF920F931F93B5
:10216000CF93DF9380E6F82EC4E0D0E00BE617E0D3
:102170009AE0E92EDD24D3944091E4075091E507DD
:102180008091E6079091E7079A01281B390B2F777A
:102190003327232B09F41AC22091F50C3091F60C49
:1021A000243031050CF012C24817590761F0FC01C8
:1021B000EC59F84F208101968F7799279093E70784
:1021C0008093E60702C02FEF3FEF822F2093CF06C8
:1021D0002091CC063091CD068A3061F08D3051F0DF
:1021E0008A3321F49091CE06992321F02F353105C1
:1021F0000CF476C12115310519F41092CE06E6C112
:102200008091CA069091CB06F89E5001F99EB00CC1
:1022100011242A0D3B1DF901E05AFB4F1082209139
:10222000CE06211158C11092CE06FC01EA53F94F97
:102230001082C501805A9B4F4C016EE470E00E94F1
:102240003F67009709F49CC090931E0680931D067B
:10225000881999098A0D9B1D4AE050E060E070E002
:102260008F599B4F0E948B5E6093C2067093C3068A
:102270008093C4069093C5068090E4059090E50590
:10228000A090E605B090E70524013501EFEF4E1A66
:102290005E0A6E0A7E0AA090CA06B090CB0664154C
:1022A00075058605970509F43AC1FA9CC001FB9CA7
:1022B000900D112467E878E0805A9B4F0E94D35F0D
:1022C000892B09F02CC1E8EEF9E08491882341F0D4
:1022D0009091C00095FFFCCF8093C6003196F5CF5A
:1022E000E4E5F8E08491882341F09091C00095FFE7
:1022F000FCCF8093C6003196F5CF6091E4057091D4
:10230000E5058091E6059091E7050E94FE3B8091EE
:10231000C00085FFFCCF2FC030931E0620931D0602
:10232000C9018A199B09880D991D60E070E08F59D9
:102330009B4F0E94255D0E94C3642C2D30E0261720
:10234000370709F455C0E8EEF9E08491811105C121
:10235000E5E3F8E08491811108C16091E405709192
:10236000E5058091E6059091E7050E94FE3B80918E
:10237000C00085FFFCCF8AE08093C600D2DD33C069
:102380006AE270E0C4010E943F67892B09F440C0F3
:10239000E8EEF9E08491882341F09091C00095FF28
:1023A000FCCF8093C6003196F5CFE1EEF7E0849143
:1023B000882341F09091C00095FFFCCF8093C60028
:1023C0003196F5CF6091E4057091E5058091E605C1
:1023D0009091E7050E94FE3B8091C00085FFFCCFF5
:1023E0008AE08093C6001092CD061092CC06EEC013
:1023F0008091C2069091C306A091C406B091C50613
:102400008093E4059093E505A093E605B093E70576
:102410008091CA069091CB06F89E5001F99EB00CAF
:102420001124C501805A9B4F4C0167E470E00E9463
:102430003F67009761F190931E0680931D068819EF
:1024400099098A0D9B1D60E070E08F599B4F0E9497
:10245000255D0E94C36464307105C8F480917806DC
:102460008823A9F0F8018491EBE6F7E0882349F08E
:102470009091C00095FFFCCF8093C6003196849167
:10248000F5CF8091C00085FFFCCFE092C600A09000
:10249000CA06B090CB06FA9CC001FB9C900D11249B
:1024A00060ED73E0805A9B4F0E944A67892B09F4C4
:1024B0007FD8C5010196BE010E94EE669093CB06BF
:1024C0008093CA068091F50C9091F60C019690933A
:1024D000F60C8093F50C1092CD061092CC064CCEE3
:1024E0008B3311F4D092CE069091CE06911144CE4A
:1024F0004091CA065091CB06B9016F5F7F4F709330
:10250000CD066093CC06F49ED001F59EB00D11244B
:102510002A0F3B1FD901A05ABB4F8C932DCEFA9C9A
:102520004001FB9C900C1124C401805A9B4F5C011C
:102530006AE270E00E943F679C01892BF1F090E015
:10254000C12CF401E90FF11DE05AFB4F80818A3262
:1025500009F4E2CE9F5FC826F4CF9091C00095FFAA
:10256000FCCF8093C6003196F0CE9091C00095FFCD
:10257000FCCF8093C6003196EDCEE8EEF9E0849171
:10258000882341F09091C00095FFFCCF8093C60056
:102590003196F5CFEBE0F8E08491882341F09091FB
:1025A000C00095FFFCCF8093C6003196F5CF6091B7
:1025B000E4057091E5058091E6059091E7050E949C
:1025C000FE3B8091C00085FFFCCFD5CEDF91CF913F
:1025D0001F910F91FF90EF90DF90CF90BF90AF9041
:1025E0009F908F907F906F905F904F900895FC0127
:1025F000CB01BA012491222341F03091C00035FF74
:10260000FCCF2093C6003196F5CF4AE00C94893B6D
:10261000FC01CB01BA012491222341F03091C0008A
:1026200035FFFCCF2093C6003196F5CF42E00C94E5
:10263000103C1F920F920FB60F9211240BB60F92FF
:102640002F933F934F936F937F938F939F93EF932A
:10265000FF934091C6002091E4073091E507C9013E
:1026600001968F7799276091E6077091E7078617A3
:10267000970741F0F901EC59F84F40839093E50733
:102680008093E407FF91EF919F918F917F916F91DC
:102690004F913F912F910F900BBE0F900FBE0F9057
:1026A0001F901895AF92BF92CF92DF92EF92FF9258
:1026B0000F931F93CF93DF93CDB7DEB7E0970FB69D
:1026C000F894DEBF0FBECDBF80E1E2EDF2E0DE01A7
:1026D000919601900D928A95E1F780E1E2EEF2E0A9
:1026E000DE01519601900D928A95E1F780E1E2EFCB
:1026F000F2E0DE01119601900D928A95E1F7DE017C
:1027000091966BE37DE0AE014F5E5F4F2FE236E0C6
:10271000CE0101965C018CE096E08E010F5C1F4FAC
:10272000CD90DD90ED90FD90FB01C192D192E192B0
:10273000F192BF01FA01C190D190E190F190AF0107
:10274000F901C192D192E192F1929F01F501C190FC
:10275000D190E190F1905F01FC01C192D192E192A0
:10276000F192CF01A017B107D9F60E94413B80E05A
:1027700090E0A8E4B4E48093080690930906A0933F
:102780000A06B0930B068093040690930506A09367
:102790000606B093070610920006109201061092EA
:1027A00002061092030680E29EE4A0E0B0E080936F
:1027B000F8059093F905A093FA05B093FB051092E4
:1027C000FC051092FD051092FE051092FF0580E0B9
:1027D00090E0A0E0B0E48093F4059093F505A09319
:1027E000F605B093F7058DEC9CECACECBEE3809362
:1027F000F0059093F105A093F205B093F30580E006
:1028000090E0A0EAB0E480933F0690934006A09346
:102810004106B0934206109264061092650610922B
:10282000660610926706109260061092610610927A
:1028300062061092630610925C0610925D0610927A
:102840005E0610925F068BE794E1A2E8B1E4809304
:10285000420290934302A0934402B093450286EA59
:1028600091E3A5E3BEE380933E0290933F02A093E1
:102870004002B093410280E59FE4AAEBB3E4809369
:102880003A0290933B02A0933C02B0933D020E9417
:10289000FF2280E090E0A0E8BFE3809336029093AF
:1028A0003702A0933802B093390210921C0680E0E0
:1028B00090E0A0E4B0E480934C0290934D02A0938A
:1028C0004E02B0934F028093500290935102A09316
:1028D0005202B09353020E94E332E0E5F6E08491A5
:1028E000882341F09091C00095FFFCCF8093C600F3
:1028F0003196F5CFE0E7F6E08491882341F090919E
:10290000C00095FFFCCF8093C6003196F5CF809133
:10291000C00085FFFCCF8AE08093C600E0960FB62A
:10292000F894DEBF0FBECDBFDF91CF911F910F9105
:10293000FF90EF90DF90CF90BF90AF900895CF932E
:10294000DF93CDB7DEB76A970FB6F894DEBF0FBE40
:10295000CDBF84E690E09A8F898F86E591E3A3E36B
:10296000B0E089839A83AB83BC8344E0BE016B5F94
:102970007F4FCE0149960E94BA0A43E050E0BE0163
:102980006B5F7F4FCE0101960E945367892B09F040
:10299000EDC040E16BE37DE0CE0149960E94BA0AAA
:1029A00040E16FE276E0CE0149960E94BA0A40E12A
:1029B0006CE076E0CE0149960E94BA0A0E94413B43
:1029C00044E068E076E0CE0149960E94BA0A44E00D
:1029D00064E076E0CE0149960E94BA0A44E060E0E5
:1029E00076E0CE0149960E94BA0A44E06CEF75E0A9
:1029F000CE0149960E94BA0A44E068EF75E0CE0124
:102A000049960E94BA0A44E064EF75E0CE01499607
:102A10000E94BA0A44E060EF75E0CE0149960E9438
:102A2000BA0A44E06FE376E0CE0149960E94BA0A02
:102A30004CE06CE576E0CE0149960E94BA0A42E08D
:102A4000BE01695E7F4FCE0149960E94BA0A42E0FC
:102A5000BE016B5E7F4FCE0149960E94BA0A42E0EA
:102A6000BE016D5E7F4FCE0149960E94BA0A42E0D8
:102A7000BE016F5E7F4FCE0149960E94BA0A42E0C6
:102A8000BE01615F7F4FCE0149960E94BA0A42E0C3
:102A9000BE01635F7F4FCE0149960E94BA0A42E0B1
:102AA000BE01655F7F4FCE0149960E94BA0A44E09D
:102AB0006CEE75E0CE0149960E94BA0A44E062E4E9
:102AC00072E0CE0149960E94BA0A44E06EE372E0D9
:102AD000CE0149960E94BA0A44E06AE372E0CE0150
:102AE00049960E94BA0A42E0BE01675F7F4FCE015D
:102AF00049960E94BA0A41E06CE176E0CE0149961F
:102B00000E94BA0A44E06CE472E0CE0149960E9449
:102B1000BA0A44E060E572E0CE0149960E94BA0A22
:102B20000E94E3320E94FF22E0E5F6E084918823D0
:102B300041F09091C00095FFFCCF8093C600319684
:102B4000F5CFE6E5F6E08491882341F09091C0004E
:102B500095FFFCCF8093C6003196F5CF8091C000E1
:102B600085FFFCCF8AE08093C60001C09BDD6A969A
:102B70000FB6F894DEBF0FBECDBFDF91CF910895A1
:102B80000F931F93CF93DF931F921F92CDB7DEB7A2
:102B9000859A8D98809107018B7F809307019FB75D
:102BA000F894809108018B7F809308019FBF82E099
:102BB0008093C0001092C50080E18093C400809192
:102BC000C10080618093C1008091C10088608093C2
:102BD000C1008091C10080688093C100E5E6F7E004
:102BE0008491882341F09091C00095FFFCCF8093A1
:102BF000C6003196F5CF8091C00085FFFCCF8AE0FA
:102C00008093C60080E596E0FC012491222341F0E8
:102C10003091C00035FFFCCF2093C6003196F5CF30
:102C200024B720FF14C0EDE5F7E03491332341F0E1
:102C30004091C00045FFFCCF3093C6003196F5CFE0
:102C40003091C00035FFFCCF3AE03093C60021FF41
:102C500014C0EDE4F7E03491332341F04091C0001B
:102C600045FFFCCF3093C6003196F5CF3091C000C0
:102C700035FFFCCF3AE03093C60022FF14C0ECE3EE
:102C8000F7E03491332341F04091C00045FFFCCF81
:102C90003093C6003196F5CF3091C00035FFFCCFA0
:102CA0003AE03093C60023FF14C0ECE2F7E0349121
:102CB000332341F04091C00045FFFCCF3093C60064
:102CC0003196F5CF3091C00035FFFCCF3AE030931C
:102CD000C60025FF14C0ECE1F7E02491222341F067
:102CE0003091C00035FFFCCF2093C6003196F5CF60
:102CF0002091C00025FFFCCF2AE02093C60014BE1F
:102D0000E5E1F7E02491222341F03091C00035FF46
:102D1000FCCF2093C6003196F5CFEFE0F7E0249189
:102D2000222341F03091C00035FFFCCF2093C60034
:102D30003196F5CF2091C00025FFFCCF2AE02093EB
:102D4000C600FC012491E0E5F6E0222349F0309131
:102D5000C00035FFFCCF2093C60031962491F5CFFB
:102D6000EFEFF6E02491222341F03091C00035FFCF
:102D7000FCCF2093C6003196F5CFEAEEF6E0249121
:102D8000222341F03091C00035FFFCCF2093C600D4
:102D90003196F5CFEEEDF6E02491222341F030910B
:102DA000C00035FFFCCF2093C6003196F5CFEFEC85
:102DB000F6E02491222341F03091C00035FFFCCF92
:102DC0002093C6003196F5CF2091C00025FFFCCF9F
:102DD0002AE02093C600E4ECF6E02491222341F09F
:102DE0003091C00035FFFCCF2093C6003196F5CF5F
:102DF000E8EBF6E02491222341F03091C00035FF4A
:102E0000FCCF2093C6003196F5CF2091C00025FF5E
:102E1000FCCF2AE02093C600FC018491E0E5F6E0B7
:102E2000882349F09091C00095FFFCCF8093C600A5
:102E300031968491F5CFE9EAF6E08491882341F058
:102E40009091C00095FFFCCF8093C6003196F5CFDE
:102E50002091500D3091510DCE0101962115310573
:102E600019F486559D4002C0821B930B9A83898377
:102E700069817A81072E000C880B990B0E94FE3B1A
:102E8000E2E9F6E08491882341F09091C00095FF3B
:102E9000FCCF8093C6003196F5CF60ED74E080E002
:102EA00090E00E94FE3B8091C00085FFFCCF8AE04D
:102EB0008093C6001092C6061092C7061092C806EC
:102EC0001092C9063CDD8091EC059091ED05A09132
:102ED000EE05B091EF058093640690936506A0938C
:102EE0006606B093670600915C0210915D02109235
:102EF000E8061092E9061092EA061092EB0620917D
:102F00003E0230913F02409140025091410260E008
:102F100070E08FE793E40E945B646093E006709337
:102F2000E1068093E2069093E30610935F0200931C
:102F30005E021092EC061092ED061092EE061092D0
:102F4000EF066093E4067093E5068093E60690939F
:102F5000E70680910101806180930101249A8091AC
:102F6000010180628093010180910101806480935E
:102F7000010187ED80937A0010927E0010927D000F
:102F800080917D00806880937D0080917D008062CB
:102F900080937D0080917D00806480937D0080918E
:102FA0007D00826080937D0080E888BD80916E0006
:102FB000846080936E006AEF70E080E090E051D30F
:102FC00085E090E09093DD068093DC0660E08091E0
:102FD00060029091610222D720E030E040EA50E4A4
:102FE0000E941C6087FF0AC080916002909161027C
:102FF00040979093610280936002E8CF8CE291E069
:1030000090935D0280935C0260E08091F206909163
:10301000F30604D720E030E046E953E40E94AA65B5
:10302000181654F48091F2069091F306409690930E
:10303000F3068093F206E8CF85E090E09093DF06F8
:103040008093DE0661E08091620290916302E6D691
:1030500020E030E040EA50E40E941C6087FF0AC094
:1030600080916202909163024097909363028093F3
:103070006202E8CF83E191E090935F0280935E0269
:1030800061E08091F4069091F506C8D620E030E822
:1030900049E853E40E94AA65181654F48091F40696
:1030A0009091F50640969093F5068093F406E8CF4C
:1030B0008091F0069091F10612D620E030E04AE2CD
:1030C00053E40E94AA65181654F48091F00690917A
:1030D000F10640969093F1068093F006E9CF1092A6
:1030E000EC0C1092EB0C80E1EBE2FDE0DF011D92B5
:1030F0008A95E9F71092170D1092180D1092190D7C
:1031000010921A0D10921B0D10921C0D10921D0D95
:1031100010921E0D10921F0D1092200D1092210D75
:103120001092220D1092230D1092240D1092250D55
:103130001092260D1092270D1092280D1092290D35
:1031400010922A0D819A879A80910A018260809359
:103150000A010E9A3B9A579A5F9A829A8A9A8091AC
:1031600007018160809307019FB7F894809108015F
:103170008160809308019FBF0A9A129A3F9A479AEA
:103180006D98809104018D7F809304019FB7F8941E
:10319000809105018260809305019FBF52985A9AE1
:1031A000809A88985F9A1092E80C869A8E988A9AEC
:1031B0001092E90C80910A01886080930A019FB700
:1031C000F89480910B01877F80930B019FBF9FB77D
:1031D000F894809108018160809308019FBF10924C
:1031E000EA0C0C9A1498129A399A4198479A80914D
:1031F00081008F7E80938100809181008860809320
:103200008100809180008D7F80938000809180007C
:103210008E7F80938000809180008F7380938000E8
:10322000809180008F7C8093800080918100887FD6
:1032300082608093810080E090E490938900809385
:103240008800109285001092840080916F00826047
:1032500080936F0081E0809300027894BFEFE3EDEC
:10326000F0E3B150E040F040E1F700C000000F9003
:103270000F90DF91CF911F910F910895EF92FF92E0
:103280001F93CF93DF937C01C62FD72F142F160FD8
:103290006991F701808191810E942663F701808105
:1032A00091810196918380831C13F2CFDF91CF919E
:1032B0001F91FF90EF90089590E0FC013197E2316B
:1032C000F10508F04EC08827EE58FF4F8F4F0C9441
:1032D0001D67809180008F7703C0809180008F7D73
:1032E00080938000089580918000877FF9CF84B516
:1032F0008F7702C084B58F7D84BD08958091B00022
:103300008F7703C08091B0008F7D8093B0000895C7
:10331000809190008F7707C0809190008F7D03C0CF
:1033200080919000877F8093900008958091A00005
:103330008F7707C08091A0008F7D03C08091A0008F
:10334000877F8093A0000895809120018F7707C028
:10335000809120018F7D03C080912001877F809321
:10336000200108953FB7F89480915107909152073A
:10337000A0915307B091540726B5A89B05C02F3FD5
:1033800019F00196A11DB11D3FBFBA2FA92F982F8B
:103390008827820F911DA11DB11DBC01CD0142E006
:1033A000660F771F881F991F4A95D1F70895CF930D
:1033B000DF93282F30E0F901E753F54F8491F901AD
:1033C000ED57F54FD491F901E35CF54FC491CC234F
:1033D00089F0811171DFEC2FF0E0EE0FFF1FED5D42
:1033E000F54FA591B491EC91ED2381E090E021F4AB
:1033F00080E002C080E090E0DF91CF9108951F93BC
:10340000CF93DF93282F30E0F901E753F54F8491F4
:10341000F901ED57F54FD491F901E35CF54FC491F3
:10342000CC23C1F0162F811147DFEC2FF0E0EE0F17
:10343000FF1FE75FF54FA591B4918FB7F894111175
:1034400005C09C91ED2FE095E92302C0EC91ED2B96
:10345000EC938FBFDF91CF911F910895CF93DF93AE
:1034600090E0FC01ED57F54F2491FC01E35CF54F32
:103470008491882361F190E0880F991FFC01E1514C
:10348000F64FC591D491FC01E75FF54FA591B4913A
:10349000611109C09FB7F8948881209582238883A1
:1034A000EC912E230BC0623061F49FB7F894388101
:1034B000822F809583238883EC912E2B2C939FBFA2
:1034C00006C08FB7F894E8812E2B28838FBFDF9139
:1034D000CF9108951F93CF93DF93182FEB0161E0F5
:1034E000BDDF209711F460E004C0CF3FD10531F477
:1034F00061E0812FDF91CF911F9181CFE12FF0E02B
:10350000E753F54FE4914E2F50E0FA013197E23145
:10351000F10508F09DC08827EC57FF4F8F4F0C94A2
:103520001D6784B5806884BDC7BD97C084B58062BF
:1035300084BDC8BD92C08091800080688093800067
:10354000D0938900C093880088C0809180008062F9
:1035500080938000D0938B00C0938A007EC08091BE
:103560008000886080938000D0938D00C0938C0091
:1035700074C08091B00080688093B000C093B300A5
:103580006CC08091B00080628093B000C093B400A2
:1035900064C080919000806880939000D0939900DF
:1035A000C09398005AC080919000806280939000F0
:1035B000D0939B00C0939A0050C080919000886087
:1035C00080939000D0939D00C0939C0046C0809152
:1035D000A00080688093A0008091A0008F7B8093E2
:1035E000A000D093A900C093A80037C08091A0008C
:1035F00080628093A000D093AB00C093AA002DC03E
:103600008091A00088608093A000D093AD00C0930B
:10361000AC0023C080912001806880932001D0936A
:103620002901C093280119C08091200180628093F4
:103630002001D0932B01C0932A010FC0809120015B
:10364000886080932001D0932D01C0932C0105C088
:10365000C038D1050CF04CCF46CFDF91CF911F91F0
:1036600008958F929F92AF92BF92CF92DF92EF9286
:10367000FF926B017C0176DE4B015C01C114D10429
:10368000E104F104E9F06EDEDC01CB01881999094F
:10369000AA09BB09883E9340A105B10578F321E052
:1036A000C21AD108E108F10888EE880E83E0981E5E
:1036B000A11CB11CC114D104E104F10421F7DECF37
:1036C000FF90EF90DF90CF90BF90AF909F908F9042
:1036D00008952FB7F89460914D0770914E0780912F
:1036E0004F07909150072FBF08951F920F920FB66A
:1036F0000F9211242F933F938F939F93AF93BF9378
:1037000080914D0790914E07A0914F07B0915007BF
:1037100030914C0723E0230F2D3720F40196A11D93
:10372000B11D05C026E8230F0296A11DB11D2093EF
:103730004C0780934D0790934E07A0934F07B0938B
:1037400050078091510790915207A0915307B09173
:1037500054070196A11DB11D809351079093520704
:10376000A0935307B0935407BF91AF919F918F914E
:103770003F912F910F900FBE0F901F901895CF93F0
:10378000DF93A1E1B8E011961C921E9213961C9251
:103790001E9212971092580610925706CDE5D4E06B
:1037A00018829FB7F894E2E0F1E080818F7E8083F9
:1037B0009FBF13961C921E92129719822C981092FA
:1037C00058061092570610925F049FB7F8948081B4
:1037D0008F7D80839FBFDF91CF910895CF93DF933B
:1037E0001F92CDB7DEB78983CADF909178068981B1
:1037F00091112EC0E8EEF9E09491992341F02091C7
:10380000C00025FFFCCF9093C6003196F5CF682FFE
:1038100070E080E090E00E94FE3B8091C00085FF58
:10382000FCCF8AE08093C600E1E8F9E08491882328
:1038300041F09091C00095FFFCCF8093C600319677
:10384000F5CF8091C00085FFFCCF8AE08093C60051
:103850000F90DF91CF910C94ED33CF93DF931F92B4
:10386000CDB7DEB789838BDF90917806898191117E
:103870002EC0E8EEF9E09491992341F02091C00028
:1038800025FFFCCF9093C6003196F5CF682F70E0EE
:1038900080E090E00E94FE3B8091C00085FFFCCF5D
:1038A0008AE08093C600E4E5F9E08491882341F042
:1038B0009091C00095FFFCCF8093C6003196F5CF64
:1038C0008091C00085FFFCCF8AE08093C6000F90F6
:1038D000DF91CF910C94ED331F920F920FB60F92A0
:1038E00011240BB60F922F933F934F935F936F93D7
:1038F0007F938F939F93AF93BF93CF93DF93EF9378
:10390000FF938091650281112FC080915D048093A7
:103910004B079FB7882329F0F894809102018061BA
:1039200004C0F894809102018F7E809302019FBFB2
:1039300080915E0480934A07882311F02C9A01C07D
:103940002C9880915F04809349079FB7882329F0C2
:10395000F89480910201806204C0F8948091020181
:103960008F7D809302019FBF90914B0780916502EC
:10397000981740F49FB7F894809102018F7E80934E
:1039800002019FBF90914A0780916502981708F441
:103990002C989091490780916502981740F49FB741
:1039A000F894809102018F7D809302019FBF8091E6
:1039B00065028F5F8F77809365028091640290E04B
:1039C0008D30910508F0B6C0FC018827EA56FF4FFC
:1039D0008F4F0C941D6788E080937B0087E4809371
:1039E0007C0080917A00806480937A0081E019C025
:1039F0002091780030917900809145079091460799
:103A0000A0914707B0914807820F931FA11DB11DD8
:103A10008093450790934607A0934707B0934807C4
:103A200082E08093640286C088E080937B0086E415
:103A300080937C0080917A00806480937A0083E098
:103A4000F0CF2091780030917900809141079091DA
:103A50004207A0914307B0914407820F931FA11D15
:103A6000B11D8093410790934207A0934307B09301
:103A7000440784E0D6CF88E080937B0085E4809380
:103A80007C0080917A00806480937A0085E0C9CFC1
:103A9000209178003091790080913D0790913E0708
:103AA000A0913F07B0914007820F931FA11DB11D48
:103AB00080933D0790933E07A0933F07B093400744
:103AC00086E0AFCF87E0ADCF88E0ABCF89E0A9CF6C
:103AD0008AE08093640280913C078F5F80933C076B
:103AE00029C088E080937B0081E480937C008091F2
:103AF0007A00806480937A008BE093CF20917800E5
:103B0000309179008091380790913907A0913A0758
:103B1000B0913B07820F931FA11DB11D8093380701
:103B200090933907A0933A07B0933B078CE079CF85
:103B30001092640280913C07803108F4BBC08091F0
:103B40005C04811120C080914507909146079093B5
:103B500035078093340780913D0790913E079093FD
:103B600037078093360780914107909142079093E1
:103B700033078093320780913807909139079093EB
:103B800031078093300781E080935C0410923C07FA
:103B90001092450710924607109247071092480767
:103BA00010923D0710923E0710923F071092400777
:103BB00010922C0710922D0710922E0710922F07AB
:103BC0001092410710924207109243071092440747
:103BD000109238071092390710923A0710923B075B
:103BE000C0913407D09135078091F2069091F30689
:103BF0008C179D0714F080E030DE80916002909178
:103C00006102C817D90714F080E0E8DDC0913607DB
:103C1000D09137078091F4069091F5068C179D0797
:103C200014F081E01ADE8091620290916302C8175D
:103C3000D90714F081E0D2DD2091320730913307AB
:103C40008091F0069091F106821793079CF11092F3
:103C50005806109257069FB7F894809102018F7D05
:103C6000809302019FBF80917806811121C0E8EE08
:103C7000F9E08491882341F09091C00095FFFCCF3A
:103C80008093C6003196F5CFEEEAF9E0849188235F
:103C900041F09091C00095FFFCCF8093C600319613
:103CA000F5CF8091C00085FFFCCF8AE08093C600ED
:103CB0000E94ED33FF91EF91DF91CF91BF91AF91D2
:103CC0009F918F917F916F915F914F913F912F9134
:103CD0000F900BBE0F900FBE0F901F9018952F9254
:103CE0003F924F925F926F927F928F929F92AF928C
:103CF000BF92CF92DF92EF92FF920F931F93CF93D9
:103D0000DF93EC0148ED58E081E090E0FA01259165
:103D10003491C217D3070CF05DC09C0121503109CA
:103D2000220F331F220F331FD901AA52B74FFD01B3
:103D3000659174912C52374FF901A590B490FC0114
:103D4000EE0FFF1FEE0FFF1FEA52F74FE590F490C2
:103D5000FD01C590D490FA0105911491F9012590C7
:103D60003490072E000C880B990B0E9422602B01C7
:103D70003C01CA19DB09BE01DD0F880B990B0E94BB
:103D800022604B015C01B7016C197D09072E000C04
:103D9000880B990B0E9422609B01AC01C501B40104
:103DA0000E94715C6B017C01B80162197309072ED6
:103DB000000C880B990B0E9422609B01AC01C7018B
:103DC000B6010E945B649B01AC01C301B2010E9479
:103DD0007F6311C001964C5F5F4F8032910509F0FF
:103DE00095CFE2E5F9E065917491072E000C880B00
:103DF000990B0E942260DF91CF911F910F91FF904C
:103E0000EF90DF90CF90BF90AF909F908F907F907A
:103E10006F905F904F903F902F9008952F923F9218
:103E20004F925F926F927F928F929F92AF92BF92CA
:103E3000CF92DF92EF92FF920F931F93CF93DF9376
:103E400000D000D0CDB7DEB78C01623040F1E8EE93
:103E5000F9E08491882341F09091C00095FFFCCF58
:103E60008093C6003196F5CF70E080E090E00E942C
:103E7000FE3BE7EBF8E08491882341F09091C0008D
:103E800095FFFCCF8093C6003196F5CF8091C0009E
:103E900085FFFCCF8AE08093C6000E94D80A70E0BC
:103EA000FB01EE0FFF1FEC5FFC4F208131813E8351
:103EB0002D83232B09F4A0C0FB01EE5FFC4F308162
:103EC0003A832D813E812C5F3F4F81E090E08983D2
:103ED0006A81861708F077C0DC01F9016591749159
:103EE0000196A9014C5F5F4F061717070CF069C0D8
:103EF0000297880F991F880F991FAC014E5F5F4F83
:103F00006D817E81460F571FFA0165917491ED8195
:103F1000FE818E0F9F1FFC01A590B490FD01EE0F56
:103F2000FF1FEE0FFF1F3296AD81BE81EA0FFB1F10
:103F3000E590F490FA01C590D490F9012590349061
:103F4000FC01259134913C832B83072E000C880BB8
:103F5000990B0E9422602B013C01B8016A197B0970
:103F6000072E000C880B990B0E9422604B015C010C
:103F7000B7016C197D09072E000C880B990B0E9464
:103F800022609B01AC01C501B4010E94715C6B0110
:103F90007C01B1014B815C81641B750B072E000C09
:103FA000880B990B0E9422609B01AC01C701B601EE
:103FB0000E945B649B01AC01C301B2010E947F635C
:103FC00006C09A0184CF60E070E080E090E0A981B3
:103FD000BA81AB1328C0ED81FE8124E0A29FE00DE1
:103FE000F11D1124329765917491072E000C880BF6
:103FF000990B0E94226017C0BC01990F880B990B86
:104000000E94226020E030E04AEF5EE30E94715C93
:1040100020E030E040E85DE30E94715C20E030E0A9
:10402000A9010E947F636B017C01C701B60126963E
:104030000FB6F894DEBF0FBECDBFDF91CF911F91B9
:104040000F91FF90EF90DF90CF90BF90AF909F9037
:104050008F907F906F905F904F903F902F9008953A
:104060000F931F93CF93DF9304E317E060E0F80111
:1040700080819181D3DECFE4D6E0688379838A831F
:104080009B8361E0F80182819381C8DE6C837D832C
:104090008E839F83809132079091330720DE609357
:1040A0004B0670934C0680934D0690934E0680917C
:1040B00030079091310713DE6093470670934806EE
:1040C0008093490690934A068FB7F89410925C0447
:1040D0008FBFDF91CF911F910F9108952F923F9243
:1040E0004F925F926F927F928F929F92AF92BF9208
:1040F000CF92DF92EF92FF920F931F93CF93DF93B4
:10410000CDB7DEB76E970FB6F894DEBF0FBECDBF4A
:1041100080915C04882309F459C2A2DF8FE496E001
:1041200098878F83A1E1B8E0BE8BAD8BE4E2F7E026
:10413000FC8BEB8B8DE594E09E838D83ACE5B2E048
:10414000BE87AD87ECEDF6E0F88FEF8B82E097E06D
:104150009A878987A2E2B7E0BC83AB83EAE1F7E004
:10416000FA83E9838AEF96E09C878B87212C312C98
:10417000AF81B8854D905D906D907C90ED89FE8902
:1041800001911191FE8BED8BB801012E000C880B73
:10419000990B0E942260A30192010E947E636B0131
:1041A0007C01AB89BC896D937D938D939D93BC8B72
:1041B000AB8B20E030E040E251E40E94AA65181683
:1041C0002CF421E0EB81FC812083EFC020E030E083
:1041D00040E251ECC701B6010E941C6087FD02C09D
:1041E000012B29F4E1E0AB81BC81EC9303C1AB81ED
:1041F000BC818C91882339F0E981FA811082118287
:10420000128213821C92209142023091430240910B
:10421000440250914502C701B6010E94715C6F874C
:10422000788B898B9A8BF101EE5EF84F60837183F6
:1042300082839383A981BA812D913D914D915C91A7
:10424000C701B6010E947F634B015C01F101E85197
:10425000F94F10810181B281BE8F23812D8F212FD3
:10426000302F4B2F5D8D0E941C6087FD16C0F10121
:10427000E052F94F1081018182818E8F93819D8F51
:10428000212F302FAC01B401C5010E94AA65181678
:1042900024F0182D092DAE8EBD8E812F902FAE8D5E
:1042A000BD8DE981FA8180839183A283B3832091BC
:1042B0003E0230913F024091400250914102612FF5
:1042C000702FCD010E94715C698F7A8F8B8F9C8FCC
:1042D000F101E65FF84F6083718382839383A98540
:1042E000BA852D913D914D915C91C301B2010E941F
:1042F0007E6320913A0230913B0240913C02509102
:104300003D020E94715C20ED3CEC4CE45DE30E94B8
:10431000715C4B015C0123E333E343E75FE3EB852F
:10432000FC8560817181828193810E94715C9B0117
:10433000AC01C501B4010E947F634B015C01AB85F8
:10434000BC856D937D938D939C931397298D3A8DA6
:104350004B8D5C8D6F85788989899A890E947F63EE
:10436000A50194010E947E634B015C0120E030E0D6
:104370004FE753E40E94AA6520E030E0A901181637
:10438000DCF4C701B6010E94AA65181674F4A701EF
:104390009601612F702F8E8D9D8D0E947E63E98125
:1043A000FA816083718382839383812C912C9FE7B0
:1043B000A92E93E4B92E21C0C501B4010E941C604E
:1043C00087FF1BC020E030E0A901C701B6010E94B1
:1043D0001C6087FF0FC0A7019601612F702F8E8D83
:1043E0009D8D0E947E63A981BA816D937D938D938B
:1043F0009C931397812C912C5401E985FA85408276
:1044000051826282738220E030E04CE852E4609195
:104410004706709148068091490690914A060E948D
:10442000AA659FB718162CF4F8948091080184604F
:1044300004C0F894809108018B7F809308019FBF8E
:10444000AF81B885CD90DD90ED90FC90EF89F88D2F
:1044500061917191F88FEF8B072E000C880B990BEF
:104460000E9422609B01AC01C701B6010E94AA65AF
:104470001816E4F4AD85BE856D917C91072E000C75
:10448000880B990B0E9422609B01AC01C701B60109
:104490000E941C6087FF0AC0C501B4010E94C3646A
:1044A00075956795ED81FE81608303C0AD81BE8106
:1044B0001C92EF81F8853496F887EF83F4E02F0E95
:1044C000311C8D819E8101969E838D83AD85BE8535
:1044D0001296BE87AD87E985FA853496FA87E98713
:1044E0008B819C8101969C838B83A981BA811496D0
:1044F000BA83A983EB85FC853496FC87EB87F8E0CB
:104500002F16310409F034CEE4D80091F60610914C
:10451000F7062091F8063091F906DC01CB01801BEB
:10452000910BA20BB30B88389341A105B10508F498
:104530004DC0CFD86093F6067093F7068093F806C7
:104540009093F906C0904B06D0904C06E0904D0633
:10455000F0904E0620E030E040EA50E4C701B6019A
:104560000E94AA65181654F420E030E04AE253E4B1
:10457000C701B6010E941C6087FD0AC010925F044B
:104580009FB7F894809102018F7D809302019FBFB5
:104590006091570670915806072E000C880B990BF6
:1045A0000E9422609B01AC0160914B0670914C0609
:1045B00080914D0690914E060E94AA6587FD03C02A
:1045C00010925F0403C08FE780935F046E960FB66E
:1045D000F894DEBF0FBECDBFDF91CF911F910F9139
:1045E000FF90EF90DF90CF90BF90AF909F908F9013
:1045F0007F906F905F904F903F902F900895209103
:104600003E0230913F02409140025091410260E0F1
:1046100070E08FE793E40E945B64E0EEF6E0608375
:1046200071838283938364837583868397830895DC
:104630009091EC0C8091EB0C981721F04FDD0E94CB
:10464000443DF6CF0895F4DF5F9AE8EEFCE0108277
:104650008A9A11829FB7F894A8E0B1E08C918160AA
:104660008C939FBF1282129A479A08952F923F927D
:104670004F925F926F927F928F929F92AF92BF9272
:10468000CF92DF92EF92FF920F931F93CF93DF931E
:10469000CDB7DEB768970FB6F894DEBF0FBECDBFBB
:1046A0001C012A013B0148015901DC01D8966D919A
:1046B0007D918D919C91DB970E9420606B017C0124
:1046C000A30192010E94715C0E9445640E94C8642B
:1046D00069877A878B879C87A5019401C701B601FA
:1046E0000E94715C0E9445640E94C8646D877E8749
:1046F0008F87988B29853A854B855C8528373105CE
:104700004105510540F488E790E0A0E0B0E08987DA
:104710009A87AB87BC872D853E854F85588928377A
:1047200031054105510540F488E790E0A0E0B0E094
:104730008D879E87AF87B88B91012C5B3F4FD90146
:104740008D919D910D90BC91A02D8D839E83AF8303
:10475000B887BC01CD010E94226069837A838B8374
:104760009C8369857A858B859C850E942060698BF6
:104770007A8B8B8B9C8B20E030E0A90169817A8158
:104780008B819C810E941C60882339F1A7019601CE
:10479000C701B6010E94715C4B015C0129893A890D
:1047A0004B895C89CA01B9010E94715C9B01AC0113
:1047B000C501B4010E947E634B015C0129813A81ED
:1047C0004B815C81CA01B9010E947F639B01AC01EE
:1047D000C501B4010E945B6403C060E070E0CB01DE
:1047E0000E9445640E94C3642B013C016D817E815F
:1047F0008F81988590958095709561957F4F8F4FAB
:104800009F4F0E9422604B015C016D857E858F85E4
:1048100098890E9420606D837E838F83988720E033
:1048200030E0A901C501B4010E941C60882349F150
:104830002D813E814F815885CA01B9010E94715C6A
:104840006D8B7E8B8F8B988FA7019601C701B60168
:104850000E94715C9B01AC016D897E898F89988D66
:104860000E947E636B017C01A5019401C501B40126
:104870000E947F639B01AC01C701B6010E945B648B
:1048800003C060E070E0CB010E94F464F101808815
:104890009188A288B38875016401C418D508E60818
:1048A000F7080E94C364C61AD70AE80AF90AF7FE95
:1048B0006BC020E030E0A90169817A818B819C8105
:1048C0000E941C60882309F447C029813A814B81EA
:1048D0005C81CA01B9010E947F636B017C01C50143
:1048E000B4010E9420609B01AC01C701B6010E9487
:1048F000715C6B017C0129893A894B895C89CA0109
:10490000B9010E94715C9B01AC01C701B6010E9414
:104910007E636B017C012D813E814F815885CA01E8
:10492000B9010E94715C9B01AC01C701B6010E94F4
:104930007F636B017C0120E030E040E850E4698156
:104940007A818B819C810E94715C9B01AC01C701C3
:10495000B6010E945B6403C060E070E0CB010E947E
:1049600045640E94C3642B013C0197FF03C0412CA6
:10497000512C3201481459046A047B0410F02401BC
:104980003501C12CD12C76018FB7F894F101E45B8D
:10499000FF4F9081911125C0D10154964D925D92A7
:1049A0006D927C925797C40CD51CE61CF71CF10144
:1049B000C08ED18EE28EF38E29853A854B855C853B
:1049C000DC962D933D934D935C93DF97A05CBF4F96
:1049D0002D853E854F8558892D933D934D935C934E
:1049E00013978FBF68960FB6F894DEBF0FBECDBF8A
:1049F000DF91CF911F910F91FF90EF90DF90CF90BB
:104A0000BF90AF909F908F907F906F905F904F90EE
:104A10003F902F9008952F923F924F925F926F9206
:104A20007F928F929F92AF92BF92CF92DF92EF923E
:104A3000FF920F931F93CF93DF93CDB7DEB7C95784
:104A4000D1090FB6F894DEBF0FBECDBF2C013B01DC
:104A50004A0159013E2C2F2CDEAECDAE8091EC0CDC
:104A60008F5FA4968FAFA497803119F4A4961FAEE0
:104A7000A497A4962FADA497E22E220FFF08809151
:104A8000EB0C90E08E159F0521F428DB0E94443D3D
:104A9000F6CF20913B0D30913C0D40913D0D509152
:104AA0003E0DD2016D917D918D919C910E94715C22
:104AB0000E945766AE966CAF7DAF8EAF9FAFAE973C
:104AC00020913F0D3091400D4091410D5091420D8C
:104AD000F30160817181828193810E94715C0E94E7
:104AE0005766A3966CAF7DAF8EAF9FAFA397209113
:104AF000430D3091440D4091450D5091460DD40128
:104B00006D917D918D919C910E94715C0E94576680
:104B1000A8966CAF7DAF8EAF9FAFA8972091470D41
:104B20003091480D4091490D50914A0DF501608139
:104B30007181828193810E94715C0E9457666796A1
:104B40006CAF7DAF8EAF9FAF67978091370D90911F
:104B5000380DA091390DB0913A0D67968CAC9DAC93
:104B6000AEACBFAC679788169906AA06BB0609F4D7
:104B7000A7C0E0915A0624E0E29FF0011124E15B16
:104B8000F94F2091010230910202409103025091AD
:104B9000040260817181828193810E941C6087FF81
:104BA00029C08092370D9092380DA092390DB092A5
:104BB0003A0DE0E5F6E08491882341F09091C00041
:104BC00095FFFCCF8093C6003196F5CFE2EEFBE077
:104BD0008491882341F09091C00095FFFCCF809391
:104BE000C6003196F5CF8091C00085FFFCCF8AE0EA
:104BF0008093C6008091370D9091380DA091390DAA
:104C0000B0913A0D67968CAC9DACAEACBFAC6797DB
:104C1000881A990AAA0ABB0AC501B401B7FE07C0DF
:104C200090958095709561957F4F8F4F9F4F0E9413
:104C300022606B017C0120E030E04AEF53E4609198
:104C4000470D7091480D8091490D90914A0D0E9439
:104C5000715C9B01AC01C701B6010E94AA651816E0
:104C60007CF567968CAC9DACAEACBFAC6797809280
:104C7000370D9092380DA092390DB0923A0DE0E5C3
:104C8000F6E08491882341F09091C00095FFFCCF1D
:104C90008093C6003196F5CFE4ECFBE08491882345
:104CA00041F09091C00095FFFCCF8093C6003196F3
:104CB000F5CF8091C00085FFFCCF8AE08093C600CD
:104CC000E091EC0CAE2EB12CBCA6ABA62DE4E29F7D
:104CD000F0011124EE59F74F108280912B0D909125
:104CE0002C0DA0912D0DB0912E0DAE964CAD5DAD5D
:104CF0006EAD7FADAE97481B590B6A0B7B0B809155
:104D00002F0D9091300DA091310DB091320DA396E1
:104D1000CCACDDACEEACFFACA397C81AD90AEA0A5A
:104D2000FB0A4A015B018C0C9D1CAE1CBF1C8DA6AE
:104D30009EA6AFA6B8AA75016401B7FE08C0F0949C
:104D4000E094D094C094C11CD11CE11CF11C2DE452
:104D5000ABA4BCA42A9DF0012B9DF00D1124EA5EAA
:104D6000F74FC082D182E282F382A3968CAC9DACD5
:104D7000AEACBFACA39788199909AA09BB094A012F
:104D80005B01880E991EAA1EBB1E89AA9AAAABAA0D
:104D9000BCAAB7FE08C0B094A09490948094811CE3
:104DA000911CA11CB11C8DE42BA53CA5829FF00198
:104DB000839FF00D1124EA5EF74F84829582A682CC
:104DC000B7824091330D5091340D6091350D709143
:104DD000360D4DAB5EAB6FAB78AFA8964CAC5DAC0F
:104DE0006EAC7FACA897441A550A660A770A77FE1C
:104DF00008C07094609450944094411C511C611CF4
:104E0000711C8DE46BA57CA5869FF001879FF00D3A
:104E10001124EA5EF74F4086518662867386809140
:104E2000370D9091380DA091390DB0913A0D89AFA1
:104E30009AAFABAFBCAF67966CAD7DAD8EAD9FAD9D
:104E4000679729AD3AAD4BAD5CAD621B730B840B1C
:104E5000950B97FF07C090958095709561957F4F52
:104E60008F4F9F4F0E942260E0915A0634E0E39FEB
:104E7000F0011124EE58FD4F208131814281538190
:104E80000E94715C0E94C3649B01AC01A091460228
:104E9000B09147020E94256724E630E040E050E0F0
:104EA0000E9401678DE46BA57CA5869FF001879F1A
:104EB000F00D1124EA5EF74F248735874687578720
:104EC000C901DA0184159505A605B70514F4D301C7
:104ED000C201B701A60188159905AA05BB0544F0D2
:104EE000C816D906EA06FB0654F4AC01BD0107C09A
:104EF000C814D904EA04FB0414F4B501A4018DE438
:104F0000ABA5BCA58A9FF0018B9FF00D1124EA5E32
:104F1000F74F408B518B628B738B46305105610587
:104F2000710514F40C945A31DF01A85BBF4F409116
:104F3000E60C5091E70C052E000C660B770B4D9399
:104F40005D936D937C9313972DA53EA54FA558A90E
:104F500057FD02C010A202C081E080A349A95AA94E
:104F60006BA97CA977FF0DC08DE46BA57CA5869FFE
:104F7000F001879FF00D1124EA5EF74F80A1826057
:104F800080A3A8968CAD9DADAEADBFADA8972DA961
:104F90003EA94FA958AD82179307A407B5076CF433
:104FA0008DE44BA55CA5849FF001859FF00D112435
:104FB000EA5EF74F80A1846080A367966CAD7DADFB
:104FC0008EAD9FAD679729AD3AAD4BAD5CAD621725
:104FD0007307840795076CF48DE44BA55CA5849F4B
:104FE000F001859FF00D1124EA5EF74F80A18860E3
:104FF00080A3ADADBEAD8C919DE42BA53CA5929F49
:10500000F001939FF00D1124EA5EF74F81A3CD28A4
:10501000CE28CF2821F489288A288B2811F05F9880
:105020008A988DE48BA49CA4889DF001899DF00D45
:105030001124EA5EF74F80859185A285B385892B7F
:105040008A2B8B2B41F09FB7F894809108018E7FBB
:10505000809308019FBF8DE4ABA4BCA48A9DF0019E
:105060008B9DF00D1124EA5EF74F84859585A6850A
:10507000B785892B8A2B8B2BD1F1809161078823EF
:1050800019F081508093610780916207882319F09D
:1050900081508093620780916307882319F08150C3
:1050A00080936307ADADBEAD8C91813049F018F0AF
:1050B000823081F01CC0129880E28093610712C098
:1050C000479880E2809362078091610781110FC049
:1050D000129A0DC080E2809363078091610781116D
:1050E00001C0129A80916207811101C0479A8DE434
:1050F0008BA49CA4889DF001899DF00D1124EA5E8B
:10510000F74F84849584A684B7842B968CAE9DAE8D
:10511000AEAEBFAE2B9789288A288B2849F4C09061
:10512000FC05D090FD05E090FE05F090FF0508C05D
:10513000C0900006D0900106E0900206F0900306B1
:105140009601A701632D722DC8010E941C6087FF84
:1051500003C03C2C2D2C870180912B0D90912C0DA0
:10516000A0912D0DB0912E0DAE96CCACDDACEEAC79
:10517000FFACAE97C81AD90AEA0AFB0A40903B0D69
:1051800050903C0D60903D0D70903E0DC701B601F2
:105190000E942260A30192010E945B646DAB7EAB12
:1051A0008FAB98AF698B7A8B8B8B9C8B80902F0DFC
:1051B0009090300DA090310DB090320D8DA69EA62E
:1051C000AFA6B8AAA3962CAD3DAD4EAD5FADA397EB
:1051D000281939094A095B0929AB3AAB4BAB5CABDF
:1051E00080903F0D9090400DA090410DB090420DE9
:1051F000CA01B9010E942260A50194010E945B646A
:1052000069AF7AAF8BAF9CAF6D8B7E8B8F8B988F96
:1052100069A97AA98BA99CA96C0D7D1D8E1D9F1D66
:105220000E942260A30192010E945B6469837A83D9
:105230008B839C838DA59EA5AFA5B8A9A3964CADE5
:105240005DAD6EAD7FADA397841B950BA60BB70B21
:10525000BC01CD016C0D7D1D8E1D9F1D0E94226025
:10526000A50194010E945B646D837E838F83988780
:105270008091330D9091340DA091350DB091360D84
:10528000A8968CAC9DACAEACBFACA897881A990A16
:10529000AA0ABB0AC501B4010E9422602091430DF5
:1052A0003091440D4091450D5091460D0E945B6434
:1052B0006B017C0169877A878B879C878091370D8A
:1052C0009091380DA091390DB0913A0D67968CAC44
:1052D0009DACAEACBFAC6797881A990AAA0ABB0A04
:1052E000C501B4010E9422602091470D3091480D04
:1052F0004091490D50914A0D0E945B64E0915A061D
:1053000024E0E29FF0011124EE58FD4F208131810D
:10531000428153810E94715C4B015C0160914602A5
:1053200070914702072E000C880B990B0E94226097
:105330009B01AC01C501B4010E94715C20E030E02A
:1053400048EC52E40E945B646D877E878F87988B60
:105350002DE48BA49CA4289DF001299DF00D11241F
:10536000EA5EF74F80809180A280B38023968CAE56
:105370009DAEAEAEBFAE2397A50194012630310598
:1053800041055105E4F484809580A680B78036E01D
:1053900083169104A104B10494F480849184A284BE
:1053A000B38446E084169104A104B10444F4DC0102
:1053B000CB01BF7786A797A7A0ABB1AB30C06DA9D3
:1053C0007EA98FA998AD0E946E5C4B015C0169AD0E
:1053D0007AAD8BAD9CAD0E946E5C9B01AC01C501AA
:1053E000B4010E947F634B015C01C701B6010E94BA
:1053F0006E5C9B01AC01C501B4010E947F630E94F9
:1054000095662DE48BA49CA4289DF001299DF00DA8
:105410001124EA5EF74F66A777A780AB91AB8DE4C6
:10542000ABA4BCA48A9DF0018B9DF00D1124EA5E13
:10543000F74F86A497A4A0A8B1A827968CAE9DAEDE
:10544000AEAEBFAE2797A501940160E070E080E8A2
:105450009FE30E945B649B01AC01632D722DC80128
:105460000E94715C6B017C018091EC0C2091EB0C33
:1054700090E0821B91099C012F703327AA963FAFC1
:105480002EAFAA97A701960160E074E284E799E441
:105490000E945B640E9457664B015C01AA964EAD68
:1054A0005FADAA97423051050CF441C02A01550F57
:1054B00066087708C301B2010E94226020E030E054
:1054C00040E051E40E941C6087FF31C08091F805E4
:1054D0009091F905A091FA05B091FB0588169906FF
:1054E000AA06BB0620F588199909AA09BB09BC01BF
:1054F000CD01660F771F881F991FA30192010E949B
:105500004363CA01B9010E9420600E945766680D7A
:10551000791D8A1D9B1D0E9420609B01AC0160E0EB
:1055200074E284E799E40E945B646B017C01A7014B
:10553000960127966CAD7DAD8EAD9FAD27970E94ED
:10554000715C2F966CAF7DAF8EAF9FAF2F978DE4C0
:105550008BA49CA4889D8001899D100D11240A5E56
:10556000174F2F968CAC9DACAEACBFAC2F97D8012B
:1055700092968D929D92AD92BC92959750966D9118
:105580007D918D919C9153970E9420606DA77EA77D
:105590008FA798ABA70196010E94715C0E94456499
:1055A0000E94C86463966CAF7DAF8EAF9FAF639768
:1055B000F80160AF71AF82AF93AF9E012F5F3F4F95
:1055C0003EAF2DAFAE01475E5F4F5AAF49AF6FE2BE
:1055D00076E06D967FAF6EAF6D97CE0141969AA73C
:1055E00089A769965FAF4EAF6997212C312C90E85F
:1055F00099ABAFE3ADABEDADFEAD61917191819132
:105600009191FEAFEDAFA70196010E94715C699682
:10561000AEADBFAD69976D937D938D939D93699664
:10562000BFAFAEAF69974B015C01E894B7F86D96D8
:10563000EEADFFAD6D9741905190619071906D9678
:10564000FFAFEEAF6D97A3019201C501B4010E94B7
:10565000AA651816A4F4A5019401C301B2010E9421
:105660005B645B018C019B01AC01B10189A99DA91F
:105670000E941C6087FD03C0150109AB1DAB8DACFA
:105680009EACA9A4BAA48A149B0409F0B4CF20E06C
:1056900030E040E85FE3B10189A99DA90E941C6048
:1056A00087FF49C08E01075D1F4F910149A95DA980
:1056B000A9ADBAAD6D917D918D919C910E94715C67
:1056C000E9ADFAAD6193719381939193FAAFE9AF2C
:1056D000E017F10751F78DE48BA49CA4889D80010D
:1056E000899D100D11240A5E174F910149A95DA9EA
:1056F0002F966CAD7DAD8EAD9FAD2F970E94715CE6
:10570000D80192966D937D938D939C939597639614
:105710006CAD7DAD8EAD9FAD63970E942060910111
:1057200049A95DA90E94715C0E94C864F80160AF3C
:1057300071AF82AF93AF27962CAD3DAD4EAD5FAD4F
:1057400027976DA57EA58FA598A90E945B646B0124
:105750007C0123968CAC9DACAEACBFAC2397892862
:105760008A288B28A1F58DE4ABA4BCA48A9D800176
:105770008B9D100D11240A5E174FF80184819581CD
:10578000A681B781892B8A2B8B2B09F58085918582
:10579000A285B385892B8A2B8B2BC9F42091040613
:1057A000309105064091060650910706C701B601E3
:1057B0000E94715C0E9445640C5B1F4F0E94C8648C
:1057C000D8016D937D938D939C93139723C1209162
:1057D00008063091090640910A0650910B06C70150
:1057E000B6010E94715C0E9445640E94C8642DE469
:1057F0008BA49CA4289D8001299D100D1124065A7C
:10580000174FD8016D937D938D939C931397809040
:105810001F0690902006A0902106B09022060E94BC
:1058200020602B013C0123966CAD7DAD8EAD9FAD0C
:1058300023970E9422609B01AC01C301B2010E9428
:10584000715C2DA53EA54FA558A90E945B642B0154
:105850003C01C501B4010E9420609B01AC01C30161
:10586000B2010E94AA6518162CF4F8018082918278
:10587000A282B3828090230690902406A0902506F1
:10588000B09026062DE44BA55CA5249FC001259F62
:10589000900D1124BC016A5E774F1B018B010C5BDC
:1058A0001F4FD8016D917D918D919C910E94206038
:1058B0002B013C01F10164817581868197810E94F1
:1058C00022609B01AC01C301B2010E94715C2DA555
:1058D0003EA54FA558A90E945B642B013C01C50160
:1058E000B4010E9420609B01AC01C301B2010E947F
:1058F000AA65181634F4D8018D929D92AD92BC928F
:10590000139780902B0690902C06A0902D06B090B7
:105910002E068DE4EBA5FCA58E9F80018F9F100DB8
:105920001124065A174FD8016D917D918D919C914C
:105930000E9420602B013C012B966CAD7DAD8EAD9D
:105940009FAD2B970E9422609B01AC01C301B20165
:105950000E94715C2DA53EA54FA558A90E945B64CD
:105960002B013C01C501B4010E9420609B01AC01E8
:10597000C301B2010E94AA6518162CF4F8018082B6
:105980009182A282B3828090270690902806A090F0
:105990002906B0902A062DE44BA55CA5249FC001E2
:1059A000259F900D1124BC016A5E774F1B018B016E
:1059B0000C5B1F4FD8016D917D918D919C910E9440
:1059C00020602B013C01F101608571858285938502
:1059D0000E9422609B01AC01C301B2010E94715C74
:1059E0002DA53EA54FA558A90E945B642B013C0143
:1059F000C501B4010E9420609B01AC01C301B2014A
:105A00000E94AA65181634F4D8018D929D92AD9229
:105A1000BC9213978DE48BA49CA4889D8001899DE2
:105A2000100D11240A5E174FF801EC5BFF4F6081E7
:105A30007181828193810E9420604B015C01A701EA
:105A400096010E945B64E2966CAF7DAF8EAF9FAF14
:105A5000E297D801D2966D937D938D939C93D597C1
:105A60002DEB37E346E051E4C501B4010E94715CBF
:105A70000E94C364F801648F758F868F978FC090E2
:105A8000F405D090F505E090F605F090F70520E0DC
:105A900030E040E05FE3C701B6010E94715C6DA792
:105AA00079AB8DAB99AF89A09AA0ABA0BCA0E696CC
:105AB0008CAE9DAEAEAEBFAEE6978090F0059090F6
:105AC000F105A090F205B090F3056B968CAE9DAEFB
:105AD000AEAEBFAE6B9720E030E040E05FE3C501C3
