:100000000C94FA090C942B0A0C942B0A0C942B0ACE
:100010000C942B0A0C942B0A0C942B0A0C942B0A8C
:100020000C942B0A0C942B0A0C942B0A0C942B0A7C
:100030000C942B0A0C942B0A0C942B0A0C942B0A6C
:100040000C942B0A0C9492460C942B0A0C942B0AB9
:100050000C942B0A0C942B0A0C94E4580C94C05C5E
:100060000C942B0A0C94B5100C942B0A0C942B0AAC
:100070000C942B0A0C942B0A0C942B0A0C942B0A2C
:100080000C942B0A0C942B0A0C942B0A0C942B0A1C
:100090000C942B0A0C942B0A0C942B0A0C94925B54
:1000A0000C942B0A0C942B0A0C942B0A0C942B0AFC
:1000B0000C942B0A0C942B0A0C942B0A0C942B0AEC
:1000C0000C942B0A0C942B0A0C942B0A0C942B0ADC
:1000D0000C942B0A0C942B0A0C942B0A0C942B0ACC
:1000E0000C942B0A5F596C5988599559AF59BC59D2
:1000F000D659D859DA59DC59E559F2590C5AE35D09
:10010000E85DED5DF75D015E7A5E0B5E135E1B5E82
:10011000255E2F5E395E485E525E7A5E5C5E665E8C
:10012000705E9B5E9E5E8D5E915E975ED55EA25E0A
:10013000A65EAC5EB05EB45EBA5EBE5EC25ED55E0A
:10014000C85ECC5ED05E084AD73B3BCE016E84BC15
:10015000BFFDC12F3D6C74319ABD56833DDA3D0021
:10016000C77F11BED9E4BB4C3E916BAAAABE00006A
:1001700000803F05A84CCDB2D44EB93836A9020C48
:1001800050B9918688083CA6AAAA2ABE0000008021
:100190003F0048617264636F646564204465666112
:1001A000756C742053657474696E6773204C6F614D
:1001B0006465640053746F72656420736574746958
:1001C0006E67732072657472696576656400204499
:1001D000002049002020204D33303120500050496C
:1001E000442073657474696E67733A00205A002066
:1001F000590020204D323036205800486F6D652060
:100200006F666673657420286D6D293A002045007D
:10021000205A0020580020420020540020204D3257
:100220003035205300416476616E636564207661E9
:10023000726961626C65733A20533D4D696E206648
:100240006565647261746520286D6D2F73292C209B
:10025000543D4D696E2074726176656C20666565EB
:10026000647261746520286D6D2F73292C20423DC6
:100270006D696E696D756D207365676D656E74204F
:1002800074696D6520286D73292C20583D6D617847
:10029000696D756D205859206A65726B20286D6DE7
:1002A0002F73292C20205A3D6D6178696D756D2062
:1002B0005A206A65726B20286D6D2F73292C2020BF
:1002C000453D6D6178696D756D2045206A65726B7D
:1002D00020286D6D2F73290020540020204D3230CE
:1002E00034205300416363656C65726174696F6E9D
:1002F0003A20533D616363656C65726174696F6E2A
:100300002C20543D7265747261637420616363656F
:100310006C65726174696F6E00204500205A002080
:10032000590020204D3230312058004D6178696DE0
:10033000756D20416363656C65726174696F6E20D1
:10034000286D6D2F7332293A00204500205A002075
:10035000590020204D3230332058004D6178696DAE
:10036000756D2066656564726174657320286D6DB6
:100370002F73293A00204500205A002059002020E0
:100380004D393220580053746570732070657220A7
:10039000756E69743A0053657474696E677320539F
:1003A000746F726564005072696E74657220737444
:1003B0006F707065642064756520746F206572725B
:1003C0006F72732E2046697820746865206572729A
:1003D0006F7220616E6420757365204D3939392044
:1003E000746F20726573746172742E202854656D69
:1003F00070657261747572652069732072657365CA
:10040000742E2053657420697420616674657220AF
:1004100072657374617274696E6729005072696ED7
:100420007465722068616C7465642E206B696C6CF5
:1004300028292063616C6C656421006F6B00526534
:1004400073656E643A20002200556E6B6E6F776E96
:1004500020636F6D6D616E643A2022005A204F66F2
:1004600066736574203A20007A5F6D61783A2000E7
:100470007A5F6D696E3A20005A204F666673657424
:10048000005A204F6666736574206F6B00486F7466
:10049000656E64206F6666736574733A007A5F6D8B
:1004A00061783A2000795F6D696E3A2000785F6D5F
:1004B000696E3A2000205A3A0020593A0020436FD2
:1004C000756E7420583A200020453A00205A3A00B0
:1004D00020593A00583A004649524D574152455F1B
:1004E00056455253494F4E3A312E302E3020464910
:1004F000524D574152455F55524C3A68747470736F
:100500003A2F2F6769746875622E636F6D2F4D6186
:10051000726C696E4669726D776172652F4D61729A
:100520006C696E2050524F544F434F4C5F564552AA
:1005300053494F4E3A312E30204D414348494E45A4
:100540005F545950453A4A756C69613347204558A4
:100550005452554445525F434F554E543A322055FC
:100560005549443A30303030303030302D30303032
:10057000302D303030302D303030302D3030303084
:1005800030303030303030300A0020423A002045E0
:100590003A00543A0020573A0020453A00543A00B5
:1005A00020414D425F543A0020403A00202F003A4B
:1005B00000205400202F0020423A00202F006F6BB3
:1005C00020543A002569206D696E2C20256920731E
:1005D0006563005072696E7465722073746F707019
:1005E00065642064756520746F206572726F727324
:1005F0002E2046697820746865206572726F7220BB
:10060000616E6420757365204D39393920746F200F
:10061000726573746172742E202854656D706572F2
:1006200061747572652069732072657365742E201C
:1006300053657420697420616674657220726573F5
:1006400074617274696E6729004E6F204C696E6523
:10065000204E756D626572207769746820636865E5
:10066000636B73756D2C204C617374204C696E65DF
:100670003A20004E6F20436865636B73756D207779
:10068000697468206C696E65206E756D6265722C88
:10069000204C617374204C696E653A200063686574
:1006A000636B73756D206D69736D617463682C2065
:1006B0004C617374204C696E653A20004C696E651C
:1006C000204E756D626572206973206E6F74204CC8
:1006D000617374204C696E65204E756D6265722B76
:1006E000312C204C617374204C696E653A20004DAA
:1006F000313130002020506C616E6E65724275663B
:1007000066657242797465733A20002046726565A9
:10071000204D656D6F72793A20004A756E20313533
:10072000203230313700436F6D70696C65643A2058
:1007300000467261636B74616C20576F726B73005B
:10074000207C20417574686F723A20004A756E20D3
:10075000313520323031372032323A35343A333283
:1007600000204C61737420557064617465643A2094
:1007700000312E302E32004D61726C696E002053B4
:100780006F667477617265205265736574002057D7
:1007900061746368646F67205265736574002042FA
:1007A000726F776E206F75742052657365740020C8
:1007B00045787465726E616C205265736574005083
:1007C0006F776572557000737461727400FFFF017A
:1007D0000000A0400000A0400000A04000009143A5
:1007E00000005243000077430000000000000000BA
:1007F000000077430000914300005243000077431C
:100800000000000000000000000000006563686F49
:100810003A004572726F723A0020746F6F206C6FED
:100820006E6720657874727573696F6E207072657B
:1008300076656E7465640020636F6C6420657874FF
:10084000727573696F6E2070726576656E7465641B
:1008500000205A3A0020593A0020583A00656E6448
:1008600073746F7073206869743A200024F4D43074
:1008700050C38E20C2A24017828B7011127A910D44
:10088000816CD90AA861E108C7586607615143061F
:100890001E4B5D05C145A7041A411104093D98038B
:1008A000713931034036DB0265339102D430540292
:1008B000802E1D02632CEE01752AC501B028A0010F
:1008C000102781018F2564012B244B01E022340184
:1008D000AC211F018D200D01801FFC00841EED0046
:1008E000971DDF00B81CD200E61BC600201BBC0011
:1008F000641AB200B219A8000A19A0006A18990077
:10090000D117910040178B00B516840031167E0078
:10091000B31579003A157300C7146F0058146A00B4
:10092000EE1366008813630025135E00C7125B0098
:100930006C12570015125400C111510070114F0074
:1009400021114B00D61049008D104700461044007D
:1009500002104200C00F4000800F3E00420F3C00DA
:10096000060F3B00CB0E3800930E37005C0E3500AF
:10097000270E3400F30D3200C10D3100900D300010
:10098000600D2E00320D2D00050D2C00D90C2B0012
:10099000AE0C2900850C29005C0C2700350C2700C3
:1009A0000E0C2600E80B2400C40B2400A00B23002F
:1009B0007D0B23005A0B2100390B2100180B20005E
:1009C000F80A1F00D90A1E00BB0A1E009D0A1D005E
:1009D000800A1D00630A1C00470A1B002C0A1B002A
:1009E000110A1A00F7091A00DD091900C4091900D3
:1009F000AB091900920917007B0918006309170059
:100A00004C09160036091600200916000A091500BF
:100A1000F5081500E0081400CC081400B80814000C
:100A2000A4081400900813007D0812006B0813003E
:100A3000580812004608120034081100230811005B
:100A40001208110001081100F0071000E007100063
:100A5000D0071000C0071000B0070F00A10710005A
:100A600091070E0083070F0074070F0065070E0043
:100A700057070E0049070E003B070D002E070E001A
:100A800020070D0013070D0006070D00F9060C00E6
:100A9000ED060D00E0060C00D4060C00C8060C00A4
:100AA000BC060C00B0060C00A4060B0099060C0056
:100AB0008D060B0082060B0077060B006C060B0000
:100AC00061060A0057060B004C060A0042060A009F
:100AD00038060A002E060A0024060A001A060A0032
:100AE0001006090007060A00FD050900F4050900C3
:100AF000EB050900E2050900D9050900D005090048
:100B0000C7050900BE050900B5050800AD050800C8
:100B1000A50509009C050800940508008C0508003F
:100B2000840508007C050800740508006C050700B2
:100B3000650508005D050700560508004E0507001D
:100B40004705070040050800380507003105070084
:100B50002A050700230507001C05060016050700E7
:100B60000F0507000805060002050700FB04060044
:100B7000F5040700EE040600E8040600E20407009E
:100B8000DB040600D5040600CF040600C9040600F5
:100B9000C3040600BD040600B7040600B104050046
:100BA000AC040600A6040600A00405009B04060091
:100BB00095040500900406008A04050085040500DC
:100BC000800406007A040500750405007004050021
:100BD0006B04050066040500610405005C04050063
:100BE00057040500520405004D04050048040500A3
:100BF000430405003E0404003A04050035040500E2
:100C0000300404002C04050027040400230405001C
:100C10001E0404001A040400160405001104040054
:100C20000D04040009040500040404000004040089
:100C3000FC030400F8030400F4030400F0030400C0
:100C4000EC030400E8030400E4030400E0030400F0
:100C5000DC030400D8030400D4030400D003040020
:100C6000CC030400C8030300C503030024F404D923
:100C7000201BC40C5C0E9804C4095F026507710157
:100C8000F405F900FB04B30048048700C1036900C0
:100C90005803550003034500BE023A0084023100A8
:100CA00053022A002902250004022000E4011C004E
:100CB000C8011900AF011700980114008401130046
:100CC000710110006101100051010E0043010D007F
:100CD00036010B002B010B0020010B001501090050
:100CE0000C01090003010800FB000800F3000800E4
:100CF000EB000700E4000600DE000600D800060056
:100D0000D2000600CC000500C7000500C2000500A7
:100D1000BD000400B9000400B5000400B1000400E7
:100D2000AD000400A9000400A5000300A200030018
:100D30009F0004009B000300980003009500020040
:100D400093000300900003008D0002008B0003005D
:100D50008800020086000200840003008100020077
:100D60007F0002007D0002007B000200790002008B
:100D7000770001007600020074000200720001009A
:100D8000710002006F0002006D0001006C000200A3
:100D90006A000100690002006700010066000100AE
:100DA00065000100640002006200010061000100B2
:100DB000600001005F0002005D0001005C000100B6
:100DC0005B0001005A0001005900010058000100B9
:100DD00057000100560001005500010054000100B9
:100DE00053000000530001005200010051000100B7
:100DF000500001004F0001004E0000004E000100B5
:100E00004D0001004C0001004B0000004B000100B0
:100E10004A000100490001004800000048000100AC
:100E200047000100460000004600010045000000A8
:100E300045000100440001004300000043000100A0
:100E4000420000004200010041000000410001009A
:100E5000400001003F0000003F0001003E00000094
:100E60003E0001003D0000003D0001003C0000008C
:100E70003C0000003C0001003B0000003B00010082
:100E80003A0000003A00010039000000390001007A
:100E90003800000038000000380001003700000072
:100EA0003700010036000000360000003600010067
:100EB000350000003500000035000100340000005E
:100EC0003400000034000100330000003300000053
:100ED0003300010032000000320000003200010047
:100EE000310000003100000031000100300000003E
:100EF00030000000300001002F0000002F00000033
:100F00002F0000002F0001002E0000002E00000026
:100F10002E0001002D0000002D0000002D0000001B
:100F20002D0001002C0000002C0000002C0000000F
:100F30002C0001002B0000002B0000002B00000003
:100F40002B0001002A0000002A0000002A000000F7
:100F50002A000100290000002900000029000000EB
:100F600029000000290001002800000028000000DE
:100F700028000000280000002800010027000000D1
:100F800027000000270000002700000027000100C4
:100F900026000000260000002600000026000000B9
:100FA00026000100250000002500000025000000AB
:100FB000250000002500000025000100240000009D
:100FC0002400000024000000240000002400010090
:100FD0002300000023000000230000002300000085
:100FE0002300000023000000230001002200000075
:100FF0002200000022000000220000002200000069
:10100000220001002100000021000000210000005A
:10101000210000002100000021000000210001004B
:101020002000000020000000200000002000000040
:10103000200000002000000020000000200001002F
:101040001F0000001F0000001F0000001F00000024
:101050001F0000001F0000001F0001001E00000014
:101060001E0000001E0000001E00000054656D7090
:10107000657261747572652068656174656420626B
:101080006564207377697463686564206F66662E93
:10109000204D415854454D50207472696767657200
:1010A0006564202121003A20457874727564657268
:1010B000207377697463686564206F66662E204DBF
:1010C000494E54454D502074726967676572656476
:1010D0002021003A20457874727564657220737718
:1010E000697463686564206F66662E204D415854AC
:1010F000454D5020747269676765726564202100F0
:10110000202D20496E76616C696420657874727553
:10111000646572206E756D626572202100504944CD
:10112000204175746F74756E652066696E697368A9
:101130006564212050757420746865206C61737437
:10114000204B702C204B6920616E64204B6420631F
:101150006F6E7374616E74732066726F6D2061625E
:101160006F766520696E746F20436F6E6669677570
:10117000726174696F6E2E68005049442041757425
:101180006F74756E65206661696C65642120746991
:101190006D656F75740020403A006F6B20543A0003
:1011A0006F6B20423A00504944204175746F74754A
:1011B0006E65206661696C6564212054656D70659B
:1011C00072617475726520746F6F2068696768005A
:1011D000204B643A2000204B693A2000204B703AA3
:1011E000200020436C6173736963205049442000E0
:1011F0002054753A2000204B753A2000206D61780C
:101200003A2000206D696E3A200020643A200020C8
:10121000626961733A20001000C90210012C01407C
:1012200001220170011801B0010E01F0010401500A
:1012300002FA00B002F0003003E600D003DC0090B8
:1012400004D2007005C800A006BE000008B400B0BB
:1012500009AA00D00BA000600E960060118C00005F
:1012600015820020197800C01D6E00A0226400B015
:10127000275A00902C500000314600E0343C00100A
:10128000383200903A2800603C1E00A03D140080D7
:101290003E0A00203F000000000A0B02090C0D0E60
:1012A0000807030401000000000000000000000027
:1012B000000000000000000000000000000000002E
:1012C00000000012111000000000000000000000EB
:1012D00000000000000000000000000000010210FB
:1012E0002020080810204010204080020102010840
:1012F00004020101020408102040808040201008F0
:101300000402018004020180402010080402010848
:1013100004020101020408102040800102040810A8
:101320002040800505050507050808080802020297
:10133000020A0A0808040404040101010101010170
:10134000010303030303030303040707070C0C0C47
:101350000C0C0C0C0C02020202060606060606061F
:10136000060B0B0B0B0B0B0B0B00002000230026B6
:101370000029002C002F00320000010000030106AC
:1013800001090100002200250028002B002E003159
:1013900000340002010000050108010B01000021DA
:1013A00000240027002A002D003000330001010036
:1013B00000040107010A014E414E494E4954594962
:1013C0004E46CDCCCC3D0AD7233C17B7D13877CC8D
:1013D0002B329595E6241FB14F0A000020410000F2
:1013E000C84200401C4620BCBE4CCA1B0E5AAEC5AB
:1013F0009D74665B11241FBECFEFD1E2DEBFCDBF6F
:1014000000E00CBF14E0A0E0B2E0EEEBF4ED00E091
:101410000BBF02C007900D92A238B107D9F72EE09A
:10142000A2E8B4E001C01D92A333B207E1F713E1D3
:10143000C4EFD3E100E006C022970109FE010BBF13
:101440000E947A64C23FD10780E00807A9F70E9492
:101450006D5F0C945D6A0C940000EF92FF920F9305
:101460001F93CF93DF931F92CDB7DEB78C017B0123
:10147000460FF70161917F01F801808191814983D5
:101480000E94A669F80180819181019691838083F1
:1014900049814E11EECF0F90DF91CF911F910F91A7
:1014A000FF90EF900895EF92FF920F931F93CF93C9
:1014B000DF931F92CDB7DEB78C017B01460FF80199
:1014C0008081918149830E949E69F70181937F0108
:1014D000F8018081918101969183808349814E1129
:1014E000EECF0F90DF91CF911F910F91FF90EF9072
:1014F00008950F931F93CF93DF93CDB7DEB76A970D
:101500000FB6F894DEBF0FBECDBF80E390E3A0E33B
:10151000B0E08D839E83AF83B88704E610E01A8F16
:10152000098F44E0BE016B5F7F4FCE01499695DF86
:1015300040E16FE67CE0CE0149968FDF40E16FE746
:101540007CE0CE01499689DF40E16FE57CE0CE0189
:10155000499683DF44E067E57CE0CE0149967DDF74
:1015600044E063E57CE0CE01499677DF44E06BE53B
:101570007CE0CE01499671DF44E063E47CE0CE017B
:1015800049966BDF44E06FE87CE0CE01499665DF69
:1015900044E06FE47CE0CE0149965FDF44E06BE419
:1015A0007CE0CE01499659DF44E067E47CE0CE015F
:1015B000499653DF4CE06EE077E0CE0149964DDF6F
:1015C00080EF90E0988F8F8B82ED90E09E8B8D8BDB
:1015D0001C8A1B8A1A8A198A8BEE90E0988B8F8757
:1015E0001E861D861C861B8642E0BE01695E7F4FFB
:1015F000CE01499632DF42E0BE016B5E7F4FCE01E5
:1016000049962BDF42E0BE016D5E7F4FCE014996C9
:1016100024DF42E0BE016F5E7F4FCE0149961DDFA1
:1016200042E0BE01615F7F4FCE01499616DF42E086
:10163000BE01635F7F4FCE0149960FDF42E0BE01DE
:10164000655F7F4FCE01499608DF44E06BEF76E09F
:10165000CE01499602DF44E060EB72E0CE0149968C
:10166000FCDE44E06CEA72E0CE014996F6DE44E02E
:1016700068EA72E0CE014996F0DE80E290E09A8757
:10168000898742E0BE01675F7F4FCE014996E5DE64
:1016900041E06AE277E0CE014996DFDE44E065E6AC
:1016A00072E0CE014996D9DE44E069E672E0CE01EF
:1016B0004996D3DE86E591E3A3E3B0E089839A837C
:1016C000AB83BC831A8F098F44E0BE016F5F7F4FED
:1016D000CE014996C2DEECE0F8E08491882341F027
:1016E0009091C00095FFFCCF8093C6003196F5CF56
:1016F000E6E9F3E08491882341F09091C00095FFE2
:10170000FCCF8093C6003196F5CF8091C00085FF55
:10171000FCCF8AE08093C6006A960FB6F894DEBFCD
:101720000FBECDBFDF91CF911F910F910895CF9341
:10173000DF93CCE0D8E0FE018491882341F09091C2
:10174000C00095FFFCCF8093C6003196F5CFE6E848
:10175000F3E08491882341F09091C00095FFFCCF85
:101760008093C6003196F5CF8091C00085FFFCCFF5
:101770008AE08093C600FE018491ECE0F8E08823C3
:1017800049F09091C00095FFFCCF8093C600319640
:101790008491F5CF40916F0C5091700C6091710C59
:1017A0007091720C8EE793E00E944D144091730C7F
:1017B0005091740C6091750C7091760C8BE793E0EE
:1017C0000E944D144091770C5091780C6091790CE7
:1017D00070917A0C88E793E00E944D1440917B0C45
:1017E00050917C0C60917D0C70917E0C85E793E0AC
:1017F0000E944D148091C00085FFFCCF8AE0809349
:10180000C600FE018491ECE0F8E0882349F0909155
:10181000C00095FFFCCF8093C60031968491F5CF30
:10182000EBE5F3E08491882341F09091C00095FFAF
:10183000FCCF8093C6003196F5CF8091C00085FF24
:10184000FCCF8AE08093C600FE018491ECE0F8E0D2
:10185000882349F09091C00095FFFCCF8093C6008B
:1018600031968491F5CF40917F0C5091800C60911E
:10187000810C7091820C82E593E00E944D1440919E
:10188000830C5091840C6091850C7091860C8FE4D0
:1018900093E00E944D144091870C5091880C609108
:1018A000890C70918A0C8CE493E0F7D740918B0CF3
:1018B00050918C0C60918D0C70918E0C89E493E0AA
:1018C000ECD78091C00085FFFCCF8AE08093C600F2
:1018D000FE018491ECE0F8E0882349F09091C0008B
:1018E00095FFFCCF8093C60031968491F5CFEBE253
:1018F000F3E08491882341F09091C00095FFFCCFE4
:101900008093C6003196F5CF8091C00085FFFCCF53
:101910008AE08093C600FE018491ECE0F8E0882321
:1019200049F09091C00095FFFCCF8093C60031969E
:101930008491F5CF40915F0C5091600C6091610CE7
:101940007091620C82E293E0B9D74091630C5091A0
:10195000640C6091650C7091660C8FE193E0AED7DA
:101960004091670C5091680C6091690C70916A0C01
:101970008CE193E0A3D740916B0C50916C0C60917B
:101980006D0C70916E0C89E193E098D78091C00046
:1019900085FFFCCF8AE08093C600FE018491ECE0D5
:1019A000F8E0882349F09091C00095FFFCCF809328
:1019B000C60031968491F5CFE4EEF2E0849188235D
:1019C00041F09091C00095FFFCCF8093C600319606
:1019D000F5CF8091C00085FFFCCF8AE08093C600E0
:1019E000FE018491ECE0F8E0882349F09091C0007A
:1019F00095FFFCCF8093C60031968491F5CF40913E
:101A0000570C5091580C6091590C70915A0C8BEDF9
:101A100092E043D74091530C5091540C6091550C77
:101A20007091560C88ED92E038D78091C00085FF08
:101A3000FCCF8AE08093C600FE018491ECE0F8E0E0
:101A4000882349F09091C00095FFFCCF8093C60099
:101A500031968491F5CFE5E2F2E08491882341F05C
:101A60009091C00095FFFCCF8093C6003196F5CFD2
:101A70008091C00085FFFCCF8AE08093C600FE0104
:101A80008491ECE0F8E0882349F09091C00095FF44
:101A9000FCCF8093C60031968491F5CF40915B0CCA
:101AA00050915C0C60915D0C70915E0C8CE192E049
:101AB000F4D64091430C5091440C6091450C7091C8
:101AC000460C89E192E0E9D640918F0C5091900C40
:101AD0006091910C7091920C86E192E0EFD640916A
:101AE0004F0C5091500C6091510C7091520C83E14D
:101AF00092E0D3D640914B0C50914C0C60914D0C20
:101B000070914E0C80E192E0C8D64091470C509104
:101B1000480C6091490C70914A0C8DE092E0BDD662
:101B20008091C00085FFFCCF8AE08093C600FE0153
:101B30008491ECE0F8E0882349F09091C00095FF93
:101B4000FCCF8093C60031968491F5CFEBEFF1E0A6
:101B50008491882341F09091C00095FFFCCF809341
:101B6000C6003196F5CF8091C00085FFFCCF8AE09A
:101B70008093C600FE018491ECE0F8E0882349F0F0
:101B80009091C00095FFFCCF8093C6003196849160
:101B9000F5CF40910E0750910F076091100770919B
:101BA000110782EF91E079D6409112075091130707
:101BB00060911407709115078FEE91E06ED64091F9
:101BC00016075091170760911807709119078CEE4E
:101BD00091E063D68091C00085FFFCCF8AE08093BE
:101BE000C600FE018491ECE0F8E0882349F0909172
:101BF000C00095FFFCCF8093C60031968491F5CF4D
:101C0000EEEDF1E08491882341F09091C00095FFC2
:101C1000FCCF8093C6003196F5CF8091C00085FF40
:101C2000FCCF8AE08093C600FE01C491ECE0F8E0AE
:101C3000CC2349F08091C00085FFFCCFC093C60043
:101C40003196C491F5CF4091B0025091B1026091AC
:101C5000B2027091B30284ED91E01FD66091AC02A4
:101C60007091AD028091AE029091AF020E94C15A74
:101C7000AB01BC0181ED91E010D66091A80270919A
:101C8000A9028091AA029091AB020E94CB5AAB01AB
:101C9000BC018EEC91E001D68091C00085FFFCCFA5
:101CA0008AE08093C600DF91CF910895AF92BF92F2
:101CB000CF92DF92EF92FF920F931F93CF93DF9318
:101CC000CDB7DEB7E0970FB6F894DEBF0FBECDBF3D
:101CD00080E1E4EBF2E0DE01919601900D928A95AD
:101CE000E1F780E1E4ECF2E0DE01519601900D9223
:101CF0008A95E1F780E1E4EDF2E0DE0111960190D2
:101D00000D928A95E1F76E0181E2C80ED11C8FE633
:101D1000E82E8CE0F82E8E010F5E1F4F6FE77CE0FF
:101D2000AE014F5F5F4F9FE5A92E9CE0B92E20E0EA
:101D300030E0F60181919191A191B1916F01F7018C
:101D400081939193A193B1937F01F8018191919136
:101D5000A191B1918F01FB0181939193A193B193D3
:101D6000BF01FA0181919191A191B191AF01F5016A
:101D700081939193A193B1935F012F5F3F4F2430E3
:101D80003105B9F60E94AB4580E090E0A8E4B4E4E8
:101D90008093570C9093580CA093590CB0935A0C05
:101DA0008093530C9093540CA093550CB093560C05
:101DB00010925B0C10925C0C10925D0C10925E0CF9
:101DC00080E29EE4A0E0B0E080938F0C9093900CB2
:101DD000A093910CB093920C1092430C1092440C6F
:101DE0001092450C1092460C80E090E0A0E0B0E428
:101DF00080934F0C9093500CA093510CB093520CC5
:101E00008DEC9CECACECBEE380934B0C90934C0CB3
:101E1000A0934D0CB0934E0C80E090E0A0EAB0E4AB
:101E20008093470C9093480CA093490CB0934A0CB4
:101E300010921607109217071092180710921907A0
:101E400010921207109213071092140710921507A0
:101E500010920E0710920F071092100710921107A0
:101E60008BE794E1A2E8B1E48093B0029093B102D1
:101E7000A093B202B093B30261E77DE38AE89FE3E7
:101E80000E94BB5A6093AC027093AD028093AE0285
:101E90009093AF0263E373E384E792E40E94C65A2F
:101EA0006093A8027093A9028093AA029093AB0258
:101EB0000E94415080E090E0A0E8BFE38093A4023C
:101EC0009093A502A093A602B093A70210922A07AE
:101ED00080E090E0A0E4B0E4809365029093660215
:101EE000A0936702B09368028093690290936A029C
:101EF000A0936B02B0936C020E948A1FECE0F8E0A2
:101F00008491882341F09091C00095FFFCCF80938D
:101F1000C6003196F5CFE2E9F1E08491882341F0E3
:101F20009091C00095FFFCCF8093C6003196F5CF0D
:101F30008091C00085FFFCCF8AE08093C600E096C8
:101F40000FB6F894DEBF0FBECDBFDF91CF911F91CA
:101F50000F91FF90EF90DF90CF90BF90AF900895DA
:101F6000CF93DF93CDB7DEB76A970FB6F894DEBF95
:101F70000FBECDBF84E690E09A8F898F86E591E30E
:101F8000A3E3B0E089839A83AB83BC8344E0BE01C2
:101F90006B5F7F4FCE01499686DA43E050E0BE0189
:101FA0006B5F7F4FCE0101960E947467892B09F009
:101FB000D2C040E16FE67CE0CE01499674DA40E1A0
:101FC0006FE77CE0CE0149966EDA40E16FE57CE098
:101FD000CE01499668DA0E94AB4544E067E57CE0B3
:101FE000CE01499660DA44E063E57CE0CE01499693
:101FF0005ADA44E06BE57CE0CE01499654DA44E0DD
:1020000063E47CE0CE0149964EDA44E06FE87CE080
:10201000CE01499648DA44E06FE47CE0CE0149966F
:1020200042DA44E06BE47CE0CE0149963CDA44E0DD
:1020300067E47CE0CE01499636DA4CE06EE077E06A
:10204000CE01499630DA42E0BE01695E7F4FCE0193
:10205000499629DA42E0BE016B5E7F4FCE01499678
:1020600022DA42E0BE016D5E7F4FCE0149961BDA57
:1020700042E0BE016F5E7F4FCE01499614DA42E026
:10208000BE01615F7F4FCE0149960DDA42E0BE018D
:10209000635F7F4FCE01499606DA42E0BE01655F7D
:1020A0007F4FCE014996FFD944E06BEF76E0CE0139
:1020B0004996F9D944E060EB72E0CE014996F3D934
:1020C00044E06CEA72E0CE014996EDD944E068EA5A
:1020D00072E0CE014996E7D942E0BE01675F7F4FCB
:1020E000CE014996E0D941E06AE277E0CE01499617
:1020F000DAD944E065E672E0CE014996D4D944E0ED
:1021000069E672E0CE014996CED90E948A1F0E94EC
:102110004150ECE0F8E08491882341F09091C000B8
:1021200095FFFCCF8093C6003196F5CFE4EBF1E04C
:102130008491882341F09091C00095FFFCCF80935B
:10214000C6003196F5CF8091C00085FFFCCF8AE0B4
:102150008093C60001C0AADD6A960FB6F894DEBF70
:102160000FBECDBFDF91CF9108951F920F920FB692
:102170000F9211240BB60F922F933F934F935F93BF
:102180006F938F939F93EF93FF936091C60020917D
:10219000030530910405C90101968F779927409175
:1021A0000505509106058417950741F0F901ED5793
:1021B000FB4F60839093040580930305FF91EF919B
:1021C0009F918F916F915F914F913F912F910F90C0
:1021D0000BBE0F900FBE0F901F9018959A01AB0188
:1021E000211581EE38074105510549F182E08093C0
:1021F000C00060E079E08DE390E00E9448642150E7
:10220000310941095109CA01B90122E030E040E039
:1022100050E00E9448643093C5002093C400809130
:10222000C10080618093C1008091C100886080936B
:10223000C1008091C10080688093C1000895109210
:10224000C00020E130E0E7CF209105053091060580
:1022500080910305909104058217930771F0F901AD
:10226000ED57FB4F80812F5F3F4F2F773327309300
:1022700006052093050590E008958FEF9FEF0895E0
:1022800080910505909106059093040580930305C0
:1022900008954F925F926F927F928F929F92AF922A
:1022A000BF92CF92DF92EF92FF920F931F93CF9343
:1022B000DF93CDB7DEB7A0970FB6F894DEBF0FBEA1
:1022C000CDBF5C014115510561057105E9F420E0C0
:1022D00030E040E350E060E070E0A0960FB6F89484
:1022E000DEBF0FBECDBFDF91CF911F910F91FF9049
:1022F000EF90DF90CF90BF90AF909F908F907F90A6
:102300006F905F904F905BC08E010F5F1F4FC12C8D
:10231000D12C76014801422E512C612C712C8FEF6B
:10232000C81AD80AE80AF80ACB01BA01A301920137
:102330000E942664CA01F80161938F01A901BC01C2
:10234000411551056105710551F7F1E0CF1AD1082A
:10235000E108F108F401EC0DFD1D80818A3010F4D4
:1023600040E301C047E3480F552747FD5095652FCF
:10237000752F20E030E0C50122D081E0C81AD108D5
:10238000E108F108EFEFCE16DE06EE06FE0611F7C5
:10239000A0960FB6F894DEBF0FBECDBFDF91CF91F0
:1023A0001F910F91FF90EF90DF90CF90BF90AF9073
:1023B0009F908F907F906F905F904F900895211520
:1023C000310539F48091C00085FFFCCF4093C600F1
:1023D00008952A30310509F41CC05BCFCF93DF93F9
:1023E000EC0120E030E04DE050E060E070E0E7DF3D
:1023F00020E030E04AE050E060E070E0CE01DF91A4
:10240000CF91DDCF9A01AB01662757FD6095762FFE
:10241000D6CFCF92DF92EF92FF92CF93DF93EC0172
:102420006A017B0177FF0FC020E030E04DE250E011
:1024300060E070E0C4DFF094E094D094C094C11CDC
:10244000D11CE11CF11C2AE0B701A601CE01DF91ED
:10245000CF91FF90EF90DF90CF901BCF21153105EA
:1024600039F48091C00085FFFCCF4093C6000895E9
:1024700010CF9A01462F50E060E070E0EFCFCF938D
:10248000DF93EC019A01AB0160E070E0E7DFCE0181
:10249000DF91CF91A3CF8F929F92AF92BF92CF92B5
:1024A000DF92EF92FF921F93CF93DF93EC016A01CB
:1024B0007B01122F20E030E0A901C701B6010E9484
:1024C000556087FF0CC020E030E04DE250E060E056
:1024D00070E0CE0174DFF7FAF094F7F8F094B12CC5
:1024E00060E070E080E09FE3B11641F020E030E072
:1024F00040E251E40E945C60B394F6CF9B01AC01D2
:10250000C701B6010E947C5F6B017C010E94C9601B
:102510004B015C010E94F5609B01AC01C701B60153
:102520000E947B5F6B017C012AE0B501A401CE0112
:10253000B0DE112361F0EAE6F4E08191882339F0FE
:102540009091C00095FFFCCF8093C600F6CF112379
:1025500019F120E030E040E251E4C701B6010E94E9
:102560002A636B017C010E94C4604B01AA2497FC82
:10257000A094BA2CB501A401CE014BDFC501B40172
:102580000E94F7609B01AC01C701B6010E947B5F0E
:102590006B017C011150DBCFDF91CF911F91FF9038
:1025A000EF90DF90CF90BF90AF909F908F90089565
:1025B00072CFFC01659175918591949108952F9248
:1025C0003F924F925F926F927F928F929F92AF92C3
:1025D000BF92CF92DF92EF92FF920F931F93CF9310
:1025E000DF9300D000D0CDB7DEB71C01FC01E35370
:1025F000F84F14919C01220F331F220F331F3E838B
:102600002D83265E384F4901F90110821182128212
:10261000138226E237E042E257E06EE177E08AE19A
:1026200097E00E94E0448D819E818452984FC1DFE3
:102630006B017C01612F772767FD7095872F972F9E
:102640000E94F7602B013C012D813E812553394FBB
:10265000590120E030E040EC5FE3C701B6010E9481
:102660002A63A30192010E942A63F50160837183AA
:10267000828393832D813E812B583D4F3C832B8356
:10268000F901608171818281938160930B02709363
:102690000C0280930D0290930E0220E030E040E7A0
:1026A00052E40E945C602AEEC22E26E0D22E7B010C
:1026B0008C0127ED36E043ED56E06FEC76E08BECD5
:1026C00096E00E94683A0E94C04DF4011082118287
:1026D0001282138226E237E042E257E06EE177E0B1
:1026E0008AE197E00E94E0442D813E812053384FDB
:1026F0003A832983C9015DDF9058A30192010E94AA
:102700002A63F501608371838283938320E030E044
:1027100040E752E460910B0270910C0280910D022F
:1027200090910E020E945C607B018C0127ED36E0E7
:1027300043ED56E06FEC76E08BEC96E00E94683A51
:102740000E94C04D89819A8134DF9B01AC010E94B7
:102750007C5FA30192010E942A63F501608371836B
:102760008283938320E030E040E85EE3EB81FC81EC
:1027700060817181828193810E942A6360930B0240
:1027800070930C0280930D0290930E0220E030E0D3
:1027900040E752E40E945C607B018C0127ED36E04B
:1027A00043ED56E06FEC76E08BEC96E00E94683AE1
:1027B0000E94C04D8D819E818851984FFADE0D8117
:1027C0001E81025F184FF8012081318142815381BF
:1027D0000E947C5FF40160837183828393838D8187
:1027E0009E818050984FE5DE2D813E812E5F384FCF
:1027F0007901F80120813181428153810E947C5FFF
:10280000F70160837183828393838D819E818C50D5
:10281000984FCFDE2D813E812F5A3D4F7901F8012F
:1028200020813181428153810E947C5FF701608366
:10283000718382839383F40180819181A281B3812A
:10284000F50180839183A283B38310920B021092CF
:102850000C0210920D0210920E020E948246F101AB
:10286000E150F94F81E0808326960FB6F894DEBFE1
:102870000FBECDBFDF91CF911F910F91FF90EF90D1
:10288000DF90CF90BF90AF909F908F907F906F9090
:102890005F904F903F902F900895FC012491222348
:1028A00041F03091C00035FFFCCF2093C600019667
:1028B000F4CF22E030E082E894E07ACEFC0124916B
:1028C000222341F03091C00035FFFCCF2093C60099
:1028D0000196F4CF2AE030E082E894E0BFCDCF93B8
:1028E000DF931F921F92CDB7DEB780912D0E90918E
:1028F0002E0E9E012F5F3F4F009719F423533E4049
:1029000002C0281B390B3A83298389819A810F9051
:102910000F90DF91CF910895859A8D980895E7E003
:10292000F1E080818B7F80839FB7F894E8E0F1E04D
:1029300080818B7F80839FBF0895EEDFF0DF40E0D2
:1029400052EC61E070E082E894E048DCE7ECF7E00C
:102950008491882341F09091C00095FFFCCF809333
:10296000C6003196F5CF8091C00085FFFCCF8AE08C
:102970008093C6008CE098E0FC012491222341F072
:102980003091C00035FFFCCF2093C6003196F5CFC3
:1029900024B720FF14C0EFEBF7E03491332341F06C
:1029A0004091C00045FFFCCF3093C6003196F5CF73
:1029B0003091C00035FFFCCF3AE03093C60021FFD4
:1029C00014C0EFEAF7E03491332341F04091C000A6
:1029D00045FFFCCF3093C6003196F5CF3091C00053
:1029E00035FFFCCF3AE03093C60022FF14C0EEE979
:1029F000F7E03491332341F04091C00045FFFCCF14
:102A00003093C6003196F5CF3091C00035FFFCCF32
:102A10003AE03093C60023FF14C0EEE8F7E03491AB
:102A2000332341F04091C00045FFFCCF3093C600F6
:102A30003196F5CF3091C00035FFFCCF3AE03093AE
:102A4000C60025FF14C0EEE7F7E02491222341F0F1
:102A50003091C00035FFFCCF2093C6003196F5CFF2
:102A60002091C00025FFFCCF2AE02093C60014BEB1
:102A7000E7E7F7E02491222341F03091C00035FFD1
:102A8000FCCF2093C6003196F5CFE1E7F7E0249123
:102A9000222341F03091C00035FFFCCF2093C600C7
:102AA0003196F5CF2091C00025FFFCCF2AE020937E
:102AB000C600FC012491ECE0F8E0222349F03091BB
:102AC000C00035FFFCCF2093C60031962491F5CF8E
:102AD000E1E6F7E02491222341F03091C00035FF78
:102AE000FCCF2093C6003196F5CFECE4F7E02491BB
:102AF000222341F03091C00035FFFCCF2093C60067
:102B00003196F5CFE0E4F7E02491222341F03091B3
:102B1000C00035FFFCCF2093C6003196F5CFE1E32E
:102B2000F7E02491222341F03091C00035FFFCCF23
:102B30002093C6003196F5CF2091C00025FFFCCF31
:102B40002AE02093C600E6E2F7E02491222341F038
:102B50003091C00035FFFCCF2093C6003196F5CFF1
:102B6000EAE1F7E02491222341F03091C00035FFE3
:102B7000FCCF2093C6003196F5CF2091C00025FFF1
:102B8000FCCF2AE02093C600FC018491ECE0F8E041
:102B9000882349F09091C00095FFFCCF8093C60038
:102BA00031968491F5CFEBE0F7E08491882341F0F2
:102BB0009091C00095FFFCCF8093C6003196F5CF71
:102BC0008EDE4AE050E0BC0182E894E01BDCE4EFDA
:102BD000F6E08491882341F09091C00095FFFCCFEE
:102BE0008093C6003196F5CF4AE050E060ED74E086
:102BF00082E894E007DC8091C00085FFFCCF8AE08A
:102C00008093C60010922605109227051092280581
:102C100010922905A5D98091FB069091FC06A09100
:102C2000FD06B091FE068093160790931707A093B8
:102C30001807B09319070E94F8520E9402390E94A7
:102C40003D4DFFEF23ED80E3F15020408040E1F760
:102C500000C00000089580911A0590911B0560E066
:102C600070E001960C948D6480911A0590911B057B
:102C70004AE050E060E070E001960C94F565682F42
:102C8000772767FD7095209124053091250540E652
:102C9000429FC001439F900D1124865D9A4F0E9470
:102CA000606790931B0580931A0521E0892B09F436
:102CB00020E0822F08958F929F92AF92BF92CF9281
:102CC000DF92EF92FF920F931F93CF93DF9300D089
:102CD0001F92CDB7DEB78091500224E0829FC001E1
:102CE0001124BC01605C7D4FF0E5CF2EF2E0DF2EB9
:102CF000E12CF12C08EC12E426E237E042E257E046
:102D0000885B9D4F0E94683A80915002E0901002CB
:102D1000F0901102009112021091130224E0829FA0
:102D2000C0011124BC01605D7D4F26E237E042E224
:102D300057E0885C9D4F0E94683A80915002E09075
:102D40001002F0901102009112021091130224E07F
:102D5000829FC0011124BC01605E7D4F26E237E0F6
:102D600042E257E0885C9D4F0E94683A8091500291
:102D7000E0901002F09011020091120210911302E3
:102D800024E0829FC0011124BC01605E7D4F26E2D9
:102D900037E042E257E0885D9D4F0E94683A80919B
:102DA0005002E0901002F090110200911202109176
:102DB000130224E0829FC0011124BC01605C7D4F9E
:102DC00026E237E042E257E0885B9D4F0E94683A76
:102DD00080915002E0901002F090110200911202D6
:102DE0001091130224E0829FC0011124BC01605D98
:102DF0007D4F26E237E042E257E0885C9D4F0E941B
:102E0000683A80915002E0901002F0901102009117
:102E100012021091130224E0829FC0011124BC0110
:102E2000605E7D4F26E237E042E257E0885C9D4FCE
:102E30000E94683A80915002E0901002F0901102D6
:102E4000009112021091130224E0829FC00111240C
:102E5000BC01605E7D4F26E237E042E257E0885DCC
:102E60009D4F0E94683A8091EA0624E0829FC0014B
:102E70001124BC01605C7D4FBAEECB2EB6E0DB2E98
:102E8000E12CF12C08EC12E426E237E042E257E0B4
:102E9000885B9D4F0E94683A8091EA06E09010029C
:102EA000F0901102009112021091130224E0829F0F
:102EB000C0011124BC01605D7D4F26E237E042E293
:102EC00057E0885C9D4F0E94683AC0902607D090DA
:102ED0002707E0902807F090290720E030E040E73E
:102EE00051ECC701B6010E945862B090EA0618166C
:102EF0000CF04CC020E030E0A901C701B6010E94EF
:102F0000556087FF43C080911C0290911D02A091E3
:102F10001E02B0911F028093E4069093E506A093F1
:102F2000E606B093E706CB2CD12C20E030E040E75A
:102F300052E4609118027091190280911A029091E6
:102F40001B020E945C607B018C01C601880F991FE7
:102F5000880F991FBC01605D7D4FEAEECE2EE6E042
:102F6000DE2E24EE36E042E257E0885C9D4F0E9460
:102F7000683A10922607109227071092280710929D
:102F8000290786E297E00E9485452FC020911C0208
:102F900030911D0240911E0250911F02C701B601DF
:102FA0000E947C5F6093E4067093E5068093E606DA
:102FB0009093E706E0901802F090190200911A022F
:102FC00010911B0224E0B29EC0011124BC01605D7F
:102FD0007D4F4AEEC42E46E0D42E24EE36E042E287
:102FE00057E0885C9D4F0E94683A8090180290904C
:102FF0001902A0901A02B0901B0220E030E040E8D5
:103000005FE36091260770912707809128079091D0
:1030100029070E947B5F69837A838B839C838091DD
:10302000EA0624E0829FC0011124BC01605D7D4F4F
:103030003AEEC32E36E0D32E850174019E012F5F38
:103040003F4F42E257E0885C9D4F0E94683A20E083
:1030500030E040E85FE36091260770912707809198
:103060002807909129070E947B5F60932607709341
:103070002707809328079093290786E297E00E940C
:1030800085458091EA06E0901002F09011020091CF
:1030900012021091130224E0829FC0011124BC018E
:1030A000605E7D4F26E237E042E257E0885C9D4F4C
:1030B0000E94683A8091EA06E0901002F0901102B6
:1030C000009112021091130224E0829FC00111248A
:1030D000BC01605E7D4F26E237E042E257E0885D4A
:1030E0009D4F0E94683A0F900F900F900F90DF91C4
:1030F000CF911F910F91FF90EF90DF90CF90BF90F5
:10310000AF909F908F9008950E940A5D609316057E
:10311000709317058093180590931905EBE3F4E07D
:103120008491882341F09091C00095FFFCCF80935B
:10313000C6003196F5CF8091C00085FFFCCF8AE0B4
:103140008093C600089582E894E09AD8EEE3F4E014
:103150008491882341F09091C00095FFFCCF80932B
:10316000C6003196F5CF4091AF065091B006609100
:10317000B1067091B2064F5F5F4F6F4F7F4F2AE0ED
:1031800030E082E894E01BD98091C00085FFFCCF3D
:103190008AE08093C600B8CF8F929F92AF92BF9281
:1031A000CF92DF92EF92FF920F931F93CF93DF9313
:1031B00037E1E32E34E0F32E0AE117E0CBECD6E062
:1031C0004DE2C42E47E0D42EF70181917F0157DDF7
:1031D000882311F140DD4B015C01F60180818111F2
:1031E00003C06091AA0601C061E070E080E090E059
:1031F0000E94F760F80120813181428153810E9451
:103200002A639B01AC01C501B4010E947C5F688305
:1032100079838A839B8309C0F80180819181A2818F
:10322000B38188839983AA83BB830C5F1F4F249645
:10323000FFEFCF1ADF0A8BE1E81684E0F80621F6EB
:1032400086E41DDD8823D1F006DD6B017C016093EF
:10325000BB067093BC068093BD069093BE0620E02B
:1032600030E0A9010E945862181644F4C0920B0283
:10327000D0920C02E0920D02F0920E02DF91CF91FB
:103280001F910F91FF90EF90DF90CF90BF90AF9084
:103290009F908F90089580DF89E4F1DC882351F0BE
:1032A000DADC6093BF067093C0068093C1069093EA
:1032B000C20608C01092BF061092C0061092C10646
:1032C0001092C2068AE4DBDC882351F0C4DC6093F0
:1032D000C3067093C4068093C5069093C6060895EE
:1032E0001092C3061092C4061092C5061092C6062C
:1032F0000895CF92DF92EF92FF92CF93DF93EC018C
:10330000C0900207D0900307E0900407F0900507F3
:10331000A7019601688179818A819B810E9455600D
:1033200087FF04C0C882D982EA82FB82C090060768
:10333000D0900707E0900807F0900907A7019601D1
:103340006C817D818E819F810E94556087FF04C0C2
:10335000CC82DD82EE82FF8220E030E0A901609124
:103360000A0770910B0780910C0790910D070E943E
:103370007C5F6B017C019B01AC01688579858A8546
:103380009B850E94556087FF04C0C886D986EA865F
:10339000FB86C0905102D0905202E0905302F09010
:1033A0005402A7019601688179818A819B810E94DC
:1033B0005862181624F4C882D982EA82FB82C0902F
:1033C0005502D0905602E0905702F0905802A701A3
:1033D00096016C817D818E819F810E9458621816B2
:1033E00024F4CC82DD82EE82FF82C0905902D0901C
:1033F0005A02E0905B02F0905C02A701960168859A
:1034000079858A859B850E945862181624F4C8869F
:10341000D986EA86FB86DF91CF91FF90EF90DF900F
:10342000CF900895CF92DF92EF92FF920F931F9368
:103430008BEC96E05EDF0E940A5D60931605709348
:10344000170580931805909319052091CB063091AC
:10345000CC064091CD065091CE0660911A0770912E
:103460001B0780911C0790911D070E9455608111D8
:1034700079C02091CF063091D0064091D10650916D
:10348000D20660911E0770911F07809120079091CE
:1034900021070E945560811165C020E030E040E7BF
:1034A00052E460910B0270910C0280910D02909198
:1034B0000E020E945C605AEEC52E56E0D52E7B01AE
:1034C0008C0127ED36E043ED56E06FEC76E08BECB7
:1034D00096E00E94683A8091CB069091CC06A0912C
:1034E000CD06B091CE0680931A0790931B07A09348
:1034F0001C07B0931D078091CF069091D006A09134
:10350000D106B091D20680931E0790931F07A09317
:103510002007B09321078091D3069091D406A09103
:10352000D506B091D6068093220790932307A093E7
:103530002407B09325078091D7069091D806A091D3
:10354000D906B091DA068093260790932707A093B7
:103550002807B09329071F910F91FF90EF90DF90FC
:10356000CF9008956091730270917402882777FD5F
:103570008095982F0E94F76020910B0230910C02E9
:1035800040910D0250910E020E942A6320E030E02B
:1035900040E752E40E945C6020E030E048EC52E4F6
:1035A00088CFAF92BF92CF92DF92EF92FF920F93AC
:1035B0001F93CF93DF93D82F2091C3063091C40679
:1035C0004091C5065091C6066091BF067091C00635
:1035D0008091C1069091C2060E946562C62F172F86
:1035E000082FF92E6091730270917402882777FD7D
:1035F0008095982F0E94F76020910B0230910C0269
:1036000040910D0250910E020E942A6320E030E0AA
:1036100040E752E40E945C6020E030E048EC52E475
:103620000E945C602091EA062F93DF93FF920F9334
:103630001F93CF935B016C0162E0E62E01E020E076
:103640004FEB56E06BEC76E08AE197E00E94DA31CE
:103650008091CB069091CC06A091CD06B091CE067C
:1036600080931A0790931B07A0931C07B0931D0724
:103670008091CF069091D006A091D106B091D2064C
:1036800080931E0790931F07A0932007B0932107F4
:103690008091D3069091D406A091D506B091D6061C
:1036A0008093220790932307A0932407B0932507C4
:1036B0008091D7069091D806A091D906B091DA06EC
:1036C0008093260790932707A0932807B093290794
:1036D0000E940A5D60931605709317058093180584
:1036E000909319050F900F900F900F900F900F90DF
:1036F000DF91CF911F910F91FF90EF90DF90CF90CE
:10370000BF90AF900895F8940E94F8535F9A10927A
:10371000FF068A9A109200079FB7F89480910801DB
:103720008160809308019FBF10920107129A479A07
:1037300060E08CE00E94D65EE2E1F8E084918823AC
:1037400041F09091C00095FFFCCF8093C600319668
:10375000F5CFECE1F4E08491882341F09091C00032
:1037600095FFFCCF8093C6003196F5CF8091C000C5
:1037700085FFFCCF8AE08093C6007894C6E0D0E055
:10378000219739F068EC70E080E090E00E94395DAC
:10379000F7CFF894FFCF4F925F926F927F928F9204
:1037A0009F92BF92CF92DF92EF92FF920F931F935F
:1037B000CF93DF9370E6D72E04E010E0E3EDEE2E1A
:1037C000E5E0FE2EFAE0CF2EBB24B39480910305F2
:1037D000909104052091050530910605821B930BFD
:1037E0008F779927892B09F412C280912005909137
:1037F000210504970CF00BC282E894E00E9424118A
:1038000080931F0520911D0530911E058A3061F0BF
:103810008D3051F08A3321F490911C05992321F0C9
:103820002F3531050CF419C12115310519F4109209
:103830001C05EDC18091220590912305D89E400181
:10384000D99E900C1124F401E20FF31FE65DFA4FAC
:10385000108220911C052111FBC0FC01EA5DFA4F8A
:103860001082E401C65DDA4F6EE470E0CE010E9482
:1038700060670097F1F190931B0580931A058C1BEC
:103880009D0B880D991D4AE050E060E070E0855D79
:103890009A4F0E94F5656093B3067093B4068093C7
:1038A000B5069093B6064090AF065090B006609073
:1038B000B1067090B2062FEF421A520A620A720ADB
:1038C000C0912205D09123056415750586059705DD
:1038D00009F4E1C0DC9EC001DD9E900D11246FEE65
:1038E00076E0865D9A4F0E944667892B09F0D3C027
:1038F00061C16AE270E0CE010E946067892B09F421
:1039000044C0E2E1F8E08491882341F09091C00046
:1039100095FFFCCF8093C6003196F5CFE9E4F6E041
:103920008491882341F09091C00095FFFCCF809353
:10393000C6003196F5CF4091AF065091B006609128
:10394000B1067091B2062AE030E082E894E00E946D
:10395000DF118091C00085FFFCCF8AE08093C60014
:1039600010921E0510921D0552C18091B3069091D0
:10397000B406A091B506B091B6068093AF069093B9
:10398000B006A093B106B093B20680912205909143
:103990002305D89EE001D99ED00D1124CE01865D6D
:1039A0009A4F4C0167E470E00E946067009761F1F4
:1039B00090931B0580931A05881999098C0F9D1FF8
:1039C00060E070E0855D9A4F0E948D640E94C46043
:1039D00064307105C8F4809108058823A9F0F701C7
:1039E0008491E3EDF5E0882349F09091C00095FFC4
:1039F000FCCF8093C60031968491F5CF8091C000B2
:103A000085FFFCCFC092C600C0912205D09123054E
:103A1000DC9EC001DD9E900D112464EE72E0865D97
:103A20009A4F0E946B67892B09F46DDECE010196D7
:103A3000B8010E941364909323058093220580911E
:103A400020059091210501969093210580932005F2
:103A500010921E0510921D05B9CE8B3311F4B09251
:103A60001C0590911C059111B1CE409122055091F9
:103A70002305B9016F5F7F4F70931E0560931D058D
:103A8000D49EF001D59EF00D1124E20FF31FE65DE8
:103A9000FA4F80839BCEDC9E4001DD9E900C11246A
:103AA000C401865D9A4F3C016AE270E00E94606743
:103AB000009789F5E2E1F8E08491882341F0909144
:103AC000C00095FFFCCF8093C6003196F5CFE3E7A9
:103AD000F6E08491882341F09091C00095FFFCCFDF
:103AE0008093C6003196F5CF4091AF065091B00655
:103AF0006091B1067091B2062AE030E082E894E06D
:103B00000E94DF118091C00085FFFCCF8AE0809386
:103B1000C60019DB25CF20E0C0E0F401E20FF11D63
:103B2000E65DFA4F30813A3219F02F5FC327F5CFA7
:103B300090931B0580931A0586199709880D991D86
:103B400060E070E0855D9A4F0E948D640E94C460C1
:103B5000D0E0C617D70709F408CFE2E1F8E0849176
:103B6000882341F09091C00095FFFCCF8093C60060
:103B70003196F5CFEDE9F6E08491882341F09091FC
:103B8000C00095FFFCCF8093C6003196F5CF4091E1
:103B9000AF065091B0066091B1067091B2062AE06E
:103BA00030E082E894E00E94DF118091C00085FF40
:103BB000FCCFACCFE2E1F8E08491882341F0909112
:103BC000C00095FFFCCF8093C6003196F5CFECEB9B
:103BD000F6E08491882341F09091C00095FFFCCFDE
:103BE0008093C6003196F5CF4091AF065091B00654
:103BF0006091B1067091B2062AE030E082E894E06C
:103C00000E94DF118091C00085FFFCCF7FCFDF9144
:103C1000CF911F910F91FF90EF90DF90CF90BF90C9
:103C20009F908F907F906F905F904F900895CF926C
:103C3000DF92EF92FF920F931F93CF93C82F809143
:103C400020059091210503970CF4A5DD0E940A5DE3
:103C5000009112051091130520911405309115055E
:103C6000C0901605D0901705E0901805F090190542
:103C70006C197D098E099F09061717072807390750
:103C800028F4012B022B032B09F03DDD40910702A4
:103C9000509108026091090270910A02452B462B4F
:103CA000472B19F10E940A5D009116051091170526
:103CB0002091180530911905601B710B820B930B35
:103CC00000910702109108022091090230910A0226
:103CD000061717072807390740F490913A07809193
:103CE0003907981302C0CC2349F0CF911F910F914F
:103CF000FF90EF90DF90CF900C944B3A5F9A109228
:103D0000FF068A9A109200079FB7F89480910801E5
:103D10008160809308019FBF10920107129A479A11
:103D2000E4CF0E94F85380910805811134C081E0EE
:103D3000809308058091AF069091B006A091B106DE
:103D4000B091B2068093AB069093AC06A093AD06FB
:103D5000B093AE06E2E1F8E08491882341F09091BF
:103D6000C00095FFFCCF8093C6003196F5CFE6EA00
:103D7000F3E08491882341F09091C00095FFFCCF3F
:103D80008093C6003196F5CF8091C00085FFFCCFAF
:103D90008AE08093C6000895809108050895CF9326
:103DA000DF93EC018091EA068093090584E50E9487
:103DB0003F16811102C080E075C00E942B160E9440
:103DC000C960609309056230B0F3ECE0F8E08491DB
:103DD000882341F09091C00095FFFCCF8093C600EE
:103DE0003196F5CFCD36D105B9F054F4C836D105AA
:103DF000B1F0C936D10509F045C0EEE2F3E021C0CB
:103E0000CA3DD10531F0CD3DD105E1F5E9EEF2E055
:103E100036C0E0E0F3E029C0E7E1F3E01CC0E5E4F0
:103E2000F3E08191882371F19091C00095FFFCCF60
:103E30008093C600F6CF9091C00095FFFCCF809391
:103E4000C60081918111F7CF1DC09091C00095FFF0
:103E5000FCCF8093C60081918111F7CF13C0909160
:103E6000C00095FFFCCF8093C60081918111F7CFF0
:103E700009C09091C00095FFFCCF8093C60081914E
:103E80008111F7CF40E050E06091090582E894E0AD
:103E90000E9439128091C00085FFFCCF8AE0809398
:103EA000C60081E0DF91CF910895CF92DF92EF922B
:103EB000FF9220912A072223F1F020E030E040E039
:103EC0005FE30E942A636B017C0120E030E0A901DE
:103ED0000E945560882379F0A7019601C701B601B9
:103EE0000E942A632BED3FE049E450E40E942A63DC
:103EF0009B01AC0104C020E030E040E85FE360E0FB
:103F000070E080E89FE30E945C60FF90EF90DF909C
:103F1000CF9008956091650270916602809167026A
:103F200090916802C2DF60935D0270935E0280939D
:103F30005F02909360026091690270916A028091C1
:103F40006B0290916C02B1DF609361027093620228
:103F5000809363029093640208953F924F925F9220
:103F60006F927F928F929F92AF92BF92CF92DF9289
:103F7000EF92FF920F931F93CF93DF93CDB7DEB7EE
:103F8000A0970FB6F894DEBF0FBECDBF87E40E94A6
:103F90003F16882309F418C20E942B160E94C460A1
:103FA0006430710509F43BC044F46230710519F1C5
:103FB00064F577FF17C00C941E306A35710509F45B
:103FC000AFC134F46C31710509F46BC00C941E3030
:103FD0006B35710509F4A8C16C35710509F4A9C1E7
:103FE0000C941E308091080581110C941E30D4D899
:103FF00019DA0C941E308091080581110C941E3042
:104000004AD981E0CEDA0C941E30809108058111E6
:104010000C941E3040D980E0C4DA0C941E3080E548
:104020000E943F16882339F00E942B160E94C96017
:104030004B015C0103C0812C912C540183E50E944B
:104040003F16882361F00E942B1620E030E04AE7FB
:1040500054E40E942A630E94C9604B015C010E94E3
:10406000C04D0E940A5D6B017C01C80CD91CEA1C82
:10407000FB1C0E940A5D60931605709317058093E0
:104080001805909319050E940A5D6C157D058E0533
:104090009F0510F00C941E300E946B5080E0C7DD2D
:1040A000F2CF80910B0290910C02A0910D02B09181
:1040B0000E028093B7069093B806A093B906B0930A
:1040C000BA06809173029091740290932C078093AA
:1040D0002B0784E690E090937402809373020E9411
:1040E0000A5D6093160570931705809318059093E9
:1040F000190581E00E94894680911A0790911B075B
:10410000A0911C07B0911D078093CB069093CC061D
:10411000A093CD06B093CE0680911E0790911F0705
:10412000A0912007B09121078093CF069093D006ED
:10413000A093D106B093D2068091220790912307D5
:10414000A0912407B09125078093D3069093D406BD
:10415000A093D506B093D6068091260790912707A5
:10416000A0912807B09129078093D7069093D8068D
:10417000A093D906B093DA0610920B0210920C02AB
:1041800010920D0210920E0288E50E943F168823BD
:1041900011F090E00AC089E50E943F168111F9CF25
:1041A0008AE50E943F1691E0982790930F029111A3
:1041B0000C9421308AE50E943F1681110C94213025
:1041C00080910F0281110C94273088E50E943F16E0
:1041D00081110C94273080910F0281110C942D30A5
:1041E00089E50E943F1681110C942D3088E50E94CC
:1041F0003F168823D1F00E943416672B682B692B59
:10420000A1F00E942B1620910E0730910F074091CC
:104210001007509111070E947C5F60931A077093FA
:104220001B0780931C0790931D0789E50E943F168A
:104230008823D1F00E943416672B682B692BA1F0DC
:104240000E942B16209112073091130740911407FA
:10425000509115070E947C5F60931E0770931F07A3
:1042600080932007909321078AE50E943F168823B8
:10427000D1F00E943416672B682B692BA1F00E94A5
:104280002B1620911607309117074091180750916F
:1042900019070E947C5F6093220770932307809325
:1042A00024079093250726E237E042E257E06EE1CB
:1042B00077E08AE197E00E94E04480E00E9489462E
:1042C0008091B7069091B806A091B906B091BA0650
:1042D00080930B0290930C02A0930D02B0930E02F8
:1042E00080912B0790912C07909374028093730216
:1042F0000E940A5D60931605709317058093180558
:10430000909319050E9482460E940A5D60933107CE
:104310007093320780933307909334070C941E30C8
:104320001092AA060C941E3081E08093AA060C9489
:104330001E3085E40E943F16811102C00E94C04DCC
:1043400097E1C92E94E0D92E2EE0E22E27E0F22E3E
:104350000AE117E0B12CF60181916F010E943F162E
:10436000882339F1F3E0BF120CC00E942B16F8012C
:10437000608371838283938386E297E00E94854500
:1043800018C00E942B16F701208131814281538190
:104390000E947C5FF801608371838283938326E2AD
:1043A00037E042E257E06EE177E08AE197E00E9471
:1043B000E044B394F4E0EF0EF11C0C5F1F4F24E0D7
:1043C000B212C9CF0C941E308DE40E943F16882390
:1043D00011F40C94CA2E0E942B160E94C4606C38F3
:1043E000710509F43CC20CF08EC06836710509F401
:1043F00009C20CF04DC06135710509F46DC5E4F4D6
:104400006F31710509F434C154F46131710509F457
:1044100021C16231710509F479C50C941E306A32EC
:10442000710509F4A8C16035710511F00C941E30B6
:10443000269A2E980C941E306435710509F466C5D1
:1044400074F46235710509F45DC56335710511F0C9
:104450000C941E3081E0809330070C941E3065353B
:10446000710509F48CC56C35710511F00C941E3082
:1044700027E134E038A32F8F0FE61CE0BFE78B2E37
:10448000BCE09B2E83E3A82E8CE0B82E312CF2C525
:104490006237710509F41DC6CCF46B36710509F459
:1044A00015C554F46936710509F4EAC16A36710517
:1044B00009F4DCC40C941E306D36710509F40EC38A
:1044C0006037710511F00C941E301DD967377105E6
:1044D00009F4BDC054F46337710509F4DDC56537CF
:1044E000710509F4E7C50C941E306837710509F4AD
:1044F000CFC66937710511F00C941E3081E00E941F
:1045000089460C941E306D3231E0730711F40C941F
:104510006E2C0CF03DC06D3C710511F40C94BB2A5F
:10452000CCF4693C710509F4CAC754F46E3B7105BB
:1045300009F49BC3683C710509F430C70C941E3024
:104540006B3C710509F4DBC76C3C710509F4F3C7DA
:104550000C941E306C3D710511F40C94E02B64F446
:104560006E3C710511F40C94192B6A3D710511F420
:104570000C94452B0C941E306D3D710511F40C9478
:10458000EF2B623E710511F40C94152C0C941E3027
:10459000663F91E0790711F40C94802D1CF5603989
:1045A000F1E07F0711F40C947A2D6CF46E3231E057
:1045B000730711F40C94342D6F32714011F40C9484
:1045C000422D0C941E30643F91E0790711F40C9455
:1045D0007D2D653F714011F00C941E300E94B00F8C
:1045E0000C941E30643EF3E07F0711F40C945B2EB4
:1045F0006CF4673F31E0730711F40C94832D63353D
:10460000734011F40C94862D0C941E30663E93E09A
:10461000790711F40C947D2E673E734011F00C94D1
:104620001E30109208058091AB069091AC06A091C7
:10463000AD06B091AE068093AF069093B006A093FE
:10464000B106B093B2060E94A3180C941E30EBE69C
:10465000F3E028C65F988A989FB7F8948091080184
:104660008E7F809308019FBF129847980C941E304C
:104670000E940A5D60930A0570930B0580930C05F8
:1046800090930D0500910E0510910F0520911005D6
:1046900030911105601B710B820B930B28EE33E0F8
:1046A00040E050E00E942664CA01B9012CE330E0EA
:1046B00040E050E00E9426647F936F933F932F93D6
:1046C00084EC95E09F938F93CE0101969F938F93F7
:1046D0000E948267ECE0F8E084910FB6F894DEBFA8
:1046E0000FBECDBF882349F09091C00095FFFCCF4D
:1046F0008093C60031968491F5CFFE013196819169
:10470000882339F09091C00095FFFCCF8093C600BC
:10471000F6CF8091C00085FFFCCF8AE08093C60071
:1047200080910E0C882311F40C941E3010920E0C04
:104730000091EA0610E0000F111F0F59124FF80107
:1047400060817181882777FD8095982F0E94F7609E
:1047500020918D0230918E0240918F0250919002F3
:104760000E945862181614F00C941E30F801118241
:1047700010820C941E3083E50E943F16882311F4AA
:104780000C941E300E942B160E94C460F62EE72E59
:10479000862F9E2D8C0180E50E943F16882331F0E4
:1047A0000F3F110509F010F40C9433300DE010E0C8
:1047B000E7EDF3E0819191918017910711F40C944A
:1047C0001E3024E0E731F207A9F70930110539F46A
:1047D0008F2D9E2D9093E9068093E80604C017FF65
:1047E00002C00C941E3061E0802F0E94D65E6F2DB7
:1047F000802F0E940F5F6F2D7E2D802F0E94C05D45
:104800000C941E3088E690E0CADA81110C941E30B8
:1048100083E50E943F168823F1F0009109050E946C
:104820002B1610E0000F111F0F59124F0E94C46089
:10483000F801718360830091090510E00E942B1636
:10484000F801EE0FFF1FEE0FFF1FE452F94F6083D8
:104850007183828393830E94F7530C941E3083E507
:104860000E943F16882311F40C941E300E942B16D0
:104870000E94C4607093600D60935F0D0C941E30B5
:1048800089E690E08CDA81110C941E30EEEBF5E0B5
:104890008491882341F09091C00095FFFCCF8093D4
:1048A000C6003196F5CFE091090524E0E29FF001C2
:1048B0001124ED5AF24F408151816281738121E0D0
:1048C00030E082E894E00E94D812EBEBF5E08491AE
:1048D000882341F09091C00095FFFCCF8093C600E3
:1048E0003196F5CFE0910905F0E0EE0FFF1FEF598B
:1048F000F24F60817181882777FD8095982F0E9403
:10490000F760AB01BC0121E030E082E894E00E9456
:10491000D812E7EBF5E08491882341F09091C00034
:1049200095FFFCCF8093C6003196F5CF40914B0D9B
:1049300050914C0D60914D0D70914E0D21E030E085
:1049400082E894E00E94D812E4EBF5E08491882399
:1049500041F09091C00095FFFCCF8093C600319646
:10496000F5CF60915F0D7091600D882777FD809580
:10497000982F0E94F760AB01BC0121E030E082E893
:1049800094E00E94D81251E6E52E5DE0F52E63E535
:10499000C62E6DE0D62E00E010E071EB672E75E0BC
:1049A000772EEFEAAE2EE5E0BE2EFCEA8F2EF5E084
:1049B0009F2EF3018491E1EBF5E0882349F090917B
:1049C000C00095FFFCCF8093C60031968491F5CF4F
:1049D0004AE050E0B80182E894E00E940212F5013A
:1049E0008491EFEAF5E0882349F09091C00095FFAB
:1049F000FCCF8093C60031968491F5CFF6014191AA
:104A00005191619171916F0121E030E082E894E071
:104A10000E94D812F4018491ECEAF5E0882349F071
:104A20009091C00095FFFCCF8093C6003196849191
:104A3000F5CFF701619171917F01882777FD80950E
:104A4000982F0E94F760AB01BC0121E030E082E8C2
:104A500094E00E94D8120F5F1F4F0230110509F039
:104A6000A8CFE8EAF5E08491882341F09091C00056
:104A700095FFFCCF8093C6003196F5CF8091090554
:104A800090E00E9460504AE050E0BC0182E894E06F
:104A90000E940212E0EAF5E08491882341F09091AF
:104AA000C00095FFFCCF8093C6003196F5CF4091B2
:104AB000470D5091480D6091490D70914A0D22E0CB
:104AC00030E082E894E00E94D8128091C00085FF17
:104AD000FCCF8AE08093C6000C9495318DE690E07F
:104AE0005ED981110C941E3010920E0C83E50E9449
:104AF0003F16882311F1009109050E942B1610E042
:104B0000000F111F0F59124F0E94C460F8017183EA
:104B100060830091090510E00E942B16F801EE0F4A
:104B2000FF1FEE0FFF1FE452F94F608371838283F2
:104B3000938381E08093060215C082E50E943F16B0
:104B4000882381F0009109050E942B1610E0000FC8
:104B5000111F0F59124F0E94C460F80171836083C6
:104B60001092060283E50E943F16882351F00E94AE
:104B70002B1660938D0270938E0280938F02909318
:104B8000900282E40E943F16882351F00E942B1667
:104B90006093910270939202809393029093940297
:104BA00086E40E943F16882369F00E942B166093CA
:104BB000890270938A0280938B0290938C0281E029
:104BC00080930E0C0E94F7530E940A5D4B015C011A
:104BD0000091090510E0F801EE0FFF1FEF59F24FA9
:104BE00060817181882777FD8095982F0E94F760FA
:104BF000F801EE0FFF1FEE0FFF1FED5AF24F11E00D
:104C000020813181428153810E94586218160CF034
:104C100010E0109307051092DB06CC24CA94DC2C1C
:104C20007601F8EE4F2EF3E05F2E612C712CAAE096
:104C30003A2E8091DB0681110C943A30FFEFCF16AB
:104C4000DF06EF06FF0611F40C945930F7FE02C0A0
:104C50000C943A300E940A5D6C197D0960317742EC
:104C600010F40C9459300C943A3083E50E943F16AE
:104C7000882361F00E942B160E94C4607093600D1F
:104C800060935F0D81E0809306020FC082E50E9471
:104C90003F16882351F00E942B160E94C460709327
:104CA000600D60935F0D109206020E940A5D4B0139
:104CB0005C011092DB0660915F0D7091600D88279A
:104CC00077FD8095982F0E94F76011E020914B0DA1
:104CD00030914C0D40914D0D50914E0D0E945862F7
:104CE00018160CF010E01093070502E915E09EE895
:104CF000E92E95E0F92E2AE8C22E25E0D22E3AE0E0
:104D0000732E8091070560915F0D7091600D88236F
:104D100009F489C08091DB06811185C0882777FD61
:104D20008095982F0E94F76020914B0D30914C0D8B
:104D300040914D0D50914E0D0E94586218160CF086
:104D400089C00E940A5D681979098A099B09693E30
:104D500073408105910508F460C0E091EA0684E0A3
:104D6000E89FF0011124ED5AF24F40815181628198
:104D70007381F8018491E2E9F5E0882349F090918C
:104D8000C00095FFFCCF8093C60031968491F5CF8B
:104D900022E030E082E894E00E94D812F70184918A
:104DA000EEE8F5E0882349F09091C00095FFFCCF34
:104DB0008093C60031968491F5CF6091EA0670E049
:104DC0004AE050E082E894E00E940212F6018491E9
:104DD000EAE8F5E0882349F09091C00095FFFCCF08
:104DE0008093C60031968491F5CF40914B0D509140
:104DF0004C0D60914D0D70914E0D21E030E082E838
:104E000094E00E94D8128091C00085FFFCCF709280
:104E1000C6000E940A5D4B015C010E946B5080E05D
:104E20000E94171E6ECF882777FD8095982F0E94CD
:104E3000F76020914B0D30914C0D40914D0D5091EC
:104E40004E0D0E94556087FF05C0809106028823A1
:104E500009F477CF0E940A5D6093160570931705D9
:104E600080931805909319050C941E3083E50E94D9
:104E70003F16882319F10E942B1620E030E0A9018B
:104E80000E94556087FD0FC00E942B1620E030E085
:104E90004FE753E40E945862181644F00E942B1604
:104EA0000E94C46005C060E070E002C06FEF70E077
:104EB0007093E9066093E8060C941E308FEF90E043
:104EC0009093E9068093E8060C941E301092E90650
:104ED0001092E8060C941E300E94F8530E94C04DB8
:104EE000129A479A0E94274E1092E9061092E806FD
:104EF00068EE73E080E090E00E94395D269A2E9A79
:104F00000C941E30109230070C941E3083E50E94E2
:104F10003F168823A1F00E942B1620E030E04AE7DC
:104F200054E40E942A630E94C96060930702709350
:104F300008028093090290930A020C941E3088E5BF
:104F40000E943F1681110C946B3189E50E943F1637
:104F500081110C946B318AE50E943F1681110C94EB
:104F60006B3185E40E943F1681110C946B310E94D5
:104F7000C04D129A479A0E94274E0C941E3083E52A
:104F80000E943F16882311F40C941E300E942B16A9
:104F900020E030E04AE754E40E942A630E94C9609E
:104FA0006093120570931305809314059093150573
:104FB0000C941E30F3E03F1267C00E942B166B0169
:104FC0007C0120E030E040EA51E40E94556087FF18
:104FD0003FC0A7019601F8016081718182819381B0
:104FE0000E945C602B013C019B01AC016091470C6D
:104FF0007091480C8091490C90914A0C0E942A6350
:105000006093470C7093480C8093490C90934A0C22
:10501000A3019201F40160817181828193810E94D8
:105020002A63F4016083718382839383F501608135
:105030007181828193810E94F560A30192010E9497
:105040002A630E94C960F501608371838283938320
:10505000F801C082D182E282F38233940C5F1F4F49
:10506000F4E08F0E911C24E0A20EB11C34E0331644
:1050700009F4E4C7EF8DF8A18191F8A3EF8F0E94A6
:105080003F16882351F396CF0E942B16F8016083B8
:10509000718382839383E1CFE7EDF4E084918823E9
:1050A00009F4CCC79091C00095FFFCCF8093C60057
:1050B0003196F4CF80911A0590911B056AE270E059
:1050C00005960E946067009709F4B8C7FC0110823A
:1050D000B5C7E4EDF4E08491882341F09091C000DD
:1050E00095FFFCCF8093C6003196F5CF40911A070B
:1050F00050911B0760911C0770911D0722E030E062
:1051000082E894E00E94D812E0EDF4E084918823D4
:1051100041F09091C00095FFFCCF8093C60031967E
:10512000F5CF40911E0750911F07609120077091A5
:10513000210722E030E082E894E00E94D812ECECF3
:10514000F4E08491882341F09091C00095FFFCCF5A
:105150008093C6003196F5CF4091220750912307E6
:10516000609124077091250722E030E082E894E006
:105170000E94D812E8ECF4E08491882341F09091E9
:10518000C00095FFFCCF8093C6003196F5CF4091CB
:10519000260750912707609128077091290722E080
:1051A00030E082E894E00E94D812EDEBF4E08491C4
:1051B000882341F09091C00095FFFCCF8093C600FA
:1051C0003196F5CF0E94194E0E94F76020916F0C26
:1051D0003091700C4091710C5091720C0E945C6087
:1051E000AB01BC0122E030E082E894E00E94D812DA
:1051F000E9EBF4E08491882341F09091C00095FFA1
:10520000FCCF8093C6003196F5CF81E00E94194E05
:105210000E94F7602091730C3091740C4091750CD2
:105220005091760C0E945C60AB01BC0122E030E042
:1052300082E894E00E94D812E5EBF4E084918823A0
:1052400041F09091C00095FFFCCF8093C60031964D
:10525000F5CF82E00E94194E0E94F7602091770CF2
:105260003091780C4091790C50917A0C0E945C60DE
:10527000AB01BC0122E030E082E894E00E94D81249
:105280008091C00085FFFCCF8AE08093C600D6C61F
:1052900080E00E948946D2C69091C00095FFFCCF65
:1052A0008093C60081918111F7CF8091C00085FF66
:1052B000FCCF8AE08093C600EDEAF4E08491882375
:1052C00041F09091C00095FFFCCF8093C6003196CD
:1052D000F5CF659B03C0ECE5F3E009C0E6E6F3E03B
:1052E00006C09091C00095FFFCCF8093C6008191CD
:1052F0008111F7CF8091C00085FFFCCF8AE08093B9
:10530000C600E5EAF4E08491882341F09091C00062
:1053100095FFFCCF8093C6003196F5CF80910301B5
:1053200081FF03C0ECE5F3E009C0E6E6F3E006C068
:105330009091C00095FFFCCF8093C60081918111B0
:10534000F7CF8091C00085FFFCCF8AE08093C60034
:10535000EDE9F4E08491882341F09091C00095FF3D
:10536000FCCF8093C6003196F5CF4A9B03C0ECE595
:10537000F3E009C0E6E6F3E006C09091C00095FFB7
:10538000FCCF8093C60081918111F7CF8091C0003E
:1053900085FFFCCF8AE08093C60050C68091EA0664
:1053A0008093090584E50E943F16882311F10E942D
:1053B0002B160E94C960609309056230D0F0ECE0C2
:1053C000F8E08491882341F09091C00095FFFCCFD4
:1053D0008093C6003196F5CFE6E8F3E0819188230B
:1053E00009F42CC69091C00095FFFCCF8093C600B5
:1053F000F5CF84E40E943F16882309F41FC60E945B
:105400002B1620E030E0A9010E945560811103C0F5
:1054100010922A0751C00091090510E00E942B1636
:10542000F801EE0FFF1FEE0FFF1FEB59FD4F6083DA
:10543000718382839383E0906502F090660200910D
:1054400067021091680220E030E0A901B701C801AD
:105450000E945560811104C0E12CF12C00E410E49D
:10546000C701D8018093650290936602A0936702FA
:10547000B0936802E0906902F0906A0200916B02BA
:1054800010916C0220E030E0A901B701C8010E9430
:105490005560811104C0E12CF12C00E410E4C70137
:1054A000D8018093690290936A02A0936B02B09333
:1054B0006C0281E080932A070E948A1FBFC507E122
:1054C00014E05FE5E52E5CE0F52EF80181918F0197
:1054D0000E943F16882349F00E942B160E94C96043
:1054E000F7016083718382839383F4E0EF0EF11CF4
:1054F00024E00B31120749F70E94AB459FC507E135
:1055000014E04FE7E42E4CE0F42EF80181918F0176
:105510000E943F16882339F00E942B16F701608302
:10552000718382839383F4E0EF0EF11C24E00B314E
:10553000120759F783C583E50E943F16882351F06F
:105540000E942B166093570C7093580C8093590C43
:1055500090935A0C84E50E943F16882309F46EC587
:105560000E942B166093530C7093540C8093550C2F
:105570009093560C63C583E50E943F16882351F033
:105580000E942B1660935B0C70935C0C80935D0CF7
:1055900090935E0C84E50E943F16882351F00E9490
:1055A0002B166093430C7093440C8093450C90939E
:1055B000460C82E40E943F16882361F00E942B165D
:1055C0000E94C96060938F0C7093900C8093910C33
:1055D0009093920C88E50E943F16882351F00E9418
:1055E0002B1660934F0C7093500C8093510C90933A
:1055F000520C8AE50E943F16882351F00E942B1618
:1056000060934B0C70934C0C80934D0C90934E0C0C
:1056100085E40E943F16882309F410C50E942B16CA
:105620006093470C7093480C8093490C90934A0CFC
:1056300005C507E114E03EE0E32E37E0F32EF80164
:1056400081918F010E943F16882339F00E942B160A
:10565000F7016083718382839383F4E0EF0EF11C82
:1056600024E00A31120759F7809116079091170725
:10567000A0911807B09119078093FB069093FC0640
:10568000A093FD06B093FE06D9C48AED90E00E9477
:10569000CF1E8111D3C488E50E943F16882381F074
:1056A0000091090510E00E942B16F801EE0FFF1F74
:1056B000EE0FFF1FE551F94F60837183828393835F
:1056C00089E50E943F16882381F00091090510E0CA
:1056D0000E942B16F801EE0FFF1FEE0FFF1FED507B
:1056E000F94F6083718382839383ECE0F8E08491C7
:1056F000882341F09091C00095FFFCCF8093C600B5
:105700003196F5CFEDE8F4E08491882341F0909153
:10571000C00095FFFCCF8093C6003196F5CF109264
:10572000090580910905823008F042C0EDE2F4E0FD
:105730008191882339F09091C00095FFFCCF809330
:10574000C600F6CFE091090534E0E39FF001112493
:10575000E551F94F408151816281738122E030E04F
:1057600082E894E00E94D812EDE9F3E08191882369
:1057700039F09091C00095FFFCCF8093C600F6CF22
:10578000E091090584E0E89FF0011124ED50F94F04
:10579000408151816281738122E030E082E894E0AF
:1057A0000E94D812809109058F5F80930905B9CFB7
:1057B0008091C00085FFFCCF8AE08093C6003EC484
:1057C00083E50E943F16882309F438C40E942B16F3
:1057D0000E94C46070937402609373022FC483E5C7
:1057E0000E943F16882309F429C40E942B160E94A8
:1057F000C4606B017C0184E50E943F16882381F020
:105800008DED90E00E94CF1E811118C4E091090532
:10581000F0E0EE0FFF1FE359FD4FD182C0820EC4AE
:10582000D0927202C092710209C480E50E943F16B4
:10583000882309F403C40E942B160E94C460D62E4C
:10584000062F172F83E50E943F16882331F00E9410
:105850002B160E94C4607B0103C0EE24EA94FE2C48
:10586000C7010196039708F0E9C3E7EDF3E08191E2
:1058700091918017910709F4E1C394E0E731F907AA
:10588000B1F717FDDBC30E94C04DCD2C60E08D2D1C
:105890000E94D65EEFEFEE16FE0631F0EA94EF2896
:1058A00071F000E010E00DC08D2D0E94445F31E0EA
:1058B00020E0892B09F030E0032F122F02C001E015
:1058C00010E08C2D0E94445F8017910709F4B6C345
:1058D0000E946B5080E00E94171EF3CF80E50E946B
:1058E0003F16882351F00E942B166093B0027093EC
:1058F000B1028093B2029093B30289E40E943F16F2
:10590000882361F00E942B160E94BB5A6093AC0260
:105910007093AD028093AE029093AF0284E40E9434
:105920003F16882361F00E942B160E94C65A60938E
:10593000A8027093A9028093AA029093AB0283E419
:105940000E943F16882351F00E942B166093A402F8
:105950007093A5028093A6029093A7020E944150E3
:10596000EFE9F3E08191882339F09091C00095FF31
:10597000FCCF8093C600F6CFE2EAF3E08191882362
:1059800039F09091C00095FFFCCF8093C600F6CF10
:105990004091B0025091B1026091B2027091B30295
:1059A00022E030E082E894E00E94D812E6EAF3E0D8
:1059B0008191882339F09091C00095FFFCCF8093AE
:1059C000C600F6CF6091AC027091AD028091AE023C
:1059D0009091AF020E94C15AAB01BC0122E030E0BD
:1059E00082E894E00E94D812EAEAF3E081918823E9
:1059F00039F09091C00095FFFCCF8093C600F6CFA0
:105A00006091A8027091A9028091AA029091AB02C4
:105A10000E94CB5AAB01BC0122E030E082E894E066
:105A20000E94D812EEEAF3E08191882339F0909138
:105A3000C00095FFFCCF8093C600F6CF4091A40232
:105A40005091A5026091A6027091A70222E030E079
:105A500082E894E00E94D8128091C00085FFFCCFBC
:105A60008AE08093C600EAC283E50E943F1688233D
:105A700019F00E942B1603C060E070E0CB010E9479
:105A8000A245DCC285E40E943F16882341F00E94B3
:105A90002B160E94C4608B0177FD0AC002C000E093
:105AA00010E0C12CD12CA6E1EA2EA3E4FA2E06C008
:105AB000C12CD12CFCE8EF2EF2E4FF2E83E50E94EE
:105AC0003F16882321F00E942B166B017C0183E492
:105AD0000E943F16882331F00E942B160E94C4605A
