:100000000C94000A0C94310A0C94310A0C94310AB5
:100010000C94310A0C94310A0C94310A0C94310A74
:100020000C94310A0C94310A0C94310A0C94310A64
:100030000C94310A0C94310A0C94310A0C94310A54
:100040000C94310A0C94B2460C94310A0C94310A87
:100050000C94310A0C94310A0C9408590C94E45C09
:100060000C94310A0C94BB100C94310A0C94310A94
:100070000C94310A0C94310A0C94310A0C94310A14
:100080000C94310A0C94310A0C94310A0C94310A04
:100090000C94310A0C94310A0C94310A0C94B65B1E
:1000A0000C94310A0C94310A0C94310A0C94310AE4
:1000B0000C94310A0C94310A0C94310A0C94310AD4
:1000C0000C94310A0C94310A0C94310A0C94310AC4
:1000D0000C94310A0C94310A0C94310A0C94310AB4
:1000E0000C94310A83599059AC59B959D359E059F4
:1000F000FA59FC59FE59005A095A165A305A075EE5
:100100000C5E115E1B5E255E9E5E2F5E375E3F5E5F
:10011000495E535E5D5E6C5E765E9E5E805E8A5E6C
:10012000945EBF5EC25EB15EB55EBB5EF95EC65EEA
:10013000CA5ED05ED45ED85EDE5EE25EE65EF95EEA
:10014000EC5EF05EF45E084AD73B3BCE016E84BCA9
:10015000BFFDC12F3D6C74319ABD56833DDA3D0021
:10016000C77F11BED9E4BB4C3E916BAAAABE00006A
:1001700000803F05A84CCDB2D44EB93836A9020C48
:1001800050B9918688083CA6AAAA2ABE0000008021
:100190003F0048617264636F646564204465666112
:1001A000756C742053657474696E6773204C6F614D
:1001B0006465640053746F72656420736574746958
:1001C0006E67732072657472696576656400204499
:1001D000002049002020204D33303120500050496C
:1001E000442073657474696E67733A00205A002066
:1001F000590020204D323036205800486F6D652060
:100200006F666673657420286D6D293A002045007D
:10021000205A0020580020420020540020204D3257
:100220003035205300416476616E636564207661E9
:10023000726961626C65733A20533D4D696E206648
:100240006565647261746520286D6D2F73292C209B
:10025000543D4D696E2074726176656C20666565EB
:10026000647261746520286D6D2F73292C20423DC6
:100270006D696E696D756D207365676D656E74204F
:1002800074696D6520286D73292C20583D6D617847
:10029000696D756D205859206A65726B20286D6DE7
:1002A0002F73292C20205A3D6D6178696D756D2062
:1002B0005A206A65726B20286D6D2F73292C2020BF
:1002C000453D6D6178696D756D2045206A65726B7D
:1002D00020286D6D2F73290020540020204D3230CE
:1002E00034205300416363656C65726174696F6E9D
:1002F0003A20533D616363656C65726174696F6E2A
:100300002C20543D7265747261637420616363656F
:100310006C65726174696F6E00204500205A002080
:10032000590020204D3230312058004D6178696DE0
:10033000756D20416363656C65726174696F6E20D1
:10034000286D6D2F7332293A00204500205A002075
:10035000590020204D3230332058004D6178696DAE
:10036000756D2066656564726174657320286D6DB6
:100370002F73293A00204500205A002059002020E0
:100380004D393220580053746570732070657220A7
:10039000756E69743A0053657474696E677320539F
:1003A000746F726564005072696E74657220737444
:1003B0006F707065642064756520746F206572725B
:1003C0006F72732E2046697820746865206572729A
:1003D0006F7220616E6420757365204D3939392044
:1003E000746F20726573746172742E202854656D69
:1003F00070657261747572652069732072657365CA
:10040000742E2053657420697420616674657220AF
:1004100072657374617274696E6729005072696ED7
:100420007465722068616C7465642E206B696C6CF5
:1004300028292063616C6C656421006F6B00526534
:1004400073656E643A20002200556E6B6E6F776E96
:1004500020636F6D6D616E643A2022005A204F66F2
:1004600066736574203A20007A5F6D61783A2000E7
:100470007A5F6D696E3A20005A204F666673657424
:10048000005A204F6666736574206F6B00486F7466
:10049000656E64206F6666736574733A007A5F6D8B
:1004A00061783A2000795F6D696E3A2000785F6D5F
:1004B000696E3A2000205A3A0020593A0020436FD2
:1004C000756E7420583A200020453A00205A3A00B0
:1004D00020593A00583A004649524D574152455F1B
:1004E0004E414D453A4D61726C696E204649524D00
:1004F000574152455F56455253494F4E3A312E307F
:100500002E3020534F555243455F434F44455F556E
:10051000524C3A68747470733A2F2F676974687517
:10052000622E636F6D2F467261636B74616C576FDF
:10053000726B732F4A756C696133474D61726C69D8
:100540006E2050524F544F434F4C5F5645525349C3
:100550004F4E3A312E30204D414348494E455F546D
:100560005950453A4A756C69613347204558545291
:10057000554445525F434F554E543A3220582D460C
:1005800049524D574152455F4C414E4755414745B1
:100590003A454E0A0020423A0020453A00543A00BB
:1005A00020573A0020453A00543A0020414D425F1E
:1005B000543A0020403A00202F003A0020540020F6
:1005C0002F0020423A00202F006F6B20543A002564
:1005D00069206D696E2C2025692073656300507257
:1005E000696E7465722073746F70706564206475D1
:1005F0006520746F206572726F72732E2046697861
:1006000020746865206572726F7220616E64207557
:100610007365204D39393920746F207265737461A8
:1006200072742E202854656D7065726174757265E0
:100630002069732072657365742E20536574206978
:100640007420616674657220726573746172746976
:100650006E6729004E6F204C696E65204E756D6285
:100660006572207769746820636865636B73756D64
:100670002C204C617374204C696E653A20004E6FDB
:1006800020436865636B73756D2077697468206CAF
:10069000696E65206E756D6265722C204C61737495
:1006A000204C696E653A2000636865636B73756DF5
:1006B000206D69736D617463682C204C61737420C4
:1006C0004C696E653A20004C696E65204E756D620E
:1006D0006572206973206E6F74204C617374204CB6
:1006E000696E65204E756D6265722B312C204C61F0
:1006F0007374204C696E653A20004D313130002012
:1007000020506C616E6E65724275666665724279E4
:100710007465733A20002046726565204D656D6FE3
:1007200072793A20004A616E2031352032303138FA
:1007300000436F6D70696C65643A200046726163B6
:100740006B74616C20576F726B7300207C20417555
:1007500074686F723A20004A616E20313520323061
:1007600031382031383A34383A313900204C61730D
:100770007420557064617465643A2000312E302E07
:1007800032004D61726C696E0020536F6674776140
:1007900072652052657365740020576174636864E4
:1007A0006F67205265736574002042726F776E2008
:1007B0006F75742052657365740020457874657296
:1007C0006E616C20526573657400506F7765725569
:1007D0007000737461727400FFFF010000A040009C
:1007E00000A0400000A040000091430000524300E0
:1007F0000077430000000000000000000077430085
:1008000000914300005243000077430000000000C5
:10081000000000000000006563686F3A00457272D6
:100820006F723A0020746F6F206C6F6E672065786E
:1008300074727573696F6E2070726576656E74651B
:10084000640020636F6C6420657874727573696FDF
:100850006E2070726576656E74656400205A3A0089
:1008600020593A0020583A00656E6473746F7073B3
:10087000206869743A200024F4D43050C38E20C21A
:10088000A24017828B7011127A910D816CD90AA83F
:1008900061E108C7586607615143061E4B5D05C1FB
:1008A00045A7041A411104093D98037139310340E9
:1008B00036DB0265339102D4305402802E1D026370
:1008C0002CEE01752AC501B028A001102781018FE7
:1008D0002564012B244B01E0223401AC211F018D42
:1008E000200D01801FFC00841EED00971DDF00B865
:1008F0001CD200E61BC600201BBC00641AB200B26A
:1009000019A8000A19A0006A189900D1179100408F
:10091000178B00B516840031167E00B31579003AA6
:10092000157300C7146F0058146A00EE1366008830
:1009300013630025135E00C7125B006C125700158D
:10094000125400C111510070114F0021114B00D6FB
:100950001049008D1047004610440002104200C0AC
:100960000F4000800F3E00420F3C00060F3B00CBC3
:100970000E3800930E37005C0E3500270E3400F35E
:100980000D3200C10D3100900D3000600D2E00328F
:100990000D2D00050D2C00D90C2B00AE0C29008567
:1009A0000C29005C0C2700350C27000E0C2600E8F3
:1009B0000B2400C40B2400A00B23007D0B23005A42
:1009C0000B2100390B2100180B2000F80A1F00D959
:1009D0000A1E00BB0A1E009D0A1D00800A1D00633E
:1009E0000A1C00470A1B002C0A1B00110A1A00F7F8
:1009F000091A00DD091900C4091900AB0919009290
:100A00000917007B091800630917004C0916003606
:100A1000091600200916000A091500F5081500E05E
:100A2000081400CC081400B8081400A4081400909E
:100A30000813007D0812006B0813005808120046C6
:100A400008120034081100230811001208110001D7
:100A5000081100F0071000E0071000D0071000C0D8
:100A6000071000B0070F00A107100091070E0083C8
:100A7000070F0074070F0065070E0057070E0049A7
:100A8000070E003B070D002E070E0020070D001378
:100A9000070D0006070D00F9060C00ED060D00E03D
:100AA000060C00D4060C00C8060C00BC060C00B0F6
:100AB000060C00A4060B0099060C008D060B0082A4
:100AC000060B0077060B006C060B0061060A005748
:100AD000060B004C060A0042060A0038060A002EE1
:100AE000060A0024060A001A060A00100609000772
:100AF000060A00FD050900F4050900EB050900E2FE
:100B0000050900D9050900D0050900C7050900BE7F
:100B1000050900B5050800AD050800A50509009CFC
:100B2000050800940508008C050800840508007C71
:100B3000050800740508006C050700650508005DE0
:100B4000050700560508004E050700470507004049
:100B500005080038050700310507002A05070023AE
:100B60000507001C050600160507000F050700080D
:100B700005060002050700FB040600F5040700EE69
:100B8000040600E8040600E2040700DB040600D5C2
:100B9000040600CF040600C9040600C3040600BD15
:100BA000040600B7040600B1040500AC040600A664
:100BB000040600A00405009B0406009504050090AF
:100BC0000406008A04050085040500800406007AF6
:100BD00004050075040500700405006B040500663B
:100BE000040500610405005C04050057040500527B
:100BF0000405004D04050048040500430405003EBB
:100C00000404003A04050035040500300404002CF7
:100C100004050027040400230405001E0404001A30
:100C200004040016040500110404000D0404000966
:100C30000405000404040000040400FC030400F89C
:100C4000030400F4030400F0030400EC030400E8D0
:100C5000030400E4030400E0030400DC030400D800
:100C6000030400D4030400D0030400CC030400C830
:100C7000030300C503030024F404D9201BC40C5C47
:100C80000E9804C4095F0265077101F405F900FBC1
:100C900004B30048048700C10369005803550003EA
:100CA000034500BE023A008402310053022A0029A3
:100CB00002250004022000E4011C00C8011900AF55
:100CC00001170098011400840113007101100061E4
:100CD00001100051010E0043010D0036010B002BE5
:100CE000010B0020010B00150109000C0109000394
:100CF000010800FB000800F3000800EB000700E417
:100D0000000600DE000600D8000600D2000600CC77
:100D1000000500C7000500C2000500BD000400B9C1
:100D2000000400B5000400B1000400AD000400A9F7
:100D3000000400A5000300A20003009F0004009B24
:100D40000003009800030095000200930003009048
:100D50000003008D0002008B000300880002008663
:100D600000020084000300810002007F0002007D79
:100D70000002007B0002007900020077000100768B
:100D80000002007400020072000100710002006F96
:100D90000002006D0001006C0002006A00010069A1
:100DA00000020067000100660001006500010064A8
:100DB0000002006200010061000100600001005FAC
:100DC0000002005D0001005C0001005B0001005AB0
:100DD00000010059000100580001005700010056B1
:100DE00000010055000100540001005300000053B1
:100DF0000001005200010051000100500001004FAD
:100E00000001004E0000004E0001004D0001004CAA
:100E10000001004B0000004B0001004A00010049A6
:100E200000010048000000480001004700010046A2
:100E3000000000460001004500000045000100449C
:100E40000001004300000043000100420000004296
:100E50000001004100000041000100400001003F8E
:100E60000000003F0001003E0000003E0001003D88
:100E70000000003D0001003C0000003C0000003C80
:100E80000001003B0000003B0001003A0000003A76
:100E9000000100390000003900010038000000386E
:100EA0000000003800010037000000370001003664
:100EB000000000360000003600010035000000355B
:100EC0000000003500010034000000340000003450
:100ED0000001003300000033000000330001003245
:100EE000000000320000003200010031000000313B
:100EF0000000003100010030000000300000003030
:100F00000001002F0000002F0000002F0000002F24
:100F10000001002E0000002E0000002E0001002D18
:100F20000000002D0000002D0000002D0001002C0D
:100F30000000002C0000002C0000002C0001002B01
:100F40000000002B0000002B0000002B0001002AF5
:100F50000000002A0000002A0000002A00010029E9
:100F600000000029000000290000002900000029DD
:100F700000010028000000280000002800000028D0
:100F800000000028000100270000002700000027C3
:100F900000000027000000270001002600000026B6
:100FA00000000026000000260000002600010025A9
:100FB000000000250000002500000025000000259D
:100FC000000000250001002400000024000000248F
:100FD0000000002400000024000100230000002382
:100FE0000000002300000023000000230000002375
:100FF0000000002300010022000000220000002267
:101000000000002200000022000000220001002158
:10101000000000210000002100000021000000214C
:10102000000000210000002100010020000000203D
:101030000000002000000020000000200000002030
:1010400000000020000000200001001F0000001F21
:101050000000001F0000001F0000001F0000001F14
:101060000000001F0001001E0000001E0000001E06
:101070000000001E00000054656D7065726174759B
:1010800072652068656174656420626564207377A9
:10109000697463686564206F66662E204D415854FC
:1010A000454D50207472696767657265642021211F
:1010B000003A20457874727564657220737769749C
:1010C00063686564206F66662E204D494E54454D19
:1010D00050207472696767657265642021003A2048
:1010E0004578747275646572207377697463686596
:1010F00064206F66662E204D415854454D50207433
:101100007269676765726564202100202D20496E31
:1011100076616C6964206578747275646572206E9E
:10112000756D626572202100504944204175746FCD
:1011300074756E652066696E6973686564212050F8
:10114000757420746865206C617374204B702C205A
:101150004B6920616E64204B6420636F6E73746111
:101160006E74732066726F6D2061626F76652069A0
:101170006E746F20436F6E66696775726174696F14
:101180006E2E6800504944204175746F74756E6509
:10119000206661696C6564212074696D656F757482
:1011A0000020403A006F6B20543A006F6B20423AA7
:1011B00000504944204175746F74756E65206661F6
:1011C000696C6564212054656D7065726174757217
:1011D0006520746F6F206869676800204B643A204F
:1011E00000204B693A2000204B703A200020436CCD
:1011F00061737369632050494420002054753A207C
:1012000000204B753A2000206D61783A2000206D57
:10121000696E3A200020643A200020626961733AC6
:1012200020001000C90210012C01400122017001B0
:101230001801B0010E01F00104015002FA00B002E1
:10124000F0003003E600D003DC009004D20070050B
:10125000C800A006BE000008B400B009AA00D00B68
:10126000A000600E960060118C000015820020190D
:101270007800C01D6E00A0226400B0275A00902C98
:10128000500000314600E0343C0010383200903A03
:101290002800603C1E00A03D1400803E0A00203F54
:1012A000000000000A0B02090C0D0E0807030401E0
:1012B000000000000000000000000000000000002E
:1012C00000000000000000000000000000001211FB
:1012D00010000000000000000000000000000000FE
:1012E000000000000000000001021020200808108B
:1012F0002040102040800201020108040201010286
:10130000040810204080804020100804020180045E
:1013100002018040201008040201080402010102B9
:1013200004081020408001020408102040800505B8
:101330000505070508080808020202020A0A08084B
:101340000404040401010101010101010303030379
:1013500003030303040707070C0C0C0C0C0C0C0C08
:101360000202020206060606060606060B0B0B0B19
:101370000B0B0B0B000020002300260029002C0083
:101380002F003200000100000301060109010000E6
:101390002200250028002B002E003100340002011D
:1013A0000000050108010B010000210024002700B6
:1013B0002A002D0030003300010100000401070164
:1013C0000A014E414E494E495459494E46CDCCCC66
:1013D0003D0AD7233C17B7D13877CC2B329595E609
:1013E000241FB14F0A000020410000C84200401CE9
:1013F0004620BCBE4CCA1B0E5AAEC59D74008A5B0B
:1014000011241FBECFEFD1E2DEBFCDBF00E00CBF85
:1014100014E0A0E0B2E0E6E0F5ED00E00BBF02C0B2
:1014200007900D92A238B107D9F72EE0A2E8B4E0F8
:1014300001C01D92A333B207E1F713E1C0E0D4E18C
:1014400000E006C022970109FE010BBF0E949E64C6
:10145000CE3FD10780E00807A9F70E94915F0C9466
:10146000816A0C940000EF92FF920F931F93CF9329
:10147000DF931F92CDB7DEB78C017B01460FF701DA
:1014800061917F01F8018081918149830E94CA693D
:10149000F8018081918101969183808349814E1169
:1014A000EECF0F90DF91CF911F910F91FF90EF90B2
:1014B0000895EF92FF920F931F93CF93DF931F92A4
:1014C000CDB7DEB78C017B01460FF8018081918199
:1014D00049830E94C269F70181937F01F8018081ED
:1014E000918101969183808349814E11EECF0F90B7
:1014F000DF91CF911F910F91FF90EF9008950F937F
:101500001F93CF93DF93CDB7DEB76A970FB6F894EA
:10151000DEBF0FBECDBF80E390E3A0E3B0E08D83DC
:101520009E83AF83B88704E610E01A8F098F44E0EA
:10153000BE016B5F7F4FCE01499695DF40E16FE6BC
:101540007CE0CE0149968FDF40E16FE77CE0CE0181
:10155000499689DF40E16FE57CE0CE01499683DF63
:1015600044E067E57CE0CE0149967DDF44E063E539
:101570007CE0CE01499677DF44E06BE57CE0CE016C
:10158000499671DF44E063E47CE0CE0149966BDF6D
:1015900044E06FE87CE0CE01499665DF44E06FE40B
:1015A0007CE0CE0149965FDF44E06BE47CE0CE0155
:1015B000499659DF44E067E47CE0CE01499653DF69
:1015C0004CE06EE077E0CE0149964DDF80EF90E091
:1015D000988F8F8B82ED90E09E8B8D8B1C8A1B8A5F
:1015E0001A8A198A8BEE90E0988B8F871E861D864B
:1015F0001C861B8642E0BE01695E7F4FCE01499684
:1016000032DF42E0BE016B5E7F4FCE0149962BDF99
:1016100042E0BE016D5E7F4FCE01499624DF42E07D
:10162000BE016F5E7F4FCE0149961DDF42E0BE01D5
:10163000615F7F4FCE01499616DF42E0BE01635FD6
:101640007F4FCE0149960FDF42E0BE01655F7F4FBD
:10165000CE01499608DF44E06BEF76E0CE01499673
:1016600002DF44E060EB72E0CE014996FCDE44E02C
:101670006CEA72E0CE014996F6DE44E068EA72E078
:10168000CE014996F0DE80E290E09A87898742E0B9
:10169000BE01675F7F4FCE014996E5DE41E06AE219
:1016A00077E0CE014996DFDE44E065E672E0CE01E8
:1016B0004996D9DE44E069E672E0CE014996D3DE70
:1016C00086E591E3A3E3B0E089839A83AB83BC838F
:1016D0001A8F098F44E0BE016F5F7F4FCE0149969C
:1016E000C2DEE7E1F8E08491882341F09091C000E8
:1016F00095FFFCCF8093C6003196F5CFE6E9F3E085
:101700008491882341F09091C00095FFFCCF809395
:10171000C6003196F5CF8091C00085FFFCCF8AE0EE
:101720008093C6006A960FB6F894DEBF0FBECDBF99
:10173000DF91CF911F910F910895CF93DF93C7E170
:10174000D8E0FE018491882341F09091C00095FF7C
:10175000FCCF8093C6003196F5CFE6E8F3E08491A4
:10176000882341F09091C00095FFFCCF8093C60084
:101770003196F5CF8091C00085FFFCCF8AE0809341
:10178000C600FE018491E7E1F8E0882349F09091DA
:10179000C00095FFFCCF8093C60031968491F5CFB1
:1017A00040916F0C5091700C6091710C7091720CA3
:1017B0008EE793E00E9453144091730C5091740C87
:1017C0006091750C7091760C8BE793E00E94531436
:1017D0004091770C5091780C6091790C70917A0C53
:1017E00088E793E00E94531440917B0C50917C0C4D
:1017F00060917D0C70917E0C85E793E00E945314FC
:101800008091C00085FFFCCF8AE08093C600FE0176
:101810008491E7E1F8E0882349F09091C00095FFBA
:10182000FCCF8093C60031968491F5CFEBE5F3E0D1
:101830008491882341F09091C00095FFFCCF809364
:10184000C6003196F5CF8091C00085FFFCCF8AE0BD
:101850008093C600FE018491E7E1F8E0882349F017
:101860009091C00095FFFCCF8093C6003196849183
:10187000F5CF40917F0C5091800C6091810C70915C
:10188000820C82E593E00E9453144091830C5091A6
:10189000840C6091850C7091860C8FE493E00E941B
:1018A00053144091870C5091880C6091890C709171
:1018B0008A0C8CE493E0F7D740918B0C50918C0C00
:1018C00060918D0C70918E0C89E493E0ECD780913F
:1018D000C00085FFFCCF8AE08093C600FE018491A2
:1018E000E7E1F8E0882349F09091C00095FFFCCF34
:1018F0008093C60031968491F5CFEBE2F3E08491BA
:10190000882341F09091C00095FFFCCF8093C600E2
:101910003196F5CF8091C00085FFFCCF8AE080939F
:10192000C600FE018491E7E1F8E0882349F0909138
:10193000C00095FFFCCF8093C60031968491F5CF0F
:1019400040915F0C5091600C6091610C7091620C41
:1019500082E293E0B9D74091630C5091640C60919E
:10196000650C7091660C8FE193E0AED74091670CE7
:101970005091680C6091690C70916A0C8CE193E055
:10198000A3D740916B0C50916C0C60916D0C7091D1
:101990006E0C89E193E098D78091C00085FFFCCF61
:1019A0008AE08093C600FE018491E7E1F8E0882395
:1019B00049F09091C00095FFFCCF8093C60031960E
:1019C0008491F5CFE4EEF2E08491882341F0909188
:1019D000C00095FFFCCF8093C6003196F5CF809173
:1019E000C00085FFFCCF8AE08093C600FE01849191
:1019F000E7E1F8E0882349F09091C00095FFFCCF23
:101A00008093C60031968491F5CF4091570C509148
:101A1000580C6091590C70915A0C8BED92E043D7A1
:101A20004091530C5091540C6091550C7091560C90
:101A300088ED92E038D78091C00085FFFCCF8AE026
:101A40008093C600FE018491E7E1F8E0882349F025
:101A50009091C00095FFFCCF8093C6003196849191
:101A6000F5CFE5E2F2E08491882341F09091C00047
:101A700095FFFCCF8093C6003196F5CF8091C000D2
:101A800085FFFCCF8AE08093C600FE018491E7E1E8
:101A9000F8E0882349F09091C00095FFFCCF809337
:101AA000C60031968491F5CF40915B0C50915C0C4F
:101AB00060915D0C70915E0C8CE192E0F4D64091E7
:101AC000430C5091440C6091450C7091460C89E197
:101AD00092E0E9D640918F0C5091900C6091910C5E
:101AE0007091920C86E192E0EFD640914F0C5091AC
:101AF000500C6091510C7091520C83E192E0D3D65E
:101B000040914B0C50914C0C60914D0C70914E0CCF
:101B100080E192E0C8D64091470C5091480C60910A
:101B2000490C70914A0C8DE092E0BDD68091C000C6
:101B300085FFFCCF8AE08093C600FE018491E7E137
:101B4000F8E0882349F09091C00095FFFCCF809386
:101B5000C60031968491F5CFEBEFF1E084918823B4
:101B600041F09091C00095FFFCCF8093C600319664
:101B7000F5CF8091C00085FFFCCF8AE08093C6003E
:101B8000FE018491E7E1F8E0882349F09091C000DC
:101B900095FFFCCF8093C60031968491F5CF40919C
:101BA0000E0750910F07609110077091110782EF97
:101BB00091E079D640911207509113076091140774
:101BC000709115078FEE91E06ED6409116075091F7
:101BD000170760911807709119078CEE91E063D692
:101BE0008091C00085FFFCCF8AE08093C600FE0193
:101BF0008491E7E1F8E0882349F09091C00095FFD7
:101C0000FCCF8093C60031968491F5CFEEEDF1E0E4
:101C10008491882341F09091C00095FFFCCF809380
:101C2000C6003196F5CF8091C00085FFFCCF8AE0D9
:101C30008093C600FE01C491E7E1F8E0CC2349F0AF
:101C40008091C00085FFFCCFC093C6003196C4913F
:101C5000F5CF4091B0025091B1026091B202709103
:101C6000B30284ED91E01FD66091AC027091AD0299
:101C70008091AE029091AF020E94E55AAB01BC0187
:101C800081ED91E010D66091A8027091A902809137
:101C9000AA029091AB020E94EF5AAB01BC018EECFC
:101CA00091E001D68091C00085FFFCCF8AE080934F
:101CB000C600DF91CF910895AF92BF92CF92DF928D
:101CC000EF92FF920F931F93CF93DF93CDB7DEB7C1
:101CD000E0970FB6F894DEBF0FBECDBF80E1E4EB16
:101CE000F2E0DE01919601900D928A95E1F780E194
:101CF000E4ECF2E0DE01519601900D928A95E1F755
:101D000080E1E4EDF2E0DE01119601900D928A95FA
:101D1000E1F76E0181E2C80ED11C8FE6E82E8CE05F
:101D2000F82E8E010F5E1F4F6FE77CE0AE014F5F14
:101D30005F4F9FE5A92E9CE0B92E20E030E0F60130
:101D400081919191A191B1916F01F701819391934B
:101D5000A193B1937F01F80181919191A191B191EA
:101D60008F01FB0181939193A193B193BF01FA017C
:101D700081919191A191B191AF01F50181939193DD
:101D8000A193B1935F012F5F3F4F24303105B9F626
:101D90000E94CB4580E090E0A8E4B4E48093570C27
:101DA0009093580CA093590CB0935A0C8093530CF9
:101DB0009093540CA093550CB093560C10925B0C5E
:101DC00010925C0C10925D0C10925E0C80E29EE40E
:101DD000A0E0B0E080938F0C9093900CA093910CB6
:101DE000B093920C1092430C1092440C1092450C3C
:101DF0001092460C80E090E0A0E0B0E480934F0C9D
:101E00009093500CA093510CB093520C8DEC9CEC21
:101E1000ACECBEE380934B0C90934C0CA0934D0C18
:101E2000B0934E0C80E090E0A0EAB0E48093470CC1
:101E30009093480CA093490CB0934A0C109216074B
:101E40001092170710921807109219071092120794
:101E500010921307109214071092150710920E0794
:101E600010920F0710921007109211078BE794E160
:101E7000A2E8B1E48093B0029093B102A093B202C1
:101E8000B093B30261E77DE38AE89FE30E94DF5AE3
:101E90006093AC027093AD028093AE029093AF0258
:101EA00063E373E384E792E40E94EA5A6093A80232
:101EB0007093A9028093AA029093AB020E94615092
:101EC00080E090E0A0E8BFE38093A4029093A50295
:101ED000A093A602B093A70210922A0780E090E098
:101EE000A0E4B0E48093650290936602A093670239
:101EF000B09368028093690290936A02A0936B0288
:101F0000B0936C020E94AA1FE7E1F8E08491882355
:101F100041F09091C00095FFFCCF8093C6003196B0
:101F2000F5CFE2E9F1E08491882341F09091C0007F
:101F300095FFFCCF8093C6003196F5CF8091C0000D
:101F400085FFFCCF8AE08093C600E0960FB6F89438
:101F5000DEBF0FBECDBFDF91CF911F910F91FF90DC
:101F6000EF90DF90CF90BF90AF900895CF93DF9325
:101F7000CDB7DEB76A970FB6F894DEBF0FBECDBF00
:101F800084E690E09A8F898F86E591E3A3E3B0E041
:101F900089839A83AB83BC8344E0BE016B5F7F4F30
:101FA000CE01499686DA43E050E0BE016B5F7F4F79
:101FB000CE0101960E949867892B09F0D2C040E1BA
:101FC0006FE67CE0CE01499674DA40E16FE77CE091
:101FD000CE0149966EDA40E16FE57CE0CE0149968C
:101FE00068DA0E94CB4544E067E57CE0CE01499683
:101FF00060DA44E063E57CE0CE0149965ADA44E0D9
:102000006BE57CE0CE01499654DA44E063E47CE081
:10201000CE0149964EDA44E06FE87CE0CE01499665
:1020200048DA44E06FE47CE0CE01499642DA44E0CD
:102030006BE47CE0CE0149963CDA44E067E47CE066
:10204000CE01499636DA4CE06EE077E0CE01499653
:1020500030DA42E0BE01695E7F4FCE01499629DA4F
:1020600042E0BE016B5E7F4FCE01499622DA42E02C
:10207000BE016D5E7F4FCE0149961BDA42E0BE0184
:102080006F5E7F4FCE01499614DA42E0BE01615F78
:102090007F4FCE0149960DDA42E0BE01635F7F4F6C
:1020A000CE01499606DA42E0BE01655F7F4FCE0160
:1020B0004996FFD944E06BEF76E0CE014996F9D915
:1020C00044E060EB72E0CE014996F3D944E06CEA5B
:1020D00072E0CE014996EDD944E068EA72E0CE01A3
:1020E0004996E7D942E0BE01675F7F4FCE0149962E
:1020F000E0D941E06AE277E0CE014996DAD944E0DE
:1021000065E672E0CE014996D4D944E069E672E012
:10211000CE014996CED90E94AA1F0E946150E7E1E4
:10212000F8E08491882341F09091C00095FFFCCFA6
:102130008093C6003196F5CFE4EBF1E084918823DB
:1021400041F09091C00095FFFCCF8093C60031967E
:10215000F5CF8091C00085FFFCCF8AE08093C60058
:1021600001C0AADD6A960FB6F894DEBF0FBECDBFE0
:10217000DF91CF9108951F920F920FB60F92112405
:102180000BB60F922F933F934F935F936F938F9361
:102190009F93EF93FF936091C600209103053091C8
:1021A0000405C90101968F77992740910505509143
:1021B00006058417950741F0F901ED57FB4F608341
:1021C0009093040580930305FF91EF919F918F9168
:1021D0006F915F914F913F912F910F900BBE0F9098
:1021E0000FBE0F901F9018959A01AB01211581EE3B
:1021F00038074105510549F182E08093C00060E055
:1022000079E08DE390E00E946C642150310941092E
:102210005109CA01B90122E030E040E050E00E94DB
:102220006C643093C5002093C4008091C10080612C
:102230008093C1008091C10088608093C10080912B
:10224000C10080688093C10008951092C00020E111
:1022500030E0E7CF20910505309106058091030518
:10226000909104058217930771F0F901ED57FB4F28
:1022700080812F5F3F4F2F773327309306052093C0
:10228000050590E008958FEF9FEF08958091050573
:1022900090910605909304058093030508954F924D
:1022A0005F926F927F928F929F92AF92BF92CF92E6
:1022B000DF92EF92FF920F931F93CF93DF93CDB7EF
:1022C000DEB7A0970FB6F894DEBF0FBECDBF5C019E
:1022D0004115510561057105E9F420E030E040E366
:1022E00050E060E070E0A0960FB6F894DEBF0FBE3D
:1022F000CDBFDF91CF911F910F91FF90EF90DF90B5
:10230000CF90BF90AF909F908F907F906F905F9095
:102310004F905BC08E010F5F1F4FC12CD12C7601F7
:102320004801422E512C612C712C8FEFC81AD80A0B
:10233000E80AF80ACB01BA01A30192010E944A649B
:10234000CA01F80161938F01A901BC014115510532
:102350006105710551F7F1E0CF1AD108E108F108E4
:10236000F401EC0DFD1D80818A3010F440E301C0C2
:1023700047E3480F552747FD5095652F752F20E0FF
:1023800030E0C50122D081E0C81AD108E108F10887
:10239000EFEFCE16DE06EE06FE0611F7A0960FB69C
:1023A000F894DEBF0FBECDBFDF91CF911F910F918B
:1023B000FF90EF90DF90CF90BF90AF909F908F9065
:1023C0007F906F905F904F9008952115310539F4FB
:1023D0008091C00085FFFCCF4093C60008952A304D
:1023E000310509F41CC05BCFCF93DF93EC0120E0F3
:1023F00030E04DE050E060E070E0E7DF20E030E00A
:102400004AE050E060E070E0CE01DF91CF91DDCF97
:102410009A01AB01662757FD6095762FD6CFCF92F4
:10242000DF92EF92FF92CF93DF93EC016A017B0181
:1024300077FF0FC020E030E04DE250E060E070E058
:10244000C4DFF094E094D094C094C11CD11CE11C72
:10245000F11C2AE0B701A601CE01DF91CF91FF90D8
:10246000EF90DF90CF901BCF2115310539F480918B
:10247000C00085FFFCCF4093C600089510CF9A019D
:10248000462F50E060E070E0EFCFCF93DF93EC0198
:102490009A01AB0160E070E0E7DFCE01DF91CF9100
:1024A000A3CF8F929F92AF92BF92CF92DF92EF9283
:1024B000FF921F93CF93DF93EC016A017B01122FF0
:1024C00020E030E0A901C701B6010E94796087FFD2
:1024D0000CC020E030E04DE250E060E070E0CE0162
:1024E00074DFF7FAF094F7F8F094B12C60E070E044
:1024F00080E09FE3B11641F020E030E040E251E49B
:102500000E948060B394F6CF9B01AC01C701B60175
:102510000E94A05F6B017C010E94ED604B015C0199
:102520000E9419619B01AC01C701B6010E949F5F27
:102530006B017C012AE0B501A401CE01B0DE1123BC
:1025400061F0EAE6F4E08191882339F09091C000CF
:1025500095FFFCCF8093C600F6CF112319F120E040
:1025600030E040E251E4C701B6010E944E636B01C6
:102570007C010E94E8604B01AA2497FCA094BA2C2D
:10258000B501A401CE014BDFC501B4010E941B615E
:102590009B01AC01C701B6010E949F5F6B017C01EA
:1025A0001150DBCFDF91CF911F91FF90EF90DF9023
:1025B000CF90BF90AF909F908F90089572CFFC0105
:1025C000659175918591949108952F923F924F92C4
:1025D0005F926F927F928F929F92AF92BF92CF92B3
:1025E000DF92EF92FF920F931F93CF93DF9300D070
:1025F00000D0CDB7DEB71C01FC01E852F84F1491B2
:102600009C01220F331F220F331F3E832D83265E32
:10261000384F4901F901108211821282138226E299
:1026200037E042E257E06EE177E08AE197E00E940E
:1026300000458D819E818951984FC1DF6B017C01DE
:10264000612F772767FD7095872F972F0E941B6159
:102650002B013C012D813E812553394F590120E04A
:1026600030E040EC5FE3C701B6010E944E63A30176
:1026700092010E944E63F50160837183828393838C
:102680002D813E812B583D4F3C832B83F901608186
:1026900071818281938160930B0270930C0280930D
:1026A0000D0290930E0220E030E040E752E40E94D9
:1026B00080602AEEC22E26E0D22E7B018C0127ED0F
:1026C00036E043ED56E06FEC76E08BEC96E00E944E
:1026D000883A0E94E04DF401108211821282138226
:1026E00026E237E042E257E06EE177E08AE197E0E8
:1026F0000E9400452D813E812552384F3A8329831F
:10270000C9015DDF9058A30192010E944E63F5015B
:10271000608371838283938320E030E040E752E45A
:1027200060910B0270910C0280910D0290910E024B
:102730000E9480607B018C0127ED36E043ED56E07E
:102740006FEC76E08BEC96E00E94883A0E94E04DB8
:1027500089819A8134DF9B01AC010E94A05FA301B3
:1027600092010E944E63F50160837183828393839B
:1027700020E030E040E85EE3EB81FC816081718124
:10278000828193810E944E6360930B0270930C02CE
:1027900080930D0290930E0220E030E040E752E477
:1027A0000E9480607B018C0127ED36E043ED56E00E
:1027B0006FEC76E08BEC96E00E94883A0E94E04D48
:1027C0008D819E818D50984FFADE0D811E81025FB2
:1027D000184FF80120813181428153810E94A05F0E
:1027E000F40160837183828393838D819E81855FF1
:1027F000974FE5DE2D813E812E5F384F7901F8013C
:1028000020813181428153810E94A05FF701608362
:102810007183828393838D819E818150984FCFDE17
:102820002D813E812F5A3D4F7901F8012081318160
:10283000428153810E94A05FF7016083718382838C
:102840009383F40180819181A281B381F50180831A
:102850009183A283B38310920B0210920C02109208
:102860000D0210920E020E94A246F101E150F94FB2
:1028700081E0808326960FB6F894DEBF0FBECDBFF1
:10288000DF91CF911F910F91FF90EF90DF90CF904C
:10289000BF90AF909F908F907F906F905F904F9080
:1028A0003F902F900895FC012491222341F0309114
:1028B000C00035FFFCCF2093C6000196F4CF22E084
:1028C00030E082E894E07ACEFC012491222341F0AA
:1028D0003091C00035FFFCCF2093C6000196F4CFA5
:1028E0002AE030E082E894E0BFCDCF93DF931F92DF
:1028F0001F92CDB7DEB780912D0E90912E0E9E01C6
:102900002F5F3F4F009719F423533E4002C0281B0E
:10291000390B3A83298389819A810F900F90DF9137
:10292000CF910895859A8D980895E7E0F1E0808130
:102930008B7F80839FB7F894E8E0F1E080818B7F04
:1029400080839FBF0895EEDFF0DF40E052EC61E04E
:1029500070E082E894E048DCE2EDF7E084918823BF
:1029600041F09091C00095FFFCCF8093C600319656
:10297000F5CF8091C00085FFFCCF8AE08093C60030
:1029800087E198E0FC012491222341F03091C000BE
:1029900035FFFCCF2093C6003196F5CF24B720FF3A
:1029A00014C0EAECF7E03491332341F04091C000C9
:1029B00045FFFCCF3093C6003196F5CF3091C00073
:1029C00035FFFCCF3AE03093C60021FF14C0EAEB9C
:1029D000F7E03491332341F04091C00045FFFCCF34
:1029E0003093C6003196F5CF3091C00035FFFCCF53
:1029F0003AE03093C60022FF14C0E9EAF7E03491D0
:102A0000332341F04091C00045FFFCCF3093C60016
:102A10003196F5CF3091C00035FFFCCF3AE03093CE
:102A2000C60023FF14C0E9E9F7E03491332341F0F5
:102A30004091C00045FFFCCF3093C6003196F5CFE2
:102A40003091C00035FFFCCF3AE03093C60025FF3F
:102A500014C0E9E8F7E02491222341F03091C0004E
:102A600035FFFCCF2093C6003196F5CF2091C000F2
:102A700025FFFCCF2AE02093C60014BEE2E8F7E071
:102A80002491222341F03091C00035FFFCCF2093E8
:102A9000C6003196F5CFECE7F7E02491222341F010
:102AA0003091C00035FFFCCF2093C6003196F5CFA2
:102AB0002091C00025FFFCCF2AE02093C600FC0136
:102AC0002491E7E1F8E0222349F03091C00035FF7E
:102AD000FCCF2093C60031962491F5CFECE6F7E0C9
:102AE0002491222341F03091C00035FFFCCF209388
:102AF000C6003196F5CFE7E5F7E02491222341F0B7
:102B00003091C00035FFFCCF2093C6003196F5CF41
:102B1000EBE4F7E02491222341F03091C00035FF2F
:102B2000FCCF2093C6003196F5CFECE3F7E024917B
:102B3000222341F03091C00035FFFCCF2093C60026
:102B40003196F5CF2091C00025FFFCCF2AE02093DD
:102B5000C600E1E3F7E02491222341F03091C00068
:102B600035FFFCCF2093C6003196F5CFE5E2F7E0C4
:102B70002491222341F03091C00035FFFCCF2093F7
:102B8000C6003196F5CF2091C00025FFFCCF2AE08A
:102B90002093C600FC018491E7E1F8E0882349F026
:102BA0009091C00095FFFCCF8093C6003196849130
:102BB000F5CFE6E1F7E08491882341F09091C000E1
:102BC00095FFFCCF8093C6003196F5CF8EDE4AE0AC
:102BD00050E0BC0182E894E01BDCEFEFF6E084916A
:102BE000882341F09091C00095FFFCCF8093C600F0
:102BF0003196F5CF4AE050E060ED74E082E894E071
:102C000007DC8091C00085FFFCCF8AE08093C6007E
:102C1000109226051092270510922805109229057A
:102C2000A5D98091FB069091FC06A091FD06B0917C
:102C3000FE068093160790931707A0931807B0938A
:102C400019070E9418530E9422390E945D4DFFEF20
:102C500023ED80E3F15020408040E1F700C0000008
:102C6000089580911A0590911B0560E070E001962F
:102C70000C94B16480911A0590911B054AE050E0D4
:102C800060E070E001960C941966682F772767FD65
:102C90007095209124053091250540E6429FC001A2
:102CA000439F900D1124865D9A4F0E9484679093F4
:102CB0001B0580931A0521E0892B09F420E0822F5F
:102CC00008958F929F92AF92BF92CF92DF92EF9230
:102CD000FF920F931F93CF93DF9300D01F92CDB736
:102CE000DEB78091500224E0829FC0011124BC0114
:102CF000605C7D4FF0E5CF2EF2E0DF2EE12CF12C71
:102D000008EC12E426E237E042E257E0885B9D4F90
:102D10000E94883A80915002E0901002F0901102D7
:102D2000009112021091130224E0829FC00111242D
:102D3000BC01605D7D4F26E237E042E257E0885CEF
:102D40009D4F0E94883A80915002E0901002F090CE
:102D50001102009112021091130224E0829FC0011F
:102D60001124BC01605E7D4F26E237E042E257E06D
:102D7000885C9D4F0E94883A80915002E09010023A
:102D8000F0901102009112021091130224E0829F30
:102D9000C0011124BC01605E7D4F26E237E042E2B3
:102DA00057E0885D9D4F0E94883A80915002E090E4
:102DB0001002F0901102009112021091130224E00F
:102DC000829FC0011124BC01605C7D4F26E237E088
:102DD00042E257E0885B9D4F0E94883A8091500202
:102DE000E0901002F0901102009112021091130273
:102DF00024E0829FC0011124BC01605D7D4F26E26A
:102E000037E042E257E0885C9D4F0E94883A80910B
:102E10005002E0901002F090110200911202109105
:102E2000130224E0829FC0011124BC01605E7D4F2B
:102E300026E237E042E257E0885C9D4F0E94883AE4
:102E400080915002E0901002F09011020091120265
:102E50001091130224E0829FC0011124BC01605E26
:102E60007D4F26E237E042E257E0885D9D4F0E94A9
:102E7000883A8091EA0624E0829FC0011124BC01B7
:102E8000605C7D4FBAEECB2EB6E0DB2EE12CF12C50
:102E900008EC12E426E237E042E257E0885B9D4FFF
:102EA0000E94883A8091EA06E0901002F0901102A8
:102EB000009112021091130224E0829FC00111249C
:102EC000BC01605D7D4F26E237E042E257E0885C5E
:102ED0009D4F0E94883AC0902607D0902707E09027
:102EE0002807F090290720E030E040E751ECC701C7
:102EF000B6010E947C62B090EA0618160CF048C039
:102F000020E030E0A901C701B6010E94796087FF87
:102F10003FC080911C0290911D02A0911E02B091B1
:102F20001F028093E4069093E506A093E606B09313
:102F3000E706CB2CD12C20E030E040E752E4609152
:102F400018027091190280911A0290911B020E943E
:102F500080607B018C01C601880F991F880F991F23
:102F6000BC01605D7D4FEAEECE2EE6E0DE2E24EE63
:102F700036E042E257E0885C9D4F0E94883A10920A
:102F8000260710922707109228071092290749C098
:102F900020911C0230911D0240911E0250911F028F
:102FA000C701B6010E94A05F6093E4067093E50636
:102FB0008093E6069093E706E0901802F0901902DD
:102FC00000911A0210911B0224E0B29EC00111244C
:102FD000BC01605D7D4F4AEEC42E46E0D42E24EE47
:102FE00036E042E257E0885C9D4F0E94883A20918B
:102FF0001C0230911D0240911E0250911F026091EF
:1030000026077091270780912807909129070E9431
:10301000A05F6093260770932707809328079093FB
:10302000290786E297E00E94A545809018029090BB
:103030001902A0901A02B0901B0220E030E040E894
:103040005FE3609126077091270780912807909190
:1030500029070E949F5F69837A838B839C83809179
:10306000EA0624E0829FC0011124BC01605D7D4F0F
:103070003AEEC32E36E0D32E850174019E012F5FF8
:103080003F4F42E257E0885C9D4F0E94883A20E023
:1030900030E040E85FE36091260770912707809158
:1030A0002807909129070E949F5F609326077093DD
:1030B0002707809328079093290786E297E00E94CC
:1030C000A5458091EA06E0901002F090110200916F
:1030D00012021091130224E0829FC0011124BC014E
:1030E000605E7D4F26E237E042E257E0885C9D4F0C
:1030F0000E94883A8091EA06E0901002F090110256
:10310000009112021091130224E0829FC001112449
:10311000BC01605E7D4F26E237E042E257E0885D09
:103120009D4F0E94883A0F900F900F900F90DF9163
:10313000CF911F910F91FF90EF90DF90CF90BF90B4
:10314000AF909F908F9008950E942E5D609316051A
:10315000709317058093180590931905EBE3F4E03D
:103160008491882341F09091C00095FFFCCF80931B
:10317000C6003196F5CF8091C00085FFFCCF8AE074
:103180008093C600089582E894E080D8EEE3F4E0EE
:103190008491882341F09091C00095FFFCCF8093EB
:1031A000C6003196F5CF4091AF065091B0066091C0
:1031B000B1067091B2064F5F5F4F6F4F7F4F2AE0AD
:1031C00030E082E894E001D98091C00085FFFCCF17
:1031D0008AE08093C600B8CF8F929F92AF92BF9241
:1031E000CF92DF92EF92FF920F931F93CF93DF93D3
:1031F00037E1E32E34E0F32E0AE117E0CBECD6E022
:103200004DE2C42E47E0D42EF70181917F013DDDD0
:10321000882311F126DD4B015C01F60180818111CB
:1032200003C06091AA0601C061E070E080E090E018
:103230000E941B61F80120813181428153810E94EB
:103240004E639B01AC01C501B4010E94A05F68837D
:1032500079838A839B8309C0F80180819181A2814F
:10326000B38188839983AA83BB830C5F1F4F249605
:10327000FFEFCF1ADF0A8BE1E81684E0F80621F6AB
:1032800086E403DD8823D1F0ECDC6B017C016093E4
:10329000BB067093BC068093BD069093BE0620E0EB
:1032A00030E0A9010E947C62181644F4C0920B021F
:1032B000D0920C02E0920D02F0920E02DF91CF91BB
:1032C0001F910F91FF90EF90DF90CF90BF90AF9044
:1032D0009F908F90089580DF89E4D7DC882351F098
:1032E000C0DC6093BF067093C0068093C1069093C4
:1032F000C20608C01092BF061092C0061092C10606
:103300001092C2068AE4C1DC882351F0AADC6093E3
:10331000C3067093C4068093C5069093C6060895AD
:103320001092C3061092C4061092C5061092C606EB
:103330000895CF92DF92EF92FF92CF93DF93EC014B
:10334000C0900207D0900307E0900407F0900507B3
:10335000A7019601688179818A819B810E947960A9
:1033600087FF04C0C882D982EA82FB82C090060728
:10337000D0900707E0900807F0900907A701960191
:103380006C817D818E819F810E94796087FF04C05E
:10339000CC82DD82EE82FF8220E030E0A9016091E4
:1033A0000A0770910B0780910C0790910D070E94FE
:1033B000A05F6B017C019B01AC01688579858A85E2
:1033C0009B850E94796087FF04C0C886D986EA86FB
:1033D000FB86C0905102D0905202E0905302F090D0
:1033E0005402A7019601688179818A819B810E949C
:1033F0007C62181624F4C882D982EA82FB82C090CB
:103400005502D0905602E0905702F0905802A70162
:1034100096016C817D818E819F810E947C6218164D
:1034200024F4CC82DD82EE82FF82C0905902D090DB
:103430005A02E0905B02F0905C02A7019601688559
:1034400079858A859B850E947C62181624F4C8863B
:10345000D986EA86FB86DF91CF91FF90EF90DF90CF
:10346000CF900895CF92DF92EF92FF920F931F9328
:103470008BEC96E05EDF0E942E5D609316057093E4
:10348000170580931805909319052091CB0630916C
:10349000CC064091CD065091CE0660911A077091EE
:1034A0001B0780911C0790911D070E947960811174
:1034B00079C02091CF063091D0064091D10650912D
:1034C000D20660911E0770911F078091200790918E
:1034D00021070E947960811165C020E030E040E75B
:1034E00052E460910B0270910C0280910D02909158
:1034F0000E020E9480605AEEC52E56E0D52E7B014A
:103500008C0127ED36E043ED56E06FEC76E08BEC76
:1035100096E00E94883A8091CB069091CC06A091CB
:10352000CD06B091CE0680931A0790931B07A09307
:103530001C07B0931D078091CF069091D006A091F3
:10354000D106B091D20680931E0790931F07A093D7
:103550002007B09321078091D3069091D406A091C3
:10356000D506B091D6068093220790932307A093A7
:103570002407B09325078091D7069091D806A09193
:10358000D906B091DA068093260790932707A09377
:103590002807B09329071F910F91FF90EF90DF90BC
:1035A000CF9008956091730270917402882777FD1F
:1035B0008095982F0E941B6120910B0230910C0284
:1035C00040910D0250910E020E944E6320E030E0C7
:1035D00040E752E40E94806020E030E048EC52E492
:1035E00088CFAF92BF92CF92DF92EF92FF920F936C
:1035F0001F93CF93DF93D82F2091C3063091C40639
:103600004091C5065091C6066091BF067091C006F4
:103610008091C1069091C2060E948962C62F172F21
:10362000082FF92E6091730270917402882777FD3C
:103630008095982F0E941B6120910B0230910C0203
:1036400040910D0250910E020E944E6320E030E046
:1036500040E752E40E94806020E030E048EC52E411
:103660000E9480602091EA062F93DF93FF920F93D0
:103670001F93CF935B016C0162E0E62E01E020E036
:103680004FEB56E06BEC76E08AE197E00E94FA316E
:103690008091CB069091CC06A091CD06B091CE063C
:1036A00080931A0790931B07A0931C07B0931D07E4
:1036B0008091CF069091D006A091D106B091D2060C
:1036C00080931E0790931F07A0932007B0932107B4
:1036D0008091D3069091D406A091D506B091D606DC
:1036E0008093220790932307A0932407B093250784
:1036F0008091D7069091D806A091D906B091DA06AC
:103700008093260790932707A0932807B093290753
:103710000E942E5D6093160570931705809318051F
:10372000909319050F900F900F900F900F900F909E
:10373000DF91CF911F910F91FF90EF90DF90CF908D
:10374000BF90AF900895F8940E9418545F9A109219
:10375000FF068A9A109200079FB7F894809108019B
:103760008160809308019FBF10920107129A479AC7
:1037700060E08CE00E94FA5EEDE1F8E0849188233D
:1037800041F09091C00095FFFCCF8093C600319628
:10379000F5CFECE1F4E08491882341F09091C000F2
:1037A00095FFFCCF8093C6003196F5CF8091C00085
:1037B00085FFFCCF8AE08093C6007894C6E0D0E015
:1037C000219739F068EC70E080E090E00E945D5D48
:1037D000F7CFF894FFCF4F925F926F927F928F92C4
:1037E0009F92BF92CF92DF92EF92FF920F931F931F
:1037F000CF93DF9370E6D72E04E010E0EEEDEE2ECF
:10380000E5E0FE2EFAE0CF2EBB24B39480910305B1
:10381000909104052091050530910605821B930BBC
:103820008F779927892B09F412C2809120059091F6
:10383000210504970CF00BC282E894E00E942A1143
:1038400080931F0520911D0530911E058A3061F07F
:103850008D3051F08A3321F490911C05992321F089
:103860002F3531050CF419C12115310519F41092C9
:103870001C05EDC18091220590912305D89E400141
:10388000D99E900C1124F401E20FF31FE65DFA4F6C
:10389000108220911C052111FBC0FC01EA5DFA4F4A
:1038A0001082E401C65DDA4F6EE470E0CE010E9442
:1038B00084670097F1F190931B0580931A058C1B88
:1038C0009D0B880D991D4AE050E060E070E0855D39
:1038D0009A4F0E9419666093B3067093B406809362
:1038E000B5069093B6064090AF065090B006609033
:1038F000B1067090B2062FEF421A520A620A720A9B
:10390000C0912205D091230564157505860597059C
:1039100009F4E1C0DC9EC001DD9E900D11246AEF28
:1039200076E0865D9A4F0E946A67892B09F0D3C0C2
:1039300061C16AE270E0CE010E948467892B09F4BC
:1039400044C0EDE1F8E08491882341F09091C000FB
:1039500095FFFCCF8093C6003196F5CFE4E5F6E005
:103960008491882341F09091C00095FFFCCF809313
:10397000C6003196F5CF4091AF065091B0066091E8
:10398000B1067091B2062AE030E082E894E00E942D
:10399000E5118091C00085FFFCCF8AE08093C600CE
:1039A00010921E0510921D0552C18091B306909190
:1039B000B406A091B506B091B6068093AF06909379
:1039C000B006A093B106B093B20680912205909103
:1039D0002305D89EE001D99ED00D1124CE01865D2D
:1039E0009A4F4C0167E470E00E948467009761F190
:1039F00090931B0580931A05881999098C0F9D1FB8
:103A000060E070E0855D9A4F0E94B1640E94E860BA
:103A100064307105C8F4809108058823A9F0F70186
:103A20008491EEEDF5E0882349F09091C00095FF78
:103A3000FCCF8093C60031968491F5CF8091C00071
:103A400085FFFCCFC092C600C0912205D09123050E
:103A5000DC9EC001DD9E900D112464EE72E0865D57
:103A60009A4F0E948F67892B09F46DDECE01019673
:103A7000B8010E94376490932305809322058091BA
:103A800020059091210501969093210580932005B2
:103A900010921E0510921D05B9CE8B3311F4B09211
:103AA0001C0590911C059111B1CE409122055091B9
:103AB0002305B9016F5F7F4F70931E0560931D054D
:103AC000D49EF001D59EF00D1124E20FF31FE65DA8
:103AD000FA4F80839BCEDC9E4001DD9E900C11242A
:103AE000C401865D9A4F3C016AE270E00E948467DF
:103AF000009789F5EDE1F8E08491882341F09091F9
:103B0000C00095FFFCCF8093C6003196F5CFEEE75D
:103B1000F6E08491882341F09091C00095FFFCCF9E
:103B20008093C6003196F5CF4091AF065091B00614
:103B30006091B1067091B2062AE030E082E894E02C
:103B40000E94E5118091C00085FFFCCF8AE0809340
:103B5000C60019DB25CF20E0C0E0F401E20FF11D23
:103B6000E65DFA4F30813A3219F02F5FC327F5CF67
:103B700090931B0580931A0586199709880D991D46
:103B800060E070E0855D9A4F0E94B1640E94E86039
:103B9000D0E0C617D70709F408CFEDE1F8E084912B
:103BA000882341F09091C00095FFFCCF8093C60020
:103BB0003196F5CFE8EAF6E08491882341F09091C0
:103BC000C00095FFFCCF8093C6003196F5CF4091A1
:103BD000AF065091B0066091B1067091B2062AE02E
:103BE00030E082E894E00E94E5118091C00085FFFA
:103BF000FCCFACCFEDE1F8E08491882341F09091C7
:103C0000C00095FFFCCF8093C6003196F5CFE7EC5E
:103C1000F6E08491882341F09091C00095FFFCCF9D
:103C20008093C6003196F5CF4091AF065091B00613
:103C30006091B1067091B2062AE030E082E894E02B
:103C40000E94E5118091C00085FFFCCF7FCFDF91FE
:103C5000CF911F910F91FF90EF90DF90CF90BF9089
:103C60009F908F907F906F905F904F900895CF922C
:103C7000DF92EF92FF920F931F93CF93C82F809103
:103C800020059091210503970CF4A5DD0E942E5D7F
:103C9000009112051091130520911405309115051E
:103CA000C0901605D0901705E0901805F090190502
:103CB0006C197D098E099F09061717072807390710
:103CC00028F4012B022B032B09F03DDD4091070264
:103CD000509108026091090270910A02452B462B0F
:103CE000472B19F10E942E5D0091160510911705C2
:103CF0002091180530911905601B710B820B930BF5
:103D000000910702109108022091090230910A02E5
:103D1000061717072807390740F490913A07809152
:103D20003907981302C0CC2349F0CF911F910F910E
:103D3000FF90EF90DF90CF900C946B3A5F9A1092C7
:103D4000FF068A9A109200079FB7F89480910801A5
:103D50008160809308019FBF10920107129A479AD1
:103D6000E4CF0E94185480910805811134C081E08D
:103D7000809308058091AF069091B006A091B1069E
:103D8000B091B2068093AB069093AC06A093AD06BB
:103D9000B093AE06EDE1F8E08491882341F0909174
:103DA000C00095FFFCCF8093C6003196F5CFE6EAC0
:103DB000F3E08491882341F09091C00095FFFCCFFF
:103DC0008093C6003196F5CF8091C00085FFFCCF6F
:103DD0008AE08093C6000895809108050895CF93E6
:103DE000DF93EC018091EA068093090584E50E9447
:103DF0004516811102C080E075C00E9431160E94F4
:103E0000ED60609309056230B0F3E7E1F8E084917A
:103E1000882341F09091C00095FFFCCF8093C600AD
:103E20003196F5CFCD36D105B9F054F4C836D10569
:103E3000B1F0C936D10509F045C0EEE2F3E021C08A
:103E4000CA3DD10531F0CD3DD105E1F5E9EEF2E015
:103E500036C0E0E0F3E029C0E7E1F3E01CC0E5E4B0
:103E6000F3E08191882371F19091C00095FFFCCF20
:103E70008093C600F6CF9091C00095FFFCCF809351
:103E8000C60081918111F7CF1DC09091C00095FFB0
:103E9000FCCF8093C60081918111F7CF13C0909120
:103EA000C00095FFFCCF8093C60081918111F7CFB0
:103EB00009C09091C00095FFFCCF8093C60081910E
:103EC0008111F7CF40E050E06091090582E894E06D
:103ED0000E943F128091C00085FFFCCF8AE0809352
:103EE000C60081E0DF91CF910895CF92DF92EF92EB
:103EF000FF9220912A072223F1F020E030E040E0F9
:103F00005FE30E944E636B017C0120E030E0A90179
:103F10000E947960882379F0A7019601C701B60154
:103F20000E944E632BED3FE049E450E40E944E6353
:103F30009B01AC0104C020E030E040E85FE360E0BA
:103F400070E080E89FE30E948060FF90EF90DF9038
:103F5000CF9008956091650270916602809167022A
:103F600090916802C2DF60935D0270935E0280935D
:103F70005F02909360026091690270916A02809181
:103F80006B0290916C02B1DF6093610270936202E8
:103F9000809363029093640208953F924F925F92E0
:103FA0006F927F928F929F92AF92BF92CF92DF9249
:103FB000EF92FF920F931F93CF93DF93CDB7DEB7AE
:103FC000A0970FB6F894DEBF0FBECDBF87E40E9466
:103FD0004516882309F418C20E9431160E94E86031
:103FE0006430710509F43BC044F46230710519F185
:103FF00064F577FF17C00C943E306A35710509F4FB
:10400000AFC134F46C31710509F46BC00C943E30CF
:104010006B35710509F4A8C16C35710509F4A9C1A6
:104020000C943E308091080581110C943E30D4D818
:1040300019DA0C943E308091080581110C943E30C1
:104040004AD981E0CEDA0C943E3080910805811186
:104050000C943E3040D980E0C4DA0C943E3080E5C8
:104060000E944516882339F00E9431160E94ED60A7
:104070004B015C0103C0812C912C540183E50E940B
:104080004516882361F00E94311620E030E04AE7AF
:1040900054E40E944E630E94ED604B015C010E945B
:1040A000E04D0E942E5D6B017C01C80CD91CEA1CFE
:1040B000FB1C0E942E5D609316057093170580937C
:1040C0001805909319050E942E5D6C157D058E05CF
:1040D0009F0510F00C943E300E948B5080E0C7DDAD
:1040E000F2CF80910B0290910C02A0910D02B09141
:1040F0000E028093B7069093B806A093B906B093CA
:10410000BA06809173029091740290932C07809369
:104110002B0784E690E090937402809373020E94D0
:104120002E5D609316057093170580931805909384
:10413000190581E00E94A94680911A0790911B07FA
:10414000A0911C07B0911D078093CB069093CC06DD
:10415000A093CD06B093CE0680911E0790911F07C5
:10416000A0912007B09121078093CF069093D006AD
:10417000A093D106B093D206809122079091230795
:10418000A0912407B09125078093D3069093D4067D
:10419000A093D506B093D606809126079091270765
:1041A000A0912807B09129078093D7069093D8064D
:1041B000A093D906B093DA0610920B0210920C026B
:1041C00010920D0210920E0288E50E944516882377
:1041D00011F090E00AC089E50E9445168111F9CFDF
:1041E0008AE50E94451691E0982790930F0291115D
:1041F0000C9441308AE50E94451681110C9441309F
:1042000080910F0281110C94473088E50E94451679
:1042100081110C94473080910F0281110C944D3024
:1042200089E50E94451681110C944D3088E50E9465
:1042300045168823D1F00E943A16672B682B692B0C
:10424000A1F00E94311620910E0730910F07409186
:104250001007509111070E94A05F60931A07709396
:104260001B0780931C0790931D0789E50E94451644
:104270008823D1F00E943A16672B682B692BA1F096
:104280000E943116209112073091130740911407B4
:10429000509115070E94A05F60931E0770931F073F
:1042A00080932007909321078AE50E944516882372
:1042B000D1F00E943A16672B682B692BA1F00E945F
:1042C0003116209116073091170740911807509129
:1042D00019070E94A05F60932207709323078093C1
:1042E00024079093250726E237E042E257E06EE18B
:1042F00077E08AE197E00E94004580E00E94A946AD
:104300008091B7069091B806A091B906B091BA060F
:1043100080930B0290930C02A0930D02B0930E02B7
:1043200080912B0790912C079093740280937302D5
:104330000E942E5D609316057093170580931805F3
:10434000909319050E94A2460E942E5D609331074A
:104350007093320780933307909334070C943E3068
:104360001092AA060C943E3081E08093AA060C9429
:104370003E3085E40E944516811102C00E94E04D46
:1043800097E1C92E94E0D92E2EE0E22E27E0F22EFE
:104390000AE117E0B12CF60181916F010E944516E8
:1043A000882339F1F3E0BF120CC00E943116F801E6
:1043B000608371838283938386E297E00E94A545A0
:1043C00018C00E943116F70120813181428153814A
:1043D0000E94A05FF801608371838283938326E249
:1043E00037E042E257E06EE177E08AE197E00E9431
:1043F0000045B394F4E0EF0EF11C0C5F1F4F24E076
:10440000B212C9CF0C943E308DE40E944516882329
:1044100011F40C94EA2E0E9431160E94E8606C3868
:10442000710509F43CC20CF08EC06836710509F4C0
:1044300009C20CF04DC06135710509F46DC5E4F495
:104440006F31710509F434C154F46131710509F417
:1044500021C16231710509F479C50C943E306A328C
:10446000710509F4A8C16035710511F00C943E3056
:10447000269A2E980C943E306435710509F466C571
:1044800074F46235710509F45DC56335710511F089
:104490000C943E3081E0809330070C943E306535BB
:1044A000710509F48CC56C35710511F00C943E3022
:1044B00027E134E038A32F8F0FE61CE0BFE78B2EF7
:1044C000BCE09B2E83E3A82E8CE0B82E312CF2C5E5
:1044D0006237710509F41DC6CCF46B36710509F419
:1044E00015C554F46936710509F4EAC16A367105D7
:1044F00009F4DCC40C943E306D36710509F40EC32A
:104500006037710511F00C943E301DD96737710585
:1045100009F4BDC054F46337710509F4DDC565378E
:10452000710509F4E7C50C943E306837710509F44C
:10453000CFC66937710511F00C943E3081E00E94BE
:10454000A9460C943E306D3231E0730711F40C949F
:104550008E2C0CF03DC06D3C710511F40C94DB2ADF
:10456000CCF4693C710509F4CAC754F46E3B71057B
:1045700009F49BC3683C710509F430C70C943E30C4
:104580006B3C710509F4DBC76C3C710509F4F3C79A
:104590000C943E306C3D710511F40C94002C64F4C5
:1045A0006E3C710511F40C94392B6A3D710511F4C0
:1045B0000C94652B0C943E306D3D710511F40C94F8
:1045C0000F2C623E710511F40C94352C0C943E3086
:1045D000663F91E0790711F40C94A02D1CF5603929
:1045E000F1E07F0711F40C949A2D6CF46E3231E0F7
:1045F000730711F40C94542D6F32714011F40C9424
:10460000622D0C943E30643F91E0790711F40C94D4
:104610009D2D653F714011F00C943E300E94B60F05
:104620000C943E30643EF3E07F0711F40C947B2E33
:104630006CF4673F31E0730711F40C94A32D6335DC
:10464000734011F40C94A62D0C943E30663E93E01A
:10465000790711F40C949D2E673E734011F00C9471
:104660003E30109208058091AB069091AC06A09167
:10467000AD06B091AE068093AF069093B006A093BE
:10468000B106B093B2060E94C3180C943E30EBE61C
:10469000F3E028C65F988A989FB7F8948091080144
:1046A0008E7F809308019FBF129847980C943E30EC
:1046B0000E942E5D60930A0570930B0580930C0594
:1046C00090930D0500910E0510910F052091100596
:1046D00030911105601B710B820B930B28EE33E0B8
:1046E00040E050E00E944A64CA01B9012CE330E086
:1046F00040E050E00E944A647F936F933F932F9372
:104700008FEC95E09F938F93CE0101969F938F93AB
:104710000E94A667E7E1F8E084910FB6F894DEBF47
:104720000FBECDBF882349F09091C00095FFFCCF0C
:104730008093C60031968491F5CFFE013196819128
:10474000882339F09091C00095FFFCCF8093C6007C
:10475000F6CF8091C00085FFFCCF8AE08093C60031
:1047600080910E0C882311F40C943E3010920E0CA4
:104770000091EA0610E0000F111F0F59124FF801C7
:1047800060817181882777FD8095982F0E941B6139
:1047900020918D0230918E0240918F0250919002B3
:1047A0000E947C62181614F00C943E30F8011182BD
:1047B00010820C943E3083E50E944516882311F444
:1047C0000C943E300E9431160E94E860F62EE72ECF
:1047D000862F9E2D8C0180E50E944516882331F09E
:1047E0000F3F110509F010F40C9453300DE010E068
:1047F000E7EDF3E0819191918017910711F40C940A
:104800003E3024E0E731F207A9F70930110539F409
:104810008F2D9E2D9093E9068093E80604C017FF24
:1048200002C00C943E3061E0802F0E94FA5E6F2D32
:10483000802F0E94335F6F2D7E2D802F0E94E45DBC
:104840000C943E3088E690E0CADA81110C943E3038
:1048500083E50E9445168823F1F0009109050E9426
:10486000311610E0000F111F0F59124F0E94E8601F
:10487000F801718360830091090510E00E943116F0
:10488000F801EE0FFF1FEE0FFF1FE452F94F608398
:104890007183828393830E9417540C943E3083E586
:1048A0000E944516882311F40C943E300E94311664
:1048B0000E94E8607093600D60935F0D0C943E3031
:1048C00089E690E08CDA81110C943E30E9ECF5E059
:1048D0008491882341F09091C00095FFFCCF809394
:1048E000C6003196F5CFE091090524E0E29FF00182
:1048F0001124ED5AF24F408151816281738121E090
:1049000030E082E894E00E94DE12E6ECF5E084916B
:10491000882341F09091C00095FFFCCF8093C600A2
:104920003196F5CFE0910905F0E0EE0FFF1FEF594A
:10493000F24F60817181882777FD8095982F0E94C2
:104940001B61AB01BC0121E030E082E894E00E94F1
:10495000DE12E2ECF5E08491882341F09091C000F2
:1049600095FFFCCF8093C6003196F5CF40914B0D5B
:1049700050914C0D60914D0D70914E0D21E030E045
:1049800082E894E00E94DE12EFEBF5E08491882348
:1049900041F09091C00095FFFCCF8093C600319606
:1049A000F5CF60915F0D7091600D882777FD809540
:1049B000982F0E941B61AB01BC0121E030E082E82E
:1049C00094E00E94DE1251E6E52E5DE0F52E63E5EF
:1049D000C62E6DE0D62E00E010E07CEB672E75E071
:1049E000772EEAEBAE2EE5E0BE2EF7EB8F2EF5E04C
:1049F0009F2EF3018491ECEBF5E0882349F0909130
:104A0000C00095FFFCCF8093C60031968491F5CF0E
:104A10004AE050E0B80182E894E00E940812F501F3
:104A20008491EAEBF5E0882349F09091C00095FF6E
:104A3000FCCF8093C60031968491F5CFF601419169
:104A40005191619171916F0121E030E082E894E031
:104A50000E94DE12F4018491E7EBF5E0882349F02F
:104A60009091C00095FFFCCF8093C6003196849151
:104A7000F5CFF701619171917F01882777FD8095CE
:104A8000982F0E941B61AB01BC0121E030E082E85D
:104A900094E00E94DE120F5F1F4F0230110509F0F3
:104AA000A8CFE3EBF5E08491882341F09091C0001A
:104AB00095FFFCCF8093C6003196F5CF8091090514
:104AC00090E00E9480504AE050E0BC0182E894E00F
:104AD0000E940812EBEAF5E08491882341F090915E
:104AE000C00095FFFCCF8093C6003196F5CF409172
:104AF000470D5091480D6091490D70914A0D22E08B
:104B000030E082E894E00E94DE128091C00085FFD0
:104B1000FCCF8AE08093C6000C94B5318DE690E01E
:104B20005ED981110C943E3010920E0C83E50E94E8
:104B30004516882311F1009109050E94311610E0F5
:104B4000000F111F0F59124F0E94E860F801718386
:104B500060830091090510E00E943116F801EE0F04
:104B6000FF1FEE0FFF1FE452F94F608371838283B2
:104B7000938381E08093060215C082E50E9445166A
:104B8000882381F0009109050E94311610E0000F82
:104B9000111F0F59124F0E94E860F8017183608362
:104BA0001092060283E50E944516882351F00E9468
:104BB000311660938D0270938E0280938F029093D2
:104BC000900282E40E944516882351F00E9431161B
:104BD0006093910270939202809393029093940257
:104BE00086E40E944516882369F00E94311660937E
:104BF000890270938A0280938B0290938C0281E0E9
:104C000080930E0C0E9417540E942E5D4B015C0194
:104C10000091090510E0F801EE0FFF1FEF59F24F68
:104C200060817181882777FD8095982F0E941B6194
:104C3000F801EE0FFF1FEE0FFF1FED5AF24F11E0CC
:104C400020813181428153810E947C6218160CF0D0
:104C500010E0109307051092DB06CC24CA94DC2CDC
:104C60007601F8EE4F2EF3E05F2E612C712CAAE056
:104C70003A2E8091DB0681110C945A30FFEFCF164B
:104C8000DF06EF06FF0611F40C947930F7FE02C040
:104C90000C945A300E942E5D6C197D096031774268
:104CA00010F40C9479300C945A3083E50E94451628
:104CB000882361F00E9431160E94E8607093600DB5
:104CC00060935F0D81E0809306020FC082E50E9431
:104CD0004516882351F00E9431160E94E8607093B7
:104CE000600D60935F0D109206020E942E5D4B01D5
:104CF0005C011092DB0660915F0D7091600D88275A
:104D000077FD8095982F0E941B6111E020914B0D3B
:104D100030914C0D40914D0D50914E0D0E947C6292
:104D200018160CF010E0109307050DE915E099E94D
:104D3000E92E95E0F92E25E9C22E25E0D22E3AE0A3
:104D4000732E8091070560915F0D7091600D88232F
:104D500009F489C08091DB06811185C0882777FD21
:104D60008095982F0E941B6120914B0D30914C0D26
:104D700040914D0D50914E0D0E947C6218160CF022
:104D800089C00E942E5D681979098A099B09693ECC
:104D900073408105910508F460C0E091EA0684E063
:104DA000E89FF0011124ED5AF24F40815181628158
:104DB0007381F8018491EDE9F5E0882349F0909141
:104DC000C00095FFFCCF8093C60031968491F5CF4B
:104DD00022E030E082E894E00E94DE12F701849144
:104DE000E9E9F5E0882349F09091C00095FFFCCFF8
:104DF0008093C60031968491F5CF6091EA0670E009
:104E00004AE050E082E894E00E940812F6018491A2
:104E1000E5E9F5E0882349F09091C00095FFFCCFCB
:104E20008093C60031968491F5CF40914B0D5091FF
:104E30004C0D60914D0D70914E0D21E030E082E8F7
:104E400094E00E94DE128091C00085FFFCCF70923A
:104E5000C6000E942E5D4B015C010E948B5080E0D9
:104E60000E94371E6ECF882777FD8095982F0E946D
:104E70001B6120914B0D30914C0D40914D0D509187
:104E80004E0D0E94796087FF05C08091060288233D
:104E900009F477CF0E942E5D609316057093170575
:104EA00080931805909319050C943E3083E50E9479
:104EB0004516882319F10E94311620E030E0A9013F
:104EC0000E94796087FD0FC00E94311620E030E01B
:104ED0004FE753E40E947C62181644F00E9431169A
:104EE0000E94E86005C060E070E002C06FEF70E013
:104EF0007093E9066093E8060C943E308FEF90E0E3
:104F00009093E9068093E8060C943E301092E906EF
:104F10001092E8060C943E300E9418540E94E04D16
:104F2000129A479A0E94474E1092E9061092E8069C
:104F300068EE73E080E090E00E945D5D269A2E9A14
:104F40000C943E30109230070C943E3083E50E9462
:104F500045168823A1F00E94311620E030E04AE790
:104F600054E40E944E630E94ED60609307027093C8
:104F700008028093090290930A020C943E3088E55F
:104F80000E94451681110C948B3189E50E944516CB
:104F900081110C948B318AE50E94451681110C9485
:104FA0008B3185E40E94451681110C948B310E944F
:104FB000E04D129A479A0E94474E0C943E3083E58A
:104FC0000E944516882311F40C943E300E9431163D
:104FD00020E030E04AE754E40E944E630E94ED6016
:104FE0006093120570931305809314059093150533
:104FF0000C943E30F3E03F1267C00E9431166B0103
:105000007C0120E030E040EA51E40E94796087FFB3
:105010003FC0A7019601F80160817181828193816F
:105020000E9480602B013C019B01AC016091470C08
:105030007091480C8091490C90914A0C0E944E63EB
:105040006093470C7093480C8093490C90934A0CE2
:10505000A3019201F40160817181828193810E9498
:105060004E63F4016083718382839383F5016081D1
:105070007181828193810E941961A30192010E9432
:105080004E630E94ED60F501608371838283938398
:10509000F801C082D182E282F38233940C5F1F4F09
:1050A000F4E08F0E911C24E0A20EB11C34E0331604
:1050B00009F4E4C7EF8DF8A18191F8A3EF8F0E9466
:1050C0004516882351F396CF0E943116F80160836C
:1050D000718382839383E1CFE7EDF4E084918823A9
:1050E00009F4CCC79091C00095FFFCCF8093C60017
:1050F0003196F4CF80911A0590911B056AE270E019
:1051000005960E948467009709F4B8C7FC011082D5
:10511000B5C7E4EDF4E08491882341F09091C0009C
:1051200095FFFCCF8093C6003196F5CF40911A07CA
:1051300050911B0760911C0770911D0722E030E021
:1051400082E894E00E94DE12E0EDF4E0849188238E
:1051500041F09091C00095FFFCCF8093C60031963E
:10516000F5CF40911E0750911F0760912007709165
:10517000210722E030E082E894E00E94DE12ECECAD
:10518000F4E08491882341F09091C00095FFFCCF1A
:105190008093C6003196F5CF4091220750912307A6
:1051A000609124077091250722E030E082E894E0C6
:1051B0000E94DE12E8ECF4E08491882341F09091A3
:1051C000C00095FFFCCF8093C6003196F5CF40918B
:1051D000260750912707609128077091290722E040
:1051E00030E082E894E00E94DE12EDEBF4E084917E
:1051F000882341F09091C00095FFFCCF8093C600BA
:105200003196F5CF0E94394E0E941B6120916F0CA0
:105210003091700C4091710C5091720C0E94806022
:10522000AB01BC0122E030E082E894E00E94DE1293
:10523000E9EBF4E08491882341F09091C00095FF60
:10524000FCCF8093C6003196F5CF81E00E94394EA5
:105250000E941B612091730C3091740C4091750C6D
:105260005091760C0E948060AB01BC0122E030E0DE
:1052700082E894E00E94DE12E5EBF4E0849188235A
:1052800041F09091C00095FFFCCF8093C60031960D
:10529000F5CF82E00E94394E0E941B612091770C6D
:1052A0003091780C4091790C50917A0C0E9480607A
:1052B000AB01BC0122E030E082E894E00E94DE1203
:1052C0008091C00085FFFCCF8AE08093C600D6C6DF
:1052D00080E00E94A946D2C69091C00095FFFCCF05
:1052E0008093C60081918111F7CF8091C00085FF26
:1052F000FCCF8AE08093C600EDEAF4E08491882335
:1053000041F09091C00095FFFCCF8093C60031968C
:10531000F5CF659B03C0ECE5F3E009C0E6E6F3E0FA
:1053200006C09091C00095FFFCCF8093C60081918C
:105330008111F7CF8091C00085FFFCCF8AE0809378
:10534000C600E5EAF4E08491882341F09091C00022
:1053500095FFFCCF8093C6003196F5CF8091030175
:1053600081FF03C0ECE5F3E009C0E6E6F3E006C028
:105370009091C00095FFFCCF8093C6008191811170
:10538000F7CF8091C00085FFFCCF8AE08093C600F4
:10539000EDE9F4E08491882341F09091C00095FFFD
:1053A000FCCF8093C6003196F5CF4A9B03C0ECE555
:1053B000F3E009C0E6E6F3E006C09091C00095FF77
:1053C000FCCF8093C60081918111F7CF8091C000FE
:1053D00085FFFCCF8AE08093C60050C68091EA0624
:1053E0008093090584E50E944516882311F10E94E7
:1053F00031160E94ED60609309056230D0F0E7E15C
:10540000F8E08491882341F09091C00095FFFCCF93
:105410008093C6003196F5CFE6E8F3E081918823CA
:1054200009F42CC69091C00095FFFCCF8093C60074
:10543000F5CF84E40E944516882309F41FC60E9414
:10544000311620E030E0A9010E947960811103C08B
:1054500010922A0751C00091090510E00E943116F0
:10546000F801EE0FFF1FEE0FFF1FEB59FD4F60839A
:10547000718382839383E0906502F09066020091CD
:1054800067021091680220E030E0A901B701C8016D
:105490000E947960811104C0E12CF12C00E410E439
:1054A000C701D8018093650290936602A0936702BA
:1054B000B0936802E0906902F0906A0200916B027A
:1054C00010916C0220E030E0A901B701C8010E94F0
:1054D0007960811104C0E12CF12C00E410E4C701D3
:1054E000D8018093690290936A02A0936B02B093F3
:1054F0006C0281E080932A070E94AA1FBFC507E1C2
:1055000014E05FE5E52E5CE0F52EF80181918F0156
:105510000E944516882349F00E9431160E94ED60D2
:10552000F7016083718382839383F4E0EF0EF11CB3
:1055300024E00B31120749F70E94CB459FC507E1D4
:1055400014E04FE7E42E4CE0F42EF80181918F0136
:105550000E944516882339F00E943116F7016083B6
:10556000718382839383F4E0EF0EF11C24E00B310E
:10557000120759F783C583E50E944516882351F029
:105580000E9431166093570C7093580C8093590CFD
:1055900090935A0C84E50E944516882309F46EC541
:1055A0000E9431166093530C7093540C8093550CE9
:1055B0009093560C63C583E50E944516882351F0ED
:1055C0000E94311660935B0C70935C0C80935D0CB1
:1055D00090935E0C84E50E944516882351F00E944A
:1055E00031166093430C7093440C8093450C909358
:1055F000460C82E40E944516882361F00E94311611
:105600000E94ED6060938F0C7093900C8093910CCE
:105610009093920C88E50E944516882351F00E94D1
:10562000311660934F0C7093500C8093510C9093F3
:10563000520C8AE50E944516882351F00E943116CB
:1056400060934B0C70934C0C80934D0C90934E0CCC
:1056500085E40E944516882309F410C50E9431167E
:105660006093470C7093480C8093490C90934A0CBC
:1056700005C507E114E03EE0E32E37E0F32EF80124
:1056800081918F010E944516882339F00E943116BE
:10569000F7016083718382839383F4E0EF0EF11C42
:1056A00024E00A31120759F78091160790911707E5
:1056B000A0911807B09119078093FB069093FC0600
:1056C000A093FD06B093FE06D9C48AED90E00E9437
:1056D000EF1E8111D3C488E50E944516882381F00E
:1056E0000091090510E00E943116F801EE0FFF1F2E
:1056F000EE0FFF1FE551F94F60837183828393831F
:1057000089E50E944516882381F00091090510E083
:105710000E943116F801EE0FFF1FEE0FFF1FED5034
:10572000F94F6083718382839383E7E1F8E084918A
:10573000882341F09091C00095FFFCCF8093C60074
:105740003196F5CFEDE8F4E08491882341F0909113
:10575000C00095FFFCCF8093C6003196F5CF109224
:10576000090580910905823008F042C0EDE2F4E0BD
:105770008191882339F09091C00095FFFCCF8093F0
:10578000C600F6CFE091090534E0E39FF001112453
:10579000E551F94F408151816281738122E030E00F
:1057A00082E894E00E94DE12EDE9F3E08191882323
:1057B00039F09091C00095FFFCCF8093C600F6CFE2
:1057C000E091090584E0E89FF0011124ED50F94FC4
:1057D000408151816281738122E030E082E894E06F
:1057E0000E94DE12809109058F5F80930905B9CF71
:1057F0008091C00085FFFCCF8AE08093C6003EC444
:1058000083E50E944516882309F438C40E943116A6
:105810000E94E86070937402609373022FC483E562
:105820000E944516882309F429C40E9431160E945B
:10583000E8606B017C0184E50E944516882381F0B5
:105840008DED90E00E94EF1E811118C4E0910905D2
:10585000F0E0EE0FFF1FE359FD4FD182C0820EC46E
:10586000D0927202C092710209C480E50E9445166E
:10587000882309F403C40E9431160E94E860D62EE2
:10588000062F172F83E50E944516882331F00E94CA
:1058900031160E94E8607B0103C0EE24EA94FE2CDE
:1058A000C7010196039708F0E9C3E7EDF3E08191A2
:1058B00091918017910709F4E1C394E0E731F9076A
:1058C000B1F717FDDBC30E94E04DCD2C60E08D2DBC
:1058D0000E94FA5EEFEFEE16FE0631F0EA94EF2832
:1058E00071F000E010E00DC08D2D0E94685F31E086
:1058F00020E0892B09F030E0032F122F02C001E0D5
:1059000010E08C2D0E94685F8017910709F4B6C3E0
:105910000E948B5080E00E94371EF3CF80E50E94EA
:105920004516882351F00E9431166093B00270939F
:10593000B1028093B2029093B30289E40E944516AB
:10594000882361F00E9431160E94DF5A6093AC02F6
:105950007093AD028093AE029093AF0284E40E94F4
:105960004516882361F00E9431160E94EA5A60931E
:10597000A8027093A9028093AA029093AB0283E4D9
:105980000E944516882351F00E9431166093A402AC
:105990007093A5028093A6029093A7020E94615083
:1059A000EFE9F3E08191882339F09091C00095FFF1
:1059B000FCCF8093C600F6CFE2EAF3E08191882322
:1059C00039F09091C00095FFFCCF8093C600F6CFD0
:1059D0004091B0025091B1026091B2027091B30255
:1059E00022E030E082E894E00E94DE12E6EAF3E092
:1059F0008191882339F09091C00095FFFCCF80936E
:105A0000C600F6CF6091AC027091AD028091AE02FB
:105A10009091AF020E94E55AAB01BC0122E030E058
:105A200082E894E00E94DE12EAEAF3E081918823A2
:105A300039F09091C00095FFFCCF8093C600F6CF5F
:105A40006091A8027091A9028091AA029091AB0284
:105A50000E94EF5AAB01BC0122E030E082E894E002
:105A60000E94DE12EEEAF3E08191882339F09091F2
:105A7000C00095FFFCCF8093C600F6CF4091A402F2
:105A80005091A5026091A6027091A70222E030E039
:105A900082E894E00E94DE128091C00085FFFCCF76
:105AA0008AE08093C600EAC283E50E9445168823F7
:105AB00019F00E94311603C060E070E0CB010E9433
:105AC000C245DCC285E40E944516882341F00E944D
:105AD00031160E94E8608B0177FD0AC002C000E029
